:020000040000fa
:10000000f0ff03200d460100cb030100b306010001
:100010003b210100432c01002f30010000000000b3
:1000200000000000000000000000000011b301000b
:10003000ef18010000000000b166010009a90100ed
:10004000af320100af320100af320100af32010028
:10005000af320100af320100af320100af32010018
:10006000af320100af320100af320100af32010008
:10007000af320100af320100af320100af320100f8
:10008000af320100af320100af320100af320100e8
:10009000af320100af320100af320100af320100d8
:1000a000af320100af320100af320100af320100c8
:1000b000af320100af320100af320100af320100b8
:1000c000af320100af320100af320100af320100a8
:1000d000af320100af320100af320100af32010098
:1000e000af320100af32010000000000000000004c
:1000f00000000000af320100af320100af3201005a
:10010000af320100af320100af320100af32010067
:10011000af320100af32010089bd000089bd00008f
:1001200089bd000089bd0000af320100af3201007f
:10013000af320100af320100af320100af32010037
:10014000af320100af320100af320100af32010027
:10015000af320100af320100af320100af32010017
:10016000af320100af320100af320100af32010007
:10017000af320100af320100af320100af320100f7
:10018000af320100af320100af320100af320100e7
:10019000f9a60100af320100af320100af32010019
:1001a000af320100af320100af320100af320100c7
:1001b000af320100af320100af320100af320100b7
:1001c000af320100af320100af320100af320100a7
:1001d000af320100af320100af320100af32010097
:1001e000af320100af320100af3201002da8010093
:1001f000af320100af320100af320100af32010077
:10020000af320100af320100af320100af32010066
:10021000af320100af320100af320100af32010056
:10022000af320100af320100af320100af32010046
:10023000af320100af320100af320100af32010036
:10024000af320100af320100af320100af32010026
:10025000af320100af320100af320100af32010016
:04026000af320100b8
:020000040000fa
:10026400f8b500bff8bc08bc9e467047198b010066
:10027400f8b500bff8bc08bc9e467047f58a01007b
:020000040000fa
:08028400c0970000010000001a
:020000040000fa
:10028c0055736167653a206d6163696e666f200d09
:10029c000a00000045783a206d6163696e666f2034
:1002ac000d0a0000496e746572666163653a20251b
:1002bc007320447269766572205374617469737427
:1002cc006963730d0a0000000d0a205265636569ad
:1002dc00766520537461746973746963730d0a00d5
:1002ec0009206e52784f6b5061636b6574733a20c2
:1002fc0025640d0a09206e527850656e644275664d
:10030c00666572733a2025640d0a09206e52785383
:10031c0063686564427566666572733a2025640d80
:10032c000a00000009206e52784572726f7250619b
:10033c00636b6574733a2025640d0a09206e52783c
:10034c00467261676d656e744572726f72733a2096
:10035c0025640d0a09206e5278427566664e6f74dc
:10036c00417661696c61626c653a2025640d0a0006
:10037c000d0a205472616e736d697420537461742c
:10038c006973746963730d0a0000000009206e54d0
:10039c00784f6b5061636b6574733a2025640d0a5a
:1003ac0009206e547850656e64427566666572738a
:1003bc003a2025640d0a09206e54784572726f72ca
:1003cc005061636b6574733a2025640d0a09206ec5
:1003dc005478517565756546756c6c3a2025640dbd
:1003ec000a0d0a00096e6f7420737570706f727449
:1003fc0065640d0a00000000496e746572666163e5
:10040c00653a2025732048617264776172652052c9
:10041c0065676973746572205374617475730d0a22
:10042c0000000000092025733a20307825780d0a49
:10043c0000000000556e6b6e6f776e206865617002
:10044c0020747970652e205573653a205b312c2011
:10045c0025645d0d0a0000004e6f206865617020f8
:10046c00696e666f2065786973747320666f72208d
:10047c00747970653a202573210d0a004865617006
:10048c0020747970653a2025732e20496e69746941
:10049c00616c2063726561746564206865617020ad
:1004ac0073697a653a2025642042797465730d0a64
:1004bc0000000000416c6c6f6361626c6520626cc3
:1004cc006f636b20686561702073697a653a2025cb
:1004dc00642042797465730d0a000000416c6c2035
:1004ec00617661696c61626c65206865617020730e
:1004fc00697a653a2025642042797465732c2068ea
:10050c006967682077617465726d61726b3a20253a
:10051c00640d0a004c61737420686561702065720b
:10052c00726f723a20307825780d0a004e6f205485
:10053c007261636520696e666f2065786973747388
:10054c002e0d0a00537461636b207570206661690f
:10055c006c65640d0a000000537461636b20757048
:10056c00207375636365656465640d0a00000000a3
:10057c0055736167653a20737461636b203c7570c9
:10058c002f646f776e3e203c707265736572766572
:10059c003e0d0a0045783a20737461636b20646fda
:1005ac00776e2070726573657276650d0a000000b7
:1005bc0075700000537461636b20616c72656164cb
:1005cc0079207570210d0a005475726e2053746178
:1005dc00636b20646f776e20616e64207468656e47
:1005ec00207570210d0a0000526573746172746974
:1005fc006e672074686520737461636b207769740f
:10060c006820256420696e74657266616365287361
:10061c00290d0a00646f776e00000000537461634b
:10062c006b20646f776e3a2063616e6e6f74206717
:10063c006574206120737461636b2068616e646cf7
:10064c00650d0a00537461636b20646f776e2064d0
:10065c006f6e650d0a00000055736167653a20697d
:10066c0066203c696e746572666163653e203c640d
:10067c006f776e2f75703e200d0a000045783a207a
:10068c006966205049433332494e5420646f776e6b
:10069c00200d0a00556e6b6e6f776e20696e746557
:1006ac007266616365207370656369666965642051
:1006bc000d0a00005468697320696e746572666176
:1006cc00636520616c72656164792075700d0a0038
:1006dc004f7065726174696f6e206661696c6564d8
:1006ec002e204e6f20636f6e666967757261746938
:1006fc006f6e0d0a0000000066756c6c0000000047
:10070c005468697320696e746572666163652061f3
:10071c006c726561647920646f776e0d0a0000005d
:10072c0057726f6e6720706172616d6574657220af
:10073c00737065636966696564200d0a00000000ca
:10074c004f7065726174696f6e2073756363657346
:10075c007366756c210d0a004f7065726174696f58
:10076c006e206661696c6564210d0a0055736167c2
:10077c00653a207365746d6163203c696e746572b3
:10078c00666163653e203c783a783a783a783a78f4
:10079c003a783e200d0a000045783a207365746d56
:1007ac006163205049433332494e542061613a62af
:1007bc00623a63633a64643a65653a6666200d0a88
:1007cc0000000000617267765b325d3a2025730d84
:1007dc000a000000496e76616c6964204d4143202b
:1007ec006164647265737320737472696e67200d33
:1007fc000a000000536574204d414320616464720b
:10080c00657373206661696c65640d0a00000000f5
:10081c005365742042494f53204e616d65204f4bf8
:10082c000d0a00005365742042494f53204e616df0
:10083c0065206661696c65640d0a0000557361671b
:10084c00653a2073657462696f73203c696e7465d8
:10085c0072666163653e203c782e782e782e783e49
:10086c00200d0a0045783a2073657462696f732015
:10087c005049433332494e54204d434850424f4126
:10088c0052445f3239200d0a000000005365742079
:10089c006761746577617920616464726573732034
:1008ac004f4b0d0a0000000053657420676174659e
:1008bc007761792061646472657373206661696c19
:1008cc0065640d0a0000000055736167653a20737a
:1008dc0065746777203c696e746572666163653e0a
:1008ec00203c697076342f362061646472657373b2
:1008fc003e203c76616c696454696d653e200d0a3e
:10090c000000000045783a207365746777205049e1
:10091c00433332494e54203139322e3136382e3051
:10092c002e31200d0a000000496e76616c6964203e
:10093c004950206164647265737320737472696ebc
:10094c0067200d0a00000000536574206970206157
:10095c00646472657373204f4b0d0a0053657420e9
:10096c0069702061646472657373206661696c657b
:10097c00640d0a0055736167653a2073657469707c
:10098c00203c696e746572666163653e203c6970db
:10099c0076342f3620616464726573733e203c6933
:1009ac007076346d61736b2f69707636207072655a
:1009bc00666978206c656e3e0d0a000045783a2019
:1009cc007365746970205049433332494e54203159
:1009dc0039322e3136382e302e38203235352e32f3
:1009ec0035352e3235352e30200d0a004e6f2073e2
:1009fc0075636820696e74657266616365206973de
:100a0c002075700d0a000000416e206164647265ef
:100a1c007373207365727669636520697320616cea
:100a2c0072656164792072756e6e696e672e2053e3
:100a3c00746f7020444843502c205a434c4c2c204b
:100a4c006574632e2066697273740d0a00000000d1
:100a5c00496e76616c6964204950206d61736b201e
:100a6c00737472696e67200d0a00000073756363fe
:100a7c00657373006661696c65640000557361672a
:100a8c00653a20736574646e7320312f32203c6993
:100a9c006e746572666163653e203c782e782e78a4
:100aac002e783e200d0a000045783a207365746458
:100abc006e7320312065746830203235352e323516
:100acc00352e3235352e30200d0a0000556e6b6eea
:100adc006f776e20444e5320696e6465780d0a0062
:100aec0053657420444e5320256420616464726500
:100afc0073732025730d0a006e6f74206769766519
:100b0c006e0000004e6f6e65000000006661696c3f
:100b1c000000000055736167653a202573203c691d
:100b2c006e746572666163653e203c6f6e2f6f66f6
:100b3c00662f72656e65772f726571756573742f8c
:100b4c00696e666f3e200d0a0000000045783a2061
:100b5c002573205049433332494e54206f6e200d7b
:100b6c000a000000556e6b6e6f776e20696e7465af
:100b7c0072666163650d0a006f6e00006f66660039
:100b8c0072656e657700000072657175657374002f
:100b9c0052657175657374206e6565647320616e42
:100bac0020495020616464726573730d0a00000063
:100bbc00696e666f000000004448435020737461f6
:100bcc007475733a2025642028202564203d3d202f
:100bdc00426f756e64292c2074696d653a2025640a
:100bec000d0a000044484350206c65617365207306
:100bfc00746172743a2025642c2064757261746976
:100c0c006f6e3a202564730d0a000000444843506f
:100c1c002072656e65772074696d653a2025642ca9
:100c2c0020726562696e642074696d653a20256472
:100c3c000d0a00004448435020616464726573736c
:100c4c003a2025730d0a0000444843502073657206
:100c5c007665723a2025730d0a0000004448435013
:100c6c0020626f6f74206e616d653a2025730d0ada
:100c7c0000000000444843502054696d65207365a2
:100c8c0072766572733a2025642c2025730d0a0048
:100c9c0044484350204e54502073657276657273ed
:100cac003a2025642c2025730d0a0000444843503b
:100cbc003a206661696c656420746f2067657420e6
:100ccc00696e666f0d0a0000556e6b6e6f776e2045
:100cdc006f7074696f6e0d0a00000000257320257b
:100cec00732025730d0a0000737563636573736657
:100cfc00756c00006661696c656421007365740035
:100d0c006765740044656661756c7420696e746502
:100d1c007266616365207365742025730d0a00008b
:100d2c0044656661756c7420696e74657266616386
:100d3c00652069733a2025730d0a000055736167ad
:100d4c00653a206465666e6574207365742f6765fb
:100d5c0074203c696e746572666163653e0d0a00b1
:100d6c0045783a206465666e6574207365742065f9
:100d7c007468300d0a000000656e61626c65640079
:100d8c0064697361626c656400000000555000007a
:100d9c00444f574e0000000052656164790000001a
:100dac004e6f742052656164790000005573616761
:100dbc00653a206e6574696e666f0d0a000000005e
:100dcc0045783a206e6574696e666f0d0a000000f6
:100ddc002d2d2d2d2d2d2d2d2d2d20496e74657223
:100dec0066616365203c25732f25733e202d2d2dc8
:100dfc002d2d2d2d2d2d2d200d0a0000496e7465e5
:100e0c00726661636520697320646f776e0d0a00ea
:100e1c00486f7374204e616d653a202573202d2028
:100e2c004e424e5320656e61626c65640d0a000083
:100e3c004950763420416464726573733a2025738b
:100e4c000d0a00004d61736b3a2025730d0a0000ea
:100e5c00476174657761793a2025730d0a000000ab
:100e6c00444e53313a2025730d0a0000444e533240
:100e7c003a2025730d0a00004d41432041646472f1
:100e8c006573733a2025730d0a0000006468637063
:100e9c002069732025730d0a000000004c696e6bed
:100eac002069732025730d0a0000000053746174cf
:100ebc0075733a2025730d0a0000000064656661a5
:100ecc00756c742049502061646472657373000002
:100edc002573206973204f4e0d0a000064686370ff
:100eec000000000055736167653a202573203c694a
:100efc006e746572666163653e203c6f6e2f6f6623
:100f0c00663e200d0a000000556e6b6e6f776e20ea
:100f1c00736572766963652025730d0a0000000005
:100f2c003a20737461636b20636f6d6d616e6473d3
:100f3c000000000074637069700000004661696c09
:100f4c00656420746f20637265617465205443502e
:100f5c00495020436f6d6d616e64730d0a00000083
:100f6c00696e7465726e616c00000000706f6f6c5e
:100f7c000000000065787465726e616c0000000002
:100f8c006e6574696e666f003a20476574206e65f5
:100f9c0074776f726b20696e666f726d6174696fb6
:100fac006e0000006465666e657400003a2053653f
:100fbc00742f4765742064656661756c7420696e66
:100fcc0074657266616365003a204448435020633f
:100fdc006c69656e7420636f6d6d616e6473000077
:100fec007a636c6c000000003a205475726e205ac3
:100ffc00434c4c206f6e2f6f6666000073657464f3
:10100c006e7300003a2053657420444e5320616483
:10101c00647265737300000073657469700000007e
:10102c003a2053657420495020616464726573736f
:10103c0020616e64206d61736b00000073657467d2
:10104c00770000003a20536574204761746577611e
:10105c007920616464726573730000007365746257
:10106c00696f73003a2053657420686f737427732b
:10107c00204e657442494f53206e616d650000002f
:10108c007365746d616300003a20536574204d41a3
:10109c00432061646472657373000000696600002c
:1010ac003a204272696e6720616e20696e746572b7
:1010bc00666163652075702f646f776e00000000a9
:1010cc00737461636b0000003a20537461636b208e
:1010dc007475726e206f6e2f6f6666006865617036
:1010ec00696e666f000000003a20436865636b20f0
:1010fc006865617020737461747573006d616369e8
:10110c006e666f003a20436865636b204d41432047
:0c111c007374617469737469637300007c
:020000040000fa
:101128002de9f04f91b00f210a2017f0d1ff03905d
:1011380010f0010f40f02b85039b13f0020f40f0d5
:101148004a8511b0bde8f08fd9f8187007f110037f
:101158000793fb680d933b690e9300228df83c20a2
:1011680006238df83d302b0a43ea0523adf83e30bf
:101178000c210da814f00cfec3439bb2b9f8222031
:1011880012f0040f33d02a464146484613f04cfc6f
:101198000490049b002b40f06386404615f080f8cd
:1011a80098f80cb04fea1b1b4fea8b030693d9f84b
:1011b8001cb0bbf80220002a00f05586fe89bb89c6
:1011c8001e44bbf800301e445640b6b2cc4bd3f890
:1011d80000c0bcf1000f00f04986d9f828e0c94bdf
:1011e8001b68059300239a46194610460fe01a46d5
:1011f8002946404614f0ccfd0490cae7b4f86a20aa
:1012080082422fd001331bb2194663452fd2059a6b
:1012180052f82140002cf5d094f86e200b2af1d01a
:1012280094f86f100129edd8216c09b18e45e9d1e8
:10123800002ae3d0b4f86a20b242e3d1dbf8001008
:10124800a26d9142ded1a16bfa689142dad10121f7
:1012580084f86f10c4f840e0079a204618f062fb43
:10126800a24621e0baf1000f08bfa246cae7baf1c8
:10127800000f7fd0fb68caf8383001218af86f1058
:10128800caf840e0079a504618f04cfbaaf86a6082
:10129800bbf80030aaf85830bbf80230aaf85a3028
:1012a800daf80030caf81030d9f810209389069976
:1012b8005b1a938198f80d40d8f80870d8f8046044
:1012c8009af8373013f0400f58d19af86d306ff311
:1012d80000038af86d309af86e30002b69d0012b24
:1012e80000f0b6801435069aa5eb020b1ffa8bfbab
:1012f800abf1140292b2069214f0010207921abfdf
:10130800abf1130b1ffa8bf2069a059214f0020f39
:1013180003d0059a013292b20592daf81c50daf835
:1013280020209542c0f0e580daf81810daf81400a9
:10133800091aa5eb020ba1eb0b0b1ffa8bfbdaf8d2
:101348005020b51a059a002a00f0f080bbf1000f72
:1013580000f0e280002dc0f2d9805d45c0f0eb803e
:10136800059aabeb0202ab4500f3e580954240f3ea
:10137800e280d1e06ff00e0100f005bc00238af88e
:1013880071309af8363013f0020f9ed119f086fdad
:101398008346baf86830059319f094fd059b00fb65
:1013a80003f0594ba3fb00300beb9010caf8240054
:1013b8008be714f0040f35d114f0100f37d114f067
:1013c800020f40d00136caf85060404610f054fe73
:1013d800aaf86200504617f0a6fd012212215046d5
:1013e80004f0e4fa02238af86e3000201af0dafedc
:1013f800daf87450daf87860baf8724001460020da
:101408001af0f4ff049b14ea030200f03285002d61
:1014180000f031853346d9f82810baf93400a847c6
:101428000221b0e3002150460cf0f2f8dde7caf8db
:101438004c7000220421504604f0b8fa00215046ae
:101448000cf0e6f8d1e7002150460cf0e1f8cce7c3
:1014580014f0040fc9d114f0100f00f00e85daf85b
:101468004c50af422ad114f0020fbed00136caf850
:101478005060b8f80e30aaf86630aaf85c304046da
:1014880010f0fafdaaf86200504617f04cfd012250
:101498001021504604f08afa03238af86e309af82d
:1014a800373013f0400f13d19af836306ff34103f9
:1014b8008af836304ff48073049396e7caf84c7074
:1014c80001220421504604f071facaf84c508ce706
:1014d80019f0e4fc0546baf8684019f0f3fc00fb83
:1014e80004f3094aa2fb032305eb9313caf824303b
:1014f800dae7a2eb050b0bf1ff3b1ffa8bfb1ee7ac
:10150800ec280020e8280020d34d621005990a46ef
:10151800691800293ff725af14f0040f7ff465af71
:1015280001221021504604f041fa5ee71db1002d5a
:10153800f2db5d45f0da14f0060f11d114f0100f4c
:101548003ff453af023b072b00f2fe80dfe813f0b5
:1015580019002400240024002400fc002400f901c0
:1015680014f0040f08d09af8373043f002038af8d1
:1015780037304ff400630493002150460cf048f8cc
:1015880033e7daf84c3008939f4220d103238af8d6
:101598006e304ff480730493daf808c0daf810302c
:1015a800bceb03001ed4daf84c107a1a121a002a7f
:1015b80028ddbaf86c0000f40170042801d1012a72
:1015c80017d000221021504604f0f0f90de7caf8b0
:1015d8004c7001220421504604f0e8f9089bcaf82f
:1015e8004c3002e7daf80410daf80020891a0844c7
:1015f800d9e70131caf84c109af86d2042f002027e
:101608008af86d20daf84c200992daf80c10089163
:10161800a3eb010e8b422fd2daf80400daf800109f
:10162800411ab81a70440844002838dddaf8042052
:101638000a92daf80010521a0b9290422cd89af8b3
:101648006c1001f0ef016ff345118af86c109af8ed
:1016580036106ff345118af83610089a0244caf812
:101668000c200b990b449342c0f0ff800a9b9a42ce
:10167800c0f0558400f04fbc0999781a70440028ce
:101688000adddaf804100a460a91daf80010521a4c
:101698000b92904240f22084089a93422cd09af8f8
:1016a8006c1011f0100f21d011f0200f18d0099aea
:1016b800a2eb0e01caf84c10089a934207d2daf846
:1016c8000430daf800001b1acb1acaf84c30089b11
:1016d800caf810309af8363043f080038af836306a
:1016e8009af86c3043f020038af86c309af86c3022
:1016f80043f010038af86c30daf80c309c4500f09f
:10170800bc80b8f80e30baf866209a4238bfaaf8fa
:101718006630daf84c20b8f80e303b449b1a9bb27e
:10172800baf85c1031b92bb19af8361041f0400183
:101738008af83610aaf85c309af86e30042b00f05c
:10174800d780062b00f0f58014f0200f7ff44dae03
:101758009af86e20a2f10803dbb2012b7ff645aea2
:10176800062a3ff442ae069a002a3dd0002d40f3e7
:10177800f380069b2b445b4504ddabeb050b1ffa9e
:101788008bf3069398f80c301b0908eb83030c9332
:10179800daf81c10daf81830069a2a440a449342f8
:1017a80080f069815a1a0132521b00f156811ffae2
:1017b80082f80124009443460ca80246294448466e
:1017c80013f010ff8346069aa2eb080300949bb21d
:1017d8000caadaf81410484613f004ff584480b2f3
:1017e800069b834200f05081059bcbb19af86e307e
:1017f800033bdbb2022b84bfdaf81c30caf8203076
:101808009af8363013f0100f40f06d819af83630a0
:1018180043f010038af8363013f0080f00f069819e
:10182800079b002b3ff4e1addaf850300133059afd
:10183800324493427ff4d9adcaf85030049b43f444
:10184800806293b204939af8373043f004038af81d
:1018580037309af86e30023b032b00f27881dfe8cc
:1018680013f05d0166016f018601d31a09990b44d3
:10187800caf84c30caf810204ae39af8373013f007
:10188800010f1dd113f0400f06d19af836306ff3cf
:1018980041038af8363034e719f000fb0890baf8ab
:1018a8006830099319f00efb099b00fb03f34ff412
:1018b8007a72b3fbf2f3089a1344caf82430e4e7c7
:1018c800daf84c309f427ff41caf9af86c3013f072
:1018d800040f3ff416af9af836306ff341038af8d5
:1018e80036309af837306ff300038af8373008e754
:1018f800974204d014f0200f3ff435af75e59af8fd
:101908006c3013f0040ff5d019f0c8fa089019f0ec
:10191800d9fa41f2883303fb00f34ff47a72b3fb30
:10192800f2f3089a1344caf8303005238af86e3067
:10193800e0e797427ff459ad002150460bf068fe6e
:1019480053e5daf84c3001339f427ff44ead002165
:1019580050460bf05dfe48e598f80c301b09c5ebc6
:10196800830343440c932a4493b29b4528bf9b4668
:10197800daf81c10daf8183001eb0b0293425cd24b
:101988005b1a03f101081ffa88f5012400942b461d
:101998000caa484613f026fe0690abeb050300940c
:1019a8009bb20caadaf81410484613f01bfe069beb
:1019b800034498b2abeb0803daf8142013445845f3
:1019c8007ff412afdaf850105944caf85010caf828
:1019d8001c309af86e20033ad2b2022a04d8049a2c
:1019e80042f4007292b20492daf85420b2f1ff3f46
:1019f8003ff4faaea2eb0b0bcaf854b0baf8602069
:101a080012eb0b0224d4bbf1000f3ff7edae1144eb
:101a1800caf850101344caf81c30daf81820934258
:101a280006d9daf81410521ad2431344caf81c30f3
:101a38004ff0ff33caf85430d6e6012300935b46d3
:101a48000caa484613f0cefddaf81c305b44b6e722
:101a58004ff0ff33caf85430c6e6681edaf814208f
:101a68009b1ac01a01230093069b0caa01444846fe
:101a780013f0b8fdb4e601230093069b0caa294491
:101a8800484613f0affdabe6daf85430b3f1ff3f48
:101a980013d09d4217d2069a5119baf86020d0186f
:101aa800814204d88b4202d8431b9bb20693069b03
:101ab800aaf86030caf8545096e6caf85450069b03
:101ac800aaf8603090e6baf860201a4406984119de
:101ad80091427ff689ae95423ff686aeeb1a1844de
:101ae800aaf8600080e601221021504603f05eff4c
:101af80096e6dbb243f008038af8363019f0cef9df
:101b0800044619f0dff9642303fb00f34ff47a72fb
:101b1800b3fbf2f31c44caf82c4081e609238af887
:101b28006e3001221121504603f040ff5de4082386
:101b38008af86e309af86d3013f0010f07d054e42c
:101b4800daf84c309f4208d006238af86e3001221a
:101b58001021504603f02aff47e400221021504686
:101b680003f024ff002150460bf052fd3de4002213
:101b78001021504603f01aff002150460bf048fd93
:101b880033e46ff00d010a22484618f03ffa0a20a4
:101b980018f0f0fd814600283ff4ceaab9f820508d
:101ba800132deed9d9f81c8098f80c301b09042b9a
:101bb8000bd9b5eb830f0bdbb9f8223013f4007f98
:101bc8003ff4c2aa6ff00e01dde76ff00d01dae70e
:101bd8006ff00d01d7e7bd4b1b68002b3ff4b1aa8e
:101be80000252b46dff8e892dff8e8a2dff8dc8270
:101bf800dee019f053f9a36ac01a0028a8bf10261e
:101c0800ede019f04bf9e36ac01a0028c0f2ed8044
:101c180094f86e30052b00f09981102687f00102a8
:101c28003146204603f0c2fee7e019f037f9236b8e
:101c3800c01a0028c0f2de8001221421204603f0d9
:101c4800b5fe002120460bf0e3fca9e094f83660cd
:101c580006f001060121204610f09dfe94f836306a
:101c680043f0010384f836304ff4805200212046b7
:101c780015f068fd002e40f0938094f836306ff32d
:101c8800000384f836300a2384f86e3088e019f0af
:101c980005f9636ac01a0028c0f2828094f86e10b1
:101ca8004b1e082b7ad8dfe803f0054256617969a4
:101cb8007979710094f87030032b28d80221002616
:101cc80094f87030013384f87030a36c5b00a3641f
:101cd8002069e268831a9bb2904204d26068276840
:101ce800c01b03449bb2e06cc01ae064b4f85c000b
:101cf8000344a4f85c3022610022204603f056fe1b
:101d0800002e4dd0002120460bf082fc48e0042331
:101d180084f8703019f0d6f84ff47a7303fb00f3a7
:101d2800aafb03239b091b01a3640221c7e794f8bc
:101d38007030022b40f2c08094f8366006f0010340
:101d48001e46002b18bf1421002fb9d101222046ae
:101d580003f02cfed4e794f87030042b40f2ae80e8
:101d6800042384f86e3011210026ede794f87030d2
:101d7800042b40f2a58014210126e5e794f8703081
:101d8800042b40f29f8014210126dde794f870307f
:101d9800042b40f2998014210126d5e7002e5cd14e
:101da80001352db22b46d8f800209542bff4c9a9b9
:101db800d9f8002052f82340002cf1d094f86e3066
:101dc8000b2bedd094f8363013f0c0061dbf1f461c
:101dd800df091026002713f0040f7ff40aaf94f8e8
:101de800363013f0080f7ff40caf94f86e30052be3
:101df8003ff41baf002e7ff411af94f8363013f088
:101e0800020f7ff444af94f8373013f0400fc7d077
:101e180094f86e30032bc3d119f040f8636ac01ae6
:101e28000028bddb94f8712094f87c309a423ff486
:101e38000daf02221021204603f0b8fd19f02ef84c
:101e48000746b4f8686019f03df800fb06f0aafbf5
:101e5800003007eb90106062a2e73146002673e776
:101e68006ff009018fe66ff00e018ce66ff00e013e
:101e780089e6022187e6022185e614f0020f3ff485
:101e8800b4aa0136caf85060b8f80e30aaf866301d
:101e9800aaf85c30404610f0eff8aaf86200504605
:101ea80017f041f801221221504603f07ffd02236a
:101eb8008af86e30fff799ba122100e71021fee682
:101ec8001121fce61021fae61121f8e6ec280020a1
:101ed800e8280020d34d62109af86c1001f0ef0149
:101ee8006ff345118af86c109af836106ff34511a4
:101ef8008af83610089a0244caf80c209342bff4b4
:101f0800b5abd31a09990b44caf84c30caf810205b
:101f18000a9b93420cd80b9bd21acaf80c20daf809
:101f280010300a9a9a4203d80b9a9b1acaf81030b2
:101f38009af86e30032b02d0082b7ff4ddab049b9c
:101f480043f0040293b20493fff7d6bb18f0a6ff40
:101f5800236bc01a0028bff66fae10265ee600bfde
:020000040000fa
:101f68002de9f04f2ded028b9db00f21202017f0a9
:101f7800aff8002800f0b686824b1b68002b40f3b0
:101f8800b186814c0026814fdff810829fed808a50
:101f980008f294730593bee3d4f8c4305d6894f8ee
:101fa800d12032b3227c012a45d0022a65d1b4f966
:101fb8003830b3f1ff3f27d00023764a4ff4007141
:101fc800b4f9380016f064fcd4f8bc200221b4f946
:101fd80038000df0f2fe38b9d4f8c4301b681b681d
:101fe80008f2e461284698470621204615f084fa4d
:101ff8008ae31b681b6808f29c6128469847012100
:10200800204615f079fa7fe304f18002618a012005
:1020180010f014fe2087b0f1ff3fcdd1d4f8c430c2
:102028001b681b6808f5d861284698470121204697
:1020380015f062fa68e304f18002618a01201af05f
:10204800a2fda087b0f1ff3f0ad00023524a4ff407
:10205800807116f07ffa0321204615f04dfa53e3fc
:10206800d4f8c4301b681b6808f20c7128469847de
:102078000121204615f040fa46e31b681b6808f565
:10208800e661284698470121204615f035fa3be3da
:10209800d4f8c430d3f804b03b4be31adb1003eb9d
:1020a800c30203eb4203c3eb432303eb8343c3f1b4
:1020b800000a86e0d4f8c4301b681b6808f5e9619b
:1020c800584698470421204615f016fa1ce3b4f93f
:1020d8003c0019f0a5f917e30133c4f894302846f9
:1020e80019f0c0f902460b46d4e9080108f0d6faff
:1020f800c4e90801b9f1000f1adba36ae26a511cae
:102108008b4230d0934222dc616b01f101016163a3
:102118002bd022e0d4f8c4301b685b6808f5ed6169
:1021280058469847236b013ba26a1344236383e014
:10213800c9f10003a36218f0b1fec4f88c000023b3
:1021480084f8cc300421204615f0d6f9d5e75b1a7f
:10215800226b13442363a36ae3620c3dadb285b3db
:102168004ff0340925e0934206d1d4f8c4301b68f7
:102178001b68059958469847a36ae26a9342ecddc2
:10218800eae700bf3429002018200020340000208e
:1021980000007a44c9c30100b3c30100f82c000051
:1021a8004a463946b4f93c000ef09efe343dadb2c5
:1021b8003db1332df4d82a463946b4f93c000ef027
:1021c80093feb4f93c0018f0a1fd05460b2840f237
:1021d80082800c223946b4f93c000ef085fe0c28aa
:1021e8007ff468af3b684fea136949ea03691a024a
:1021f80002f47f0249ea02091b0a03f47f4349ea11
:102208000309c4f82890d4f89430002b7ff464af05
:10221800b9f1000ffff65baf0123c4f89430d4f88e
:10222800c4301b685b68524608f2cc715846984720
:10223800a26a002a7ff46eafa36ae36207a9b4f921
:102248003c000ef0b9f9b4f93c001af065fa19f03f
:1022580047fb089dd4f8c4301b68628a0292020ebc
:102268000192c0f307420092d3f80490c0f3072309
:10227800c2b208f5b0615846c847d4f8c4301b68e4
:10228800bdf8602002922a0e0192c5f3074200921f
:10229800d3f80490c5f30723eab208f2b4515846bc
:1022a800c8476564bdf86030a4f8643018f0f6fdde
:1022b800c4f88800c4f8a800a36ac4f89c30d4f80d
:1022c8009430c4f89830236bc4f8a030b4f93c00bb
:1022d80019f0a6f875e7d4f894304bb994f8cf30d4
:1022e800012b40f011820421204615f005f90be27c
:1022f80018f0d4fdd4f8a830c31a22689342edd957
:10230800d4f89420d4f898309a4213d1d4f8c43031
:102318001b681b6808f2b4715846984718f0befd50
:10232800c4f88c00002384f8cc300421204615f032
:10233800e3f8d3e70021204607f05cffcee7b4f9c5
:102348003c0018f0e3fc38b994f8cf304bb10921c0
:10235800204615f0d1f8d7e1b4f93c0019f060f83f
:10236800d2e10521204615f0c7f8cde194f8cd302b
:10237800002b00f0d080b4f93c0018f0c7fc00280e
:1023880040f0d18094f8cc305a1c84f8cc200a2b29
:1023980000f2ce808021b4f93c001af01bfc002822
:1023a80000f0b281e36a5b421a0e42ea0362190244
:1023b80001f47f010a431b0a03f47f4313433b6084
:1023c80000253d717d71bd71fd713d727d72bd72db
:1023d800fd726ff07f033b737d73bd73fd733d74b6
:1023e8007d74bd74fd74d4e9080118f0c3ff020eb2
:1023f80042ea0062030203f47f031a43030a03f468
:102408007f4313437b6118f05dfdd4f88c10d4f83a
:102418008830c91ab1fbf0f31a0e42ea03624fea98
:10242800032c0cf47f0c42ea0c024fea132c0cf438
:102438007f4c42ea0c02ba6100fb131307ee103a14
:10244800b8ee477a27ee087a07ee900af8ee676a40
:10245800c7ee267a67ee887afceee77a17ee903aae
:102468001a0e42ea0362190201f47f010a431b0aa9
:1024780003f47f431343fb61236b1a0e42ea0362a2
:10248800190201f47f010a431b0a03f47f43134333
:102498003b62636b1a0e42ea0362190201f47f0180
:1024a8000a431b0a03f47f4313437b62e36a1a0e51
:1024b80042ea0362190201f47f010a431b0a03f48a
:1024c8007f431343bb6287f82c5087f82d5087f859
:1024d8002e5087f82f5087f8305087f8315087f8fa
:1024e800325087f8335034223946b4f93c0015f09d
:1024f80061fc4ff04c094a46294607a81af06cf9c6
:102508004a4607a9b4f93c0015f054fcb4f93c005c
:1025180008f002fbf8e00221204607f06bfe0123d9
:1025280084f8cd3027e7b4f93c0018f079ffebe0e8
:102538000921204614f0e0ffe6e094f8cf30012ba3
:1025480024d0b4f9380018f094fd002800f0dc809d
:1025580007a9b4f9380012f054ff04f1400c07ad94
:102568000fcdace80f000fcdace80f000fcdace8f5
:102578000f0095e803008ce803000721204614f0bb
:10258800bbffb4f9380018f03efabde00921204637
:1025980014f0b2ffb8e0d4f8c430d3f80490b4f91a
:1025a80038001af048f80546002866d0a36a002bc0
:1025b8004cd1bf4be31adb1003ebc30203eb42031e
:1025c800c3eb432303eb8343d4f8c4201268d2f847
:1025d80004a05a4208f2cc714846d04718f05efc75
:1025e800c4f88800c4f8a800a36ac4f89c30b4f9f9
:1025f80038001af099f819f073f9d4f8c4301b6848
:10260800628a0292020e0192c0f307420092d3f846
:1026180004a0c0f30723c2b208f5b0614846d0470a
:10262800d4f8c4301b68b4f86420029294f84720a8
:10263800019294f846200092d3f804a094f845300b
:1026480094f8442008f2b4514846d047a36a0133ad
:10265800a362d4f894200132c4f89420e362284697
:1026680018f000ff02460b46d4e9080108f016f8f6
:10267800c4e908014ff034091be0b4f9380018f038
:10268800c2f920b9b4f9380019f084fec8b118f0bd
:1026980005fcc4f88c000821204614f02dff33e017
:1026a8004a463946b4f938000ef0eaff343dadb277
:1026b8003db1332df4d82a463946b4f938000ef026
:1026c800dfffa36a63b994f8cf30012b1cd108212e
:1026d800204614f011ff18f0e1fbc4f88c0013e059
:1026e80018f0dcfbd4f8a830c31a22689342ead960
:1026f8000021204607f07efde5e794f8cd30bbb316
:102708000921204614f0f8fe0136d834694b1b68bd
:10271800b34240f3e78294f8ce30012bf4d0023b69
:10272800102b00f2c48201a252f823f0a11f00006e
:10273800992000004723000075230000432500006e
:102748009f25000003270000892700002d2800008e
:1027580059280000352a0000192b0000a12b000081
:10276800912c000045290000012c0000a72c000036
:102778000221204607f03efd012384f8cd30bfe753
:10278800d4f8c4305d68237c012b2cd0022b2fd0c9
:10279800474be31adb1003ebc30203eb4203c3eb23
:1027a800432303eb8343c3f10009d4f8c4301b6807
:1027b8005b684a4608f5ff6128469847204615f0a9
:1027c800adfa94f8d130012b1ad0d4f8c4301b6874
:1027d8005b684a4608f65c0128469847012120466e
:1027e80014f08afe90e7b4f93c0017f067fbcfe7d6
:1027f800b4f9380016f0a8fc4ff6ff732387c7e733
:1028080094f8cf30002be0d1d4f8c4301b685b6853
:102818004a4608f62801284698470221204614f01f
:102828006bfe71e7d4f8c80019f025fb032808d11e
:102838000b21204614f060fe18f030fbc4f8ac0001
:1028480062e704f14401d4f8c80015f00fffefe780
:10285800d4f8c4305d6894f8cf20012a17d0d4f892
:10286800c80019f008fb03281cd094f8443003f082
:10287800f003e02b20d1237c012b5ad0237c022ba0
:102888007ff442af0c21204614f036fe3ce71b686b
:102898001b6808f67c01284698470121204614f059
:1028a8002bfe31e70022a267a4f87c20e3e700bff3
:1028b800182000203429002004f1780204f1440192
:1028c800d4f8c80011f0b0f9c8b1d4f8c4301b6806
:1028d80094f87d20039294f87c20029294f87b204f
:1028e800019294f87a200092d3f8049094f8793001
:1028f80094f8782008f6dc012846c847bbe718f0aa
:10290800cdfad4f8ac30a0eb030918f0dbfa00ebf1
:10291800800081457ff6f8aed4f8c4301b681b6888
:1029280008f69c012846984718f0b8fac4f8ac0095
:10293800eae61021204614f0dffd9fe7d4f8c43002
:102948005d6804f14402618a01201af021f9a08728
:10295800b0f1ff3f5dd00023c94a4ff4807115f0f4
:10296800f9fde2680521b4f93c0005f077fa38b9b9
:10297800d4f8c4301b681b6808f608112846984725
:1029880002220621b4f93c0005f068fa38b9d4f8f7
:10299800c4301b681b6808f5136128469847d4f8ab
:1029a800c810b4f93c0013f0e3fe07a9b4f93c00e1
:1029b8000df002febdf86230a4f87e30d4f8c430c1
:1029c8001b681b6808f5657128469847d4f8c43019
:1029d8001b68628a029294f84720019294f8462074
:1029e8000092d3f8049094f8453094f8442008f6ff
:1029f80058112846c8471121204614f07dfd18f0cb
:102a08004dfac4f88800d4f884300344c4f89030f0
:102a18007ae6d4f8c4301b681b6808f20c712846a3
:102a280098470121204614f067fd6de6d4f8c430bc
:102a38005d680022618a012019f037fa6087b0f1d9
:102a4800ff3f4fd000238f4a4ff4007115f020ff4d
:102a5800d4f88030002b52d104f144030022012124
:102a6800b4f93a0014f097fe4ff48063a4f87e306e
:102a7800d4f8c4301b681b6808f565712846984768
:102a8800d4f8c4301b68628a029294f847200192f5
:102a980094f846200092d3f8049094f8453094f8be
:102aa800442008f519612846c8470d21204614f02e
:102ab80023fdd4f8b8200321b4f93a000df07df9cc
:102ac80038b9d4f8c4301b681b6808f608112846c2
:102ad8009847b4f93a0017f08cfc18f0dff9c4f8fd
:102ae800ac0011e6d4f8c4301b681b6808f5d8613f
:102af800284698470121204614f0fefc04e604f11c
:102b08008003628a0121b4f93a000ff0dbf8a3e7e9
:102b180094f8cf30012b1ad0d4f8c430d3f80490ed
:102b2800b4f93a0018f0a5fab0b1b4f93a0017f0c0
:102b38006aff18f0b3f9c4f88800d4f88430034465
:102b4800c4f890300e21204614f0d6fcdce50f21a5
:102b5800204614f0d1fcd7e518f0a0f9d4f8ac5011
:102b6800451b18f0aff900eb800085427ff6ccad2d
:102b7800b4f93a0016f0e8fa4ff6ff736387d4f811
:102b8800c4301b681b6808f6c811484698470f21cf
:102b9800204614f0b1fcb7e5204604f077ff012881
:102ba8000bd002287ff4b0ad0f21204614f0a4fc0e
:102bb80018f074f9c4f88c00a6e53422542138467c
:102bc80019f00afeb4f8b03073b1332b94bf1d4628
:102bd80034255b1ba4f8b0302a463946b4f93a00cc
:102be8000af0d0fd8542edd0b4f93a0018f054fa55
:102bf800204609f0aff987e5227d0b21b4f93c00a6
:102c080005f02cf9204604f041ff01280bd00228da
:102c18007ff47aad1221204614f06efc18f03ef9cc
:102c2800c4f88c0070e534225521384619f0d4fddb
:102c3800b4f8b050bdb14ff000094ff0340a01e0cc
:102c4800002d42d0332d37d9343dadb209f13409c6
:102c58001ffa89f952463946b4f93c0015f0aaf82a
:102c68003428edd031e0a9462fe0b4f8b030a3eb1a
:102c78000909a4f8b090204609f06cf944e500bfb2
:102c8800b3c30100c9c30100204612f0d3fdb4f953
:102c98003a0016f059fa4ff6ff73638734e5204679
:102ca80012f0c8fdb4f93c0017f008f92ce5012131
:102cb800204614f021fc27e5a9441ffa89f92a4681
:102cc8003946b4f93c0015f075f8b4f93c0007f042
:102cd80023ff0028c9d100221146b4f93c0016f0a0
:102ce80003f911e51db0bdec028bbde8f08f00bf04
:020000040000fa
:102cf8002d7478002d7278002d6900002d2d696ed5
:102d08006465780055736167653a20697065726615
:102d180073203c2d74782073697a653e203c2d72af
:102d2800782073697a653e203c2d6920696e646558
:102d3800783e0d0a000000000d0a69706572663a57
:102d480020496e76616c69642073657373696f6e70
:102d5800206e756d6265722e204d696e3a20302c9a
:102d6800204d61783a2025640d0a0000697065726b
:102d780066733a2030203c2073697a65203c2036ff
:102d8800353533360d0a00006970657266733a206e
:102d98004f4b2c20696e7374616e63652025642027
:102da80074782073697a652069732025640d0a0098
:102db8006970657266733a204f4b2c20696e737484
:102dc800616e63652025642072782073697a6520b6
:102dd80069732025640d0a0069706572666b3a2074
:102de8005573696e6720696e64657820300d0a0036
:102df8000d0a69706572662073657373696f6e3a40
:102e0800206e6f742073746172746564210d0a00fa
:102e18000d0a69706572663a20747279696e672066
:102e2800746f2073746f7020697065726620696ea4
:102e38007374616e63652025642e2e2e0d0a0000c2
:102e480055736167653a2069706572666b203c2d21
:102e58006920696e6465783e0d0a00002d610000e6
:102e68006970657266693a207573652061207661bc
:102e78006c69642049502061646472657373210d24
:102e88000a0000006970657266693a20556e6b6ebb
:102e98006f776e20706172616d657465720d0a00de
:102ea80055736167653a20697065726669202d619e
:102eb8002061646472657373203c2d6920696e64b7
:102ec80065783e0d0a0000000d0a69706572666932
:102ed8003a2063616e6e6f74206368616e67652067
:102ee8007468652069702061646472657373207703
:102ef80068696c652073657373696f6e3a20256421
:102f08002072756e6e696e67210d0a0069706572b0
:102f180066693a204f4b2c207365742074686520cd
:102f28004950206164647265737320746f20696e00
:102f38007374616e63653a2025640d0a0000000011
:102f48002d7300002d2d73657276657200000000e8
:102f58002d7500002d2d7564700000002d62000095
:102f68002d2d62616e647769647468004d000000fd
:102f78004b0000000a476976656e20696e2042574b
:102f88003a20256c752b256c753d256c7500000065
:102f98002d7800002d2d786d6974726174650000bc
:102fa8002d6300002d2d636c69656e7400000000b0
:102fb8002d7400002d2d74696d6500002d6e0000c4
:102fc8002d2d6e756d0000002d5300002d2d746f92
:102fd800730000000a476976656e20544f532076c7
:102fe800616c75652069732025642c206d54797097
:102ff800654f66536572766963653a25640000001b
:103008002d4d00002d2d6d73730000002d2d696e60
:1030180074657276616c00002d7000002d2d706f44
:10302800727400002d6c00002d2d6c656e00000080
:1030380069706572663a20546865206d696e696dbd
:10304800756d20646174616772616d2073697a655a
:103058002069732025640d0a0000000069706572fc
:10306800663a205573696e672074686520646566e2
:1030780061756c7420696e74657266616365210d93
:103088000a0000002d2d2d2d2d2d2d2d2d2d2d2d12
:103098002d2d2d2d2d2d2d2d2d2d2d2d2d2d2d2d58
:1030a8002d2d2d2d2d2d2d2d2d2d2d2d2d2d2d2d48
:1030b8002d2d2d2d2d2d2d2d2d2d2d2d2d0d0a00a8
:1030c80069706572663a20536572766572206c691c
:1030d8007374656e696e67206f6e200055445000ea
:1030e8005443500020706f72742025640d0a00004c
:1030f8000d0a69706572663a20416c6c20696e73be
:1031080074616e63657320627573792e20526574dd
:103118007279206c61746572210d0a000d0a69705c
:103128006572663a205374617274696e67207365bc
:103138007373696f6e20696e7374616e63652025a1
:10314800640d0a00202020202d205b25326c752d6f
:103158002025326c75207365635d2025336c752fcf
:103168002025336c75202825326c752525292020cb
:10317800202025346c75204b6270730d0a00000006
:10318800202020202d205b302e302d20256c752e00
:10319800256c75207365635d2025336c752f20259c
:1031a800336c75202825326c752525292020202090
:1031b80025346c75204b6270730d0a006970657256
:1031c800663a20696e7374616e63652025642063b6
:1031d8006f6d706c65746564202e2e2e00000000e3
:1031e800697065726620696e7374616e6365202507
:1031f800643a20547820646f6e652e20536f636b99
:10320800657420636c6f7365642e0d0a00000000fe
:1032180069706572663a20696e7374616e636520c1
:10322800256420636f6d706c657465642e0d0a00eb
:1032380069706572663a20536f636b6574207365b5
:103248006e64206661696c65640d0a000d0a697018
:103258006572663a20696e7374616e6365202564d1
:103268002073746172746564202e2e2e0d0a00007e
:10327800202020202d204c6f63616c202025752e86
:1032880025752e25752e257520706f72742025756d
:1032980020636f6e6e656374656420776974680d6a
:1032a8000a000000202020202d2052656d6f7465d3
:1032b8002025752e25752e25752e257520706f7283
:1032c800742025750d0a0000202020202d2054612f
:1032d800726765742072617465203d20256c6420d6
:1032e8006270732c20706572696f64203d20256cb4
:1032f80064206d730d0a0000202020202d2d2d2d17
:103308002d2d2d2d2d2d2d2d2d2d2d2d2d2d2d2de5
:103318002d2d2d2d2d2d2d2d2d2d2d2d2d2d2d2dd5
:103328002d2d2d2d2d0d0a000d0a69706572663a36
:10333800205761726e696e672c2054435020736564
:103348007276657220646973636f6e6e656374204c
:1033580064657465637465640d0a0000697065725c
:10336800663a204661696c656420746f20676574ed
:1033780020256420627974657320736f636b6574ac
:103388002054582073706163650d0a006970657276
:10339800663a20556e737570706f72746564204359
:1033a8006f6e66696775726174696f6e0d0a0000e9
:1033b80069706572663a204372656174652054438a
:1033c8005020736f636b6574206661696c65640d6a
:1033d8000a00000069706572663a20536574206fb0
:1033e80066205258206275666665722073697a6530
:1033f800206661696c65640d0a0000006970657279
:10340800663a204372656174652055445020736f95
:10341800636b6574206661696c65640d0a00000061
:1034280069706572663a2050726f746f636f6c20b2
:103438006572726f720d0a0069706572663a20557e
:103448004450204765742041727261792046616951
:103458006c65640d0a00000069706572663a202d7b
:1034680020466972737420706b74206964203d2053
:10347800256c64202873686f756c64206265203041
:10348800290d0a0069706572663a205265637620d4
:103498006475706c69636174656420706b740d0a7f
:1034a8000000000069706572663a205278207469dd
:1034b8006d6564206f75740d0a0000000d0a69704f
:1034c8006572663a20696e7374616e63652025645f
:1034d8002073657373696f6e2073746172746564a9
:1034e800202e2e2e0d0a00000d0a697065726620c6
:1034f800696e7374616e63652025643a2052782082
:10350800646f6e652e20536f636b657420636c6ff8
:103518007365642e0d0a0000697065726620696e15
:103528007374616e63652025643a2052656164791d
:1035380020666f7220746865206e657874207365e4
:103548007373696f6e2e0d0a000000006970657252
:103558006620696e7374616e63652025643a206322
:103568006f6d706c657465642e0d0a006970657204
:10357800663a20636c69656e742073657373696f4e
:103588006e20636c6f7365642e0d0a006970657236
:10359800663a2041525020756e61626c6520746fe6
:1035a800207265736f6c766520746865204d4143a1
:1035b8002061646472657373206f662072656d6f35
:1035c800746520736964652e0d0a00002020202090
:1035d8002d2052656d6f74654e6f6465204d4143b3
:1035e8003a202578202578202578202578202578e8
:1035f8002025780d0a00000069706572663a20532c
:103608006574206f6620545820627566666572205e
:1036180073697a65206661696c65640d0a0000004b
:1036280069706572663a20536574206f6620545835
:103638002071756575696e67206c696d697420669f
:1036480061696c65640d0a0069706572663a2043a9
:103658006c69656e7420636f6e6e656374696e67fe
:1036680020746f2025752e25752e25752e25752c11
:103678002055445020706f72742025750d0a000083
:1036880069706572663a20436c69656e7420636f71
:103698006e6e656374696e6720746f2025752e25bc
:1036a800752e25752e25752c2054435020706f7269
:1036b800742025750d0a000069706572663a2054f9
:1036c800435020436c69656e7420636f6e6e65634a
:1036d80074696f6e2074696d656f75740d0a0000ea
:1036e8003a20697065726620636f6d6d616e6473f0
:1036f8000000000069706572660000003a20203cf6
:1037080069706572663e20737461727420636d64bb
:103718000000000069706572666b00003a203c6921
:10372800706572666b3e206b696c6c20636d64001b
:1037380069706572666900003a203c697065726656
:103748006920616464726573733e2020696e7465d4
:10375800726661636520636d64000000697065725c
:10376800667300003a203c6970657266732074784d
:103778002f72782073697a653e2074782f727820ca
:0c37880073697a6520636d64000000bf67
:020000040000fa
:10379400502700201c00000000000000002500202d
:1037a4007000000000000000802300208000000062
:1037b40000000000000000203000000000000000b5
:1037c400e8290020d40000000100000098700100e6
:1037d40000000000000000000000000000000000e5
:1037e40000000000000000000000000000000000d5
:1037f40000000000000000000000000000000000c5
:1038040000000000000000000000000000000000b4
:1038140000000000000000000000000000000000a4
:103824000000000000000000000000000000000094
:103834000000000000000000000000000000000084
:103844000000000000000000000000000000000074
:103854000000000000000000000000000000000064
:103864000000000000000000000000000000000054
:103874000000000000000000000000000000000044
:103884000000000000000000000000000000000034
:103894000000000000000000000000000000000024
:1038a400082b00200100000001000000ff000000c0
:1038b4003000002001000000000000005822002019
:1038c4009400000000000000d02900200200000045
:1038d400000000001420002004000000000000008c
:1038e4007c2300200400000000000000ec220020e3
:1038f4009000000000000000901a002070020000f8
:1039040000000000a42800200400000000000000c3
:10391400a82800200400000000000000ac280020bb
:103924000400000000000000b02800200400000093
:1039340000000000b4280020040000000000000083
:10394400b82800200400000000000000bc2800206b
:103954000400000000000000c02800200400000053
:1039640000000000c4280020040000000000000043
:10397400702800200c0000000000000088270020b0
:1039840018000000000000006c2700201c0000004c
:1039940000000000c828002004000000000000000f
:1039a400e22900200100000000000000cc280020d3
:1039b4000400000000000000fc2a002004000000b5
:1039c40001000000ffffffffd028002004000000da
:1039d40000000000d42800200400000000000000c3
:1039e400d82800200400000000000000d229002094
:1039f4000200000000000000dc2800200400000099
:103a040000000000e0280020040000000000000086
:103a1400e42800200400000000000000e828002042
:103a24000400000000000000ec2800200400000056
:103a340000000000d4290020020000000000000063
:103a4400d62900200200000000000000f028002019
:103a54000400000000000000f4280020040000001e
:103a640000000000f828002004000000000000000e
:103a7400fc280020040000000000000000290020b1
:103a840004000000000000000429002004000000dd
:103a940000000000082900200400000000000000cd
:103aa4000c29002004000000000000007c280020f5
:103ab4000c00000000000000d027002014000000cb
:103ac40000000000e32900200100000000000000c5
:103ad400d82900200200000000000000da2900209c
:103ae4000200000000000000102900200400000073
:103af40000000000e4270020140000000000000083
:103b040014290020040000000000000018290020ef
:103b140004000000000000001c2900200400000034
:103b24000000000020290020040000000000000024
:103b3400a027002018000000000000002429002015
:103b440004000000000000002829002004000000f8
:103b5400000000002c2900200400000000000000e8
:103b640018200020d80000000000000030290020a8
:103b74000400000000000000e4290020010000000f
:103b840000000000342900200400000000000000b0
:103b94003400002034000000000000003829002018
:103ba4000400000000000000dc29002002000000e6
:103bb40000000000de2900200200000000000000d8
:103bc4003c290020040000000000000040290020df
:103bd400040000000000000044290020040000004c
:103be40000000000f827002014000000000000007e
:103bf400e029002002000000000000004829002005
:103c04000400000000000000842600204c00000096
:103c140000000000f42a002006000000010000005b
:103c2400ffffffffffff00000024002080000000d2
:103c340000000000900000200010000000000000c0
:103c4400d02600204000000000000000942800203e
:103c540008000000000000004c29002004000000bf
:103c6400000000008024002080000000000000000c
:103c74009c2800200800000000000000e529002026
:103c8400010000000000000090100020000a000065
:103c94000000000050290020040000000000000083
:103ca400882800200c00000000000000f020002004
:103cb400c800000000000000542900200400000097
:103cc40000000000e62900200100000000000000c0
:103cd400b827002018000000000000005829002028
:103ce4000400000000000000680000200100000043
:103cf4000000000010270020400000000000000029
:103d0400b8210020a000000000000000fa2a0020d2
:103d14000200000001000000010000005c290020f6
:103d240004000000000000006029002004000000de
:103d340000000000642900200400000000000000ce
:103d44000c1f00200801000000000000682900206a
:103d540004000000000000006c29002004000000a2
:103d64000000000070290020040000000000000092
:103d7400742900200400000000000000e02a002054
:103d84000c00000001000000f4010000d007000056
:103d940001000000bc2a0020140000000100000003
:103da40008000800020001000200080000060006e6
:103db40001015400d02a002010000000010000007e
:103dc4000101000049c60000c9040100fafa00001c
:103dd4006c00002019000000000000008800002092
:103de4000400000000000000002b0020040000007c
:103df40001000000aaaaaaaa782900200400000051
:103e0400000000007c2900200400000000000000e5
:103e1400802900200400000000000000702500201c
:103e24006400000000000000842900200400000059
:103e340000000000882900200400000000000000a9
:103e44008c290020040000000000000090290020bc
:103e54000400000000000000942900200400000079
:103e6400000000000c2800201400000000000000e6
:103e740020280020140000000000000098290020e1
:103e840004000000000000009c2900200400000041
:103e940000000000a0290020040000000000000031
:103ea400a4290020040000000000000034280020a1
:103eb4001400000000000000a829002004000000f5
:103ec400000000004828002014000000000000004a
:103ed4005c2800201400000000000000ac29002031
:103ee4000400000000000000b029002004000000cd
:103ef40000000000042b002004000000010000006a
:103f040004000000d4250020600000000000000030
:103f1400e72900200100000000000000b42900206f
:103f24000400000000000000ec2a0020080000004b
:103f340001000000ffffffffffffffff8c000020d8
:103f44000100000000000000b82900200400000067
:103f54000000000034260020500000000000000093
:103f6400001d00200c02000000000000bc290020fd
:103f74000400000000000000c0290020040000002c
:103f840000000000c429002004000000000000001c
:103f9400c82900200400000000000000cc290020f3
:103fa4000400000000000000000000000000000009
:020000040000fa
:103fb4005478204279746520436f756e742d6c6f4c
:103fc400776572203332626974732854784f544c85
:103fd4004f290000b9c90100547820427974652042
:103fe400436f756e742d7570706572203136626919
:103ff40074732854784f544849290000c3c90100f8
:104004005478204672616d657320772f6f20657236
:10401400726f722854784654434e542900000000ad
:1040240000000000cdc9010054782042726f616421
:1040340063617374204672616d65732854784243da
:10404400465429000000000000000000d7c9010008
:104054005478204d756c7469636173742046726181
:104064006d65732854784d46542900000000000003
:1040740000000000e1c901005478205061757365a7
:10408400204672616d6573285478504654290000a7
:10409400000000000000000000000000ebc9010067
:1040a40054782036342d62797465204672616d65ca
:1040b4007328547842465436342900000000000026
:1040c40000000000f5c9010054782036352d313246
:1040d400372062797465204672616d657328544295
:1040e400465431323729000000000000ffc90100a6
:1040f4005478203132382d32353520627974652078
:104104004672616d65732854424654323535290030
:104114000000000009ca01005478203235362d35dc
:1041240031312062797465204672616d657328545b
:1041340042465435313129000000000013ca010001
:104144005478203531322d31303233206279746520
:10415400204672616d6573285442465431303233bf
:10416400290000001dca0100547820313032342d5a
:10417400313531382062797465204672616d65731a
:1041840028544246543135313829000027ca0100e9
:104194005478204672616d6573203e3d203135317f
:1041a40038206279746528475442463135313829bc
:1041b4000000000031ca0100547820556e64657215
:1041c40072756e204672616d6573206e6f74205433
:1041d4005865642854785455522900003bca01009c
:1041e40054782053696e676c6520436f6c6c6973f7
:1041f400696f6e204672616d657328547853434627
:104204002900000045ca0100547820322d313520a0
:10421400436f6c6c6973696f6e204672616d657370
:104224002854784d43462900000000004fca01007d
:10423400547820313620436f6c6c6973696f6e203b
:104244004672616d65732854784543434e54290082
:104254000000000059ca01005478206c6174652084
:10426400436f6c6c6973696f6e204672616d657320
:104274002854784c43434e542900000063ca01007b
:104284005478204465666572726564204672616d77
:104294006573285478445446290000000000000047
:1042a400000000006dca01005478204361727269f5
:1042b40065722053656e7365206572726f72204655
:1042c40072616d65732854784353452977ca010098
:1042d4005278204279746520436f756e742d6c6f2b
:1042e400776572203332626974732852784f524c66
:1042f4004f29000081ca0100527820427974652058
:10430400436f756e742d75707065722031366269f5
:1043140074732852784f5248492900008bca01000f
:104324005278204672616d657320772f6f20657215
:10433400726f722852784652434e5429000000008e
:104344000000000095ca010052782042726f616437
:1043540063617374204672616d65732852784243b9
:104364004652290000000000000000009fca01001e
:104374005278204d756c7469636173742046726160
:104384006d6573202852784d4652290000000000c4
:1043940000000000a9ca01005278205061757365bd
:1043a400204672616d657328527850465229000088
:1043b400000000000000000000000000b3ca01007b
:1043c40052782036342d62797465204672616d65a9
:1043d4007328527842465236342900000000000007
:1043e40000000000bdca010052782036352d31325c
:1043f400372062797465204672616d657328544272
:10440400465231323729000000000000c7ca0100bb
:104414005278203132382d32353520627974652056
:104424004672616d6573285442465232353529000f
:1044340000000000d1ca01005278203235362d35f3
:1044440031312062797465204672616d6573285438
:10445400424652353131290000000000dbca010018
:104464005278203531322d313032332062797465ff
:10447400204672616d65732854424652313032339e
:1044840029000000e5ca0100527820313032342d71
:10449400313531382062797465204672616d6573f7
:1044a400285442465231353138290000efca010000
:1044b4005278204672616d6573203e3d203135315e
:1044c4003920627974657328544d58424652290044
:1044d40000000000f9ca01005278204672616d653f
:1044e40073203c20363420627974657328527855e1
:1044f40046522900000000000000000003cb010028
:104504005278204672616d6573203e203135313812
:104514002062797465732852784f4652290000004e
:10452400000000000dcb01005278206572726f729a
:10453400204672616d6573203e203135313820622a
:10454400797465732852784a5229000017cb010008
:10455400527820435243206572726f722046726112
:104564006d657328527846435345290000000000c6
:104574000000000021cb01005278204c656e677466
:1045840068206669656c64206572726f7220467279
:10459400616d65732852784c464645292bcb010042
:1045a40052782073796d626f6c206572726f72201d
:1045b4004672616d65732852785253452900000094
:1045c4000000000035cb0100527820616c69676ef1
:1045d4006d656e74206572726f72204672616d65ce
:1045e4007328527841452900000000003fcb0100a8
:1045f4005278205265736f75726365204572726fcd
:104604007220285278525245290000000000000010
:104614000000000049cb01005278206f7665727269
:10462400756e206572726f72204672616d657328b3
:104634005278524f452900000000000053cb01007e
:1046440052782049504864722043686b73756d201a
:104654006572726f72204672616d65732852784973
:10466400484345295dcb01005278205443502043f0
:10467400686b73756d206572726f72204672616d1e
:1046840065732852785443452900000067cb010024
:104694005278205544502043686b73756d206572c1
:1046a400726f72204672616d657328527855434566
:0846b4002900000071cb010098
:020000040000fa
:1046bc002de9f04f8db0d0f850a00a68436d846d91
:1046cc0083ea040e0eea0a0e8eea040ed84bc46c72
:1046dc0023440a9213449e440aeb7e6e4e68436d4b
:1046ec008aea030707ea0e075f40d24b856d2b441d
:1046fc00009633441f440eeb37578b681a468aeaf0
:10470c000e053d4085ea0a05cb4b446d23440192ce
:10471c0013441d4407ebf535cb681c468eea07069f
:10472c002e4086ea0e06c54b5344029423441e4485
:10473c0005ebb6260b691c4687ea050333407b4024
:10474c00bf4a039422449644734406eb73694a6946
:10475c00134685ea060404ea09046c40b94a04933a
:10476c001a4417443c4409eb34548b6986ea090219
:10477c0022407240b44f05931f443d442a4404eb3d
:10478c00f232cf6989ea040808ea020888ea0908c3
:10479c00ae4d06973d442e44b04402ebb8280f6a48
:1047ac0084ea020c0cea080c8cea040ca84d07975e
:1047bc003d4409eb05039c4408eb7c6c4d6a82ea92
:1047cc00080909ea0c0989ea0209a24b08952b444d
:1047dc001c44a1440ceb39598b6a88ea0c0e0eea86
:1047ec00090e8eea080e0993a3f524434f3b1a4495
:1047fc00964409ebfe3eca6a16468cea090505eaa0
:10480c000e0585ea0c05944b1344984445440eeb75
:10481c00b525d1f8308089ea0e072f4087ea0907c1
:10482c008e4b43449c44674405eb7767d1f834c006
:10483c008eea05033b4083ea0e03894a62449144a5
:10484c004b4407eb3353d1f8389085ea07041c40ee
:10485c006c40844a4a449644744403ebf434d1f8d3
:10486c003ce087ea030222407a407f4971440d44c0
:10487c002a4404ebb22284ea020b0bea030b8bea08
:10488c00040b7a49009d29440f44bb4402ebfb6b9b
:10489c0082ea0b07274057407549059d29440b4474
:1048ac001f440bebf7578bea0703134083ea0b0308
:1048bc0070490b9631440c44234407ebb34387ea0d
:1048cc00030505ea0b057d406b490a9c21440a440b
:1048dc00154403eb353583ea05023a405a406749e3
:1048ec00049e31448b445a4405ebf26285ea020182
:1048fc0019406940624c099e34442744394402eb08
:10490c00f15182ea01042c4054405e4f77443b4401
:10491c001c4401ebb44481ea040313404b405a4f4e
:10492c00039e37443d442b4404eb333384ea030b9e
:10493c000bea010b8bea040b544d089e35442a44b8
:10494c00934403ebfb6b83ea0b0727405f40504a11
:10495c004a4411440f440bebf7578bea07051d40f3
:10496c0085ea0b054b4a02990a441444254407eb8b
:10497c00b54587ea050202ea0b027a404649079ed2
:10498c0031440b441a4405eb323285ea02033b40b6
:10499c006b40424961448b445b4402ebf36382ea13
:1049ac000301294051403e4c019e34442744394474
:1049bc0003ebf15183ea010414405c40394f069e2d
:1049cc0037443d442c4401ebb44481ea040b0bea1c
:1049dc0003054d40344f47443a44154404eb3535f8
:1049ec00049fa7f5b822a2f2be6213448bea050b12
:1049fc005b4405eb337384ea05025a402b4f079e48
:104a0c0037443944114403eb715185ea030b8beaab
:104a1c00010b274a0b9f3a4414445c4401eb344489
:104a2c0083ea01076740234a4a4415442f4443e074
:104a3c0078a46ad756b7c7e8db702024eecebdc188
:104a4c00af0f7cf52ac68747134630a8019546fd63
:104a5c00d8988069aff7448bbed75c892211906bd4
:104a6c00937198fd8e4379a62108b44962251ef6f0
:104a7c0040b340c0515a5e26aac7b6e95d102fd686
:104a8c005314440281e6a1d8c8fbd3e7e6cde1215b
:104a9c00d60737c3870dd5f4ed145a4505e9e3a9bc
:104aac00f8a3effcd9026f678a4c2a8d81f67187c7
:104abc0022619d6d0c38e5fd04eb772781ea040239
:104acc007a40944d009e35442b44134407eb3373ca
:104adc0084ea07025a40904d039e35442944114400
:104aec0003eb715187ea030b8bea010b8b4a069d92
:104afc002a441444a34401eb3b4b83ea010282eaaf
:104b0c000b02874c099d2c4427443a440beb722230
:104b1c0081ea0b045440834d65442b44234402eb3f
:104b2c0033738bea02075f407f4c0a9e3444214466
:104b3c000f4403eb775782ea03057d407b49029cc7
:104b4c0021448b445d4407eb354583ea070b8bea24
:104b5c00050b7749059c21440a44934405eb7b2bb8
:104b6c0087ea050484ea0b04724a08990a44134440
:104b7c001c440beb347485ea0b0161406e4b4344cf
:104b8c001f44394404eb71518bea04034b406b4acc
:104b9c00724415441d4401eb354584ea01026a4018
:104bac00674b019f3b449b445a4405eb722262eadb
:104bbc0001036b40634f37443c44234402ebb36323
:104bcc0063ea050b8bea020b5f4c069f3c442144c5
:104bdc008b4403ebbb5b6bea02075f405b494944c8
:104bec000d442f440beb774767ea030484ea0b046c
:104bfc005749049d29440a44144407ebf42464eafd
:104c0c000b057d40534a424413441d4404ebb565e7
:104c1c0065ea070888ea04084f4b02990b449b4449
:104c2c00d84405ebb85868ea04036b40099aa2f51e
:104c3c008016a6f683363e44334408eb734363ea8e
:104c4c00050989ea08094549009e31440c44a144f0
:104c5c0003ebf92969ea08065e40414a07990a44c0
:104c6c0015442e4409ebb66666ea030181ea090194
:104c7c003c4a72449044414406ebb15161ea090448
:104c8c007440394a059d2a4413441c4401eb744476
:104c9c0064ea06054d40354b634499444d4404eb9e
:104cac00f52565ea01076740314a039b1a4416440f
:104cbc00374405ebb76767ea04036b402d4a0b9e3c
:104ccc0032441144194407ebb15161ea05067e40a8
:104cdc00294a019b1a441444344401eb7444c36cb8
:104cec003b44c36464ea07074f40244b089a1344bf
:104cfc001d442f440aeb040505ebf7250565436db0
:104d0c001c444465836d1944816500200db0bde8d9
:104d1c00f08f00bf44eabea4a9cfde4b604bbbf6bc
:104d2c0070bcbfbec67e9b28fa27a1ea8530efd4a3
:104d3c00051d880439d0d4d9e599dbe6f87ca21f8f
:104d4c006556acc4442229f497ff2a43a72394ab9d
:104d5c0039a093fcc3595b6592cc0c8fd15d8485d3
:104d6c004f7ea86fe0e62cfe144301a3a111084e60
:104d7c00827e53f735f23abdbbd2d72a91d386eb5c
:020000040000fa
:104d8c00ab4b834240f02283aa4b93f90020531e75
:104d9c00dbb2012b00f21a832de9f04f85b0a64b44
:104dac001b6863b1012a1bd0a34b1c68a04b1b884a
:104dbc00002b00f0fd8200252f469d4e72e09f4b8c
:104dcc001b6868469847002800f3c78220b90098f2
:104ddc0010b102f067fcc0e2964b00221a70bce2e4
:104dec00974b1b68b3f1ff3fded1964a002105209b
:104dfc0016f058ff924b1860b0f1ff3f25d016f01b
:104e0c005ff800eb800303f2e7338f4aa2fb032326
:104e1c009b094ff47a7202fb03f3b3fbf0f38b4a5a
:104e2c00136002258a4c03e001351034272dbbd0ca
:104e3c002368002bf8d0b4f90a20002af4d02146bc
:104e4c00a8b215f025ff0028eed117f06ffd88b938
:104e5c000df094fb774bff221a7017f067fd0028ba
:104e6c0000f07b8217f05cfd4ff0ff32794911f0b6
:104e7c000bf972e217f054fd0522774911f004f991
:104e8c00e6e7032304222146304611f0a3fb94f8f5
:104e9c00433043f0800384f8433001356c3433885d
:104eac009d4242dae06c0028f7d0636c9b6998470e
:104ebc0094f8433013f0400fefd0636c5b69e06cf7
:104ecc0098470028dddb0228e7d10097019702976d
:104edc00039740f2dc53adf80a30636c1b6c6946e7
:104eec00206d98470098e063bdf80430a4f840307a
:104efc00bdf80630003318bf012394f8432063f348
:104f0c00451284f84320bdf80a30a4f85e3094f8ba
:104f1c00423043f0400384f84230d3b203f0bf0375
:104f2c0043f0800384f84330b7e7424a92f90020fb
:104f3c00012a28d0002011f0b3fe484b1b6833b96e
:104f4c00474b1a68474b1b68134300f00682434bd0
:104f5c001b68002b40f08c800026414b1b68002bfb
:104f6c0000f07a813e4b00221a60334b1c68304ba8
:104f7c001b88002b00f0118190460127dff8eca074
:104f8c00dff8ac90dce02c4a1668002b00f016829f
:104f9c00314600252a46012706e007fa02f00543b0
:104fac0001326c31934212d091f8430000f00c04a2
:104fbc00042cf2d110f0800f00f0cf8191f8420058
:104fcc0010f0400fecd007fa02f00543e8e701229d
:104fdc0002fa03f3013bab4200f0f081144b1b8847
:104fec00bbb1002444f24008114f4ff0030904e018
:104ffc0001346c363b889c420bdab6f8423018ea26
:10500c00030ff5d04b4604223146384611f0e2fa34
:10501c00eee7084bff221a7017f088fc002800f00e
:10502c009c8117f07dfc2a460f4911f02df894e174
:10503c006c270020e2290020c4280020c82800206a
:10504c00fc2a0020d5ab0100d34d6210bc280020f7
:10505c00b01a00203c6300000c630000b428002050
:10506c00cc280020b8280020ac630000b028002019
:10507c000025bb4b1d6017f05ffc044615f09cf837
:10508c0006460f4622462b4615f026f9b54b1860fe
:10509c00b54aa2fb043292092b463046394615f02c
:1050ac001bf9b24b1860b24b1c68b24b1b88002b1f
:1050bc0000f07381af4e04e001356c3433889d42af
:1050cc0019da94f8423013f0400ff5d0636c5b6a38
:1050dc00206d984794f8603003f001039842ebd0b0
:1050ec0094f8603043f0020360f3820360f3000332
:1050fc0084f86030e0e701262fe7012632e700252f
:10510c0004e08c622a46384612f0e4ff636c5b6b59
:10511c002a462946206d984701460028f1d1daf835
:10512c0000300133caf8003031e0636c9b6b206daa
:10513c00984708f101086c34b9f8003043452cdd70
:10514c0094f8423013f0400ff3d0b4f85a50636c1b
:10515c005b6d206d98470543adb2384617f020f8cb
:10516c00b4f85a3023ea0503a4f85a3001463846fd
:10517c0017f03af9b4f85c302b43a4f85c30636c4c
:10518c001b6d2946206d984715f0160fb7d194f872
:10519c00433013f0200fccd0c7e74ff00008764d0a
:1051ac00764f07f10609284616f0fefc0446002847
:1051bc0046d063699a89130a43ea02239bb240f6ec
:1051cc000602934216d0b3f5006f0fd04ff6ff7264
:1051dc00934206d001226ff00c01204614f014ff0c
:1051ec00e1e707f10c0a4ff0020b06e0ca464ff05c
:1051fc00010b02e04ff0000bba46638c23f47c5396
:10520c009bb26384baf802201343638400222146c4
:10521c00baf8040012f05eff0028dbd0012303fa79
:10522c000bfb1bea080fbed148ea0b08baf80400c6
:10523c0000221946524b03eb001015f0d9fcb2e7d3
:10524c00012016f0adff4e4a138b23f0010313839c
:10525c000146012017f0c8f8454b1c68454b1b88cc
:10526c00a3b3002540f28668dff81c91414f0ce097
:10527c0094f8603013f0020f17d10023a4f85c30bf
:10528c0001356c343b88ab4220dd94f8423013f08e
:10529c00400ff5d0b4f85c1011ea080fe8d0d9f83b
:1052ac0000300133c9f80030e2e713f0040f14bfeb
:1052bc0041f4006141f4805194f860306ff3410384
:1052cc0084f8603020460ff0e9fed6e7002e69d155
:1052dc002b4b03f1300403f52078002629e013440e
:1052ec00a3813a460221204615f082fc1034ac42d0
:1052fc000fd02368002bf9d0b4f90a20002af5d07e
:10530c003168a3895b1a9bb219b20029e7dda18130
:10531c00ece7012016f044ff194a138923f002032d
:10532c0013810146012017f05ff8d1e71034444592
:10533c0010d0304616f034ff54f8105c34f8087c6a
:10534c000146304617f050f8002defd0002fedd06d
:10535c00a847ebe70b4b1b68c3b905b0bde8f08f52
:10536c00b4280020a8280020d34d6210a4280020c7
:10537c00c42800206c270020f82200204cc101001a
:10538c00901a0020b8280020ac28002000224ff4ee
:10539c0080710f4816f06efbdfe70e4b1b68002b7d
:1053ac007ff4abae0c4c0d4e002704f51475a0e742
:1053bc000b4b93f90030012b7ff4bcad084b022250
:1053cc001a700849002014f0c7feb3e5704700bfff
:1053dc00a01a0020cc280020b01a0020bc280020e5
:0853ec00e22900207c630000af
:020000040000fa
:1053f4002de9f04f8db082468b4643680293ae4b45
:105404001968002940f3b8829146ac4b93f8ce302a
:10541400012b00f0b8820023a84d0133d8358b420c
:1054240000f0aa8295f8ce20012af6d1a34beb1afc
:10543400db1003ebc30203eb4203c3eb432303eb95
:105444008343daf8002054685a429d490298a047e1
:10545400002485f8d14002232b7485f8cf4041f213
:1054640089336b82974bab6115f02efd04906c6011
:1054740000eb80035b00ab6028602c75c5f8c4a00a
:10548400284612f04dfcbbf1010f40f3df810124eb
:105494008d4ecdf80ca007e0012385f8d1300134fe
:1054a400e4b25c4580f2d08159f824700222874925
:1054b400384616f04ffc0028eed0052206f515718b
:1054c400384616f047fc0028e6d0022206f518718b
:1054d400384616f03ffc30b1052206f519713846fe
:1054e40016f038fc10b901232b74d8e7022206f514
:1054f4001b71384616f02efc38b1052206f51c71d6
:10550400384616f027fc00285dd101232b741c4477
:10551400e4b259f82480404617f068f9c7b207f19d
:10552400ff3ac24406f51f71504616f098ffa8b121
:1055340006f52071504616f092ff00283cd14ff436
:105544007a7a07f1ff3ebef1000f32dd4ff0000c16
:1055540062460127634605945446f6e106f5207138
:10556400504616f07cff0028564b0cbf4ff47a7a55
:105574009a46e6e702eb820200eb4202303aeee1a1
:105584002346059c03fb0cf3524501d20afb02f2ad
:105594000892099303990968981800904f6806f5d2
:1055a400217103984068b847089b099a1344ab617a
:1055b40075e700221346e9e7012208a940460ef0e8
:1055c40057fa089bf3e7022206f52871384616f0cd
:1055d400c1fb30b1052206f52971384616f0bafb35
:1055e40050b90134e4b2012208a959f824000ef09c
:1055f4003ffa089bab6152e7022206f52c7138464c
:1056040016f0a8fb30b1052206f52d71384616f0c8
:10561400a1fbb8b9002385f8d1300134e4b20422e7
:1056240008a959f824000ef023fa089b85f84430a1
:10563400099b85f845300a9b85f846300b9b85f815
:1056440047302ce7022206f53071384616f082fb0b
:1056540030b1052206f53171384616f07bfb78b976
:105664000134e4b2012208a959f824000ef000fa2a
:10567400089b049a02fb03f3ab6000236b600ee704
:10568400022206f53371384616f064fb30b1052268
:1056940006f53471384616f05dfbc8b90134e4b23e
:1056a400012208a959f824000ef0e2f9089b6b6066
:1056b4000023ab60f3e600bf34290020182000204b
:1056c4002431000040420f00f82c0000482f000055
:1056d400022206f53671384616f03cfb38b1052235
:1056e40006f53771384616f035fb002837d10134fa
:1056f400e4b259f824004378782b18d0012208a981
:105704000ef0b6f99df820000246202821d019d9c0
:10571400a0281bd0c0281fd110232b75039b1b6806
:105724005f682b7d06f539710298b847b7e6837830
:105734008df81f30c3788df81e30bdf81e0013f0ad
:105744008dfce1e740b900232b75e7e720232b7597
:10575400e4e708232b75e1e700232b75dee702223b
:1057640006f54471384616f0f5fa30b1052206f50f
:105774004571384616f0eefa58b90134e4b2012204
:1057840008a959f824000ef073f9089ba5f8d23043
:1057940085e6022206f10801384616f0dbfa30b13c
:1057a400052206f54771384616f0d4fa68b9013473
:1057b400e4b2012208a959f824000ef059f9089b13
:1057c400049a02fb03f32b6069e6022206f54a7190
:1057d400384616f0bffa30b1062206f54b7138464a
:1057e40016f0b8fa50b90134e4b2012208a959f804
:1057f40024000ef03df9089b6b8250e6022206f568
:105804004d71384616f0a6fa40b1052206f54e71e0
:10581400384616f09ffa00287ff441ae0134e4b212
:10582400012208a959f824000ef022f9089b332b11
:1058340001d9eb6033e6d5f8c4301b685b683422c9
:1058440052490298984706e0ddf80ca095f8d1304b
:1058540023b1012b3dd00db0bde8f08f002105f13f
:10586400800015f0b1fcc5f8c80010b32b7c022be6
:105874002ad0012b06bfab8907ee103a9fed447a7c
:10588400dded047ab8ee676aab69db0807ee903a9f
:10589400f8ee677ab8ee477ac7ee876ac6ee267adc
:1058a400fceee77ac5ed217a0a21284611f026fe9e
:1058b400d1e7daf800301b6836490298984717f0a8
:1058c40003f8c5f8c800d1e7b5f8d23007ee103aae
:1058d400d6e7314cdaf800301b6804f56571029e96
:1058e40030469847daf800301b6804f57471304686
:1058f40098472b7c012b0fd02b7c022b14d0d5f88e
:10590400c4301b685b686a8a24490298984702215c
:10591400284611f0f3fd9ee7daf800301b6804f521
:105924007b7102989847e7e7daf800301b681c4956
:1059340002989847e3e72e2802d10afb02f20027d7
:105944000133dbb27345bff61bae18f80300a0f1b8
:105954003001c9b20929eed8002f7ff40bae002f15
:10596400eed10ceb8c0c00eb4c00a0f1300c0d498b
:10597400a1fb0401cc08e3e7daf800301b680a490c
:105984000298984767e7094d50e500bf383000009a
:105994000000000064300000f82c0000ec3000002f
:1059a400e8300000cdccccccf8300000182000202a
:020000040000fa
:1059b40090f86f30012b40f08d822de9f04f87b0c5
:1059c40004460f469246002016f0eefb626c002a55
:1059d40000f09282538c13f0080f40f08d8243f054
:1059e40008035384666c0146002016f001fd002e66
:1059f40000f086820023a6f85230a6f85030736473
:105a0400a6f86a30a6f86830f36532691360326923
:105a1400938117f0010f07d094f8373043f0010356
:105a240084f8373007f0fe0794f8363003f0230388
:105a34006ff3451384f8363094f86f30012b0cbfa4
:105a4400f56900252b7b6ff307132b7317f0060ff3
:105a540049d017f0020f00f0008102238df81430b2
:105a640004238df8153094f86f30012b1bd00020df
:105a7400030a43ea0023adf81630a4f864002b7b34
