:020000040000fa
:10000000f0ff03209d0c01004fcf00007bd50000c6
:100010000fdf0000d7e00000cfe600000000000086
:10002000000000000000000000000000717a0100e4
:100030005bdb00000000000091300100c571010091
:1000400093f1000093f1000093f1000093f10000a0
:1000500093f1000093f1000093f1000093f1000090
:1000600093f1000093f1000093f1000093f1000080
:1000700093f1000093f1000093f1000093f1000070
:1000800093f1000093f1000093f1000093f1000060
:1000900093f1000093f1000093f1000093f1000050
:1000a00093f1000093f1000093f1000093f1000040
:1000b00093f1000093f1000093f1000093f1000030
:1000c00093f1000093f1000093f1000093f1000020
:1000d00093f1000093f1000093f1000093f1000010
:1000e00093f1000093f10000000000000000000008
:1000f0000000000093f1000093f1000093f1000074
:1001000093f1000093f1000093f1000093f10000df
:1001100093f1000093f10000d9b00000d9b00000c5
:10012000d9b00000d9b0000093f1000093f10000b5
:1001300093f1000093f1000093f1000093f10000af
:1001400093f1000093f1000093f1000093f100009f
:1001500093f1000093f1000093f1000093f100008f
:1001600093f1000093f1000093f1000093f100007f
:1001700093f1000093f1000093f1000093f100006f
:1001800093f1000093f1000093f1000093f100005f
:100190006974010093f1000093f1000093f10000f5
:1001a00093f1000093f1000093f1000093f100003f
:1001b00093f1000093f1000093f1000093f100002f
:1001c00093f1000093f1000093f1000093f100001f
:1001d00093f1000093f1000093f1000093f100000f
:1001e00093f1000093f1000093f1000049760100c3
:1001f00093f1000093f1000093f1000093f10000ef
:1002000093f1000093f1000093f1000093f10000de
:1002100093f1000093f1000093f1000093f10000ce
:1002200093f1000093f1000093f1000093f10000be
:1002300093f1000093f1000093f1000093f10000ae
:1002400093f1000093f1000093f1000093f100009e
:1002500093f1000093f1000093f1000093f100008e
:0402600093f1000016
:020000040000fa
:10026400f8b500bff8bc08bc9e4670478150010039
:10027400f8b500bff8bc08bc9e4670475d5001004d
:020000040000fa
:080284000079000001000000f8
:020000040000fa
:10028c0055736167653a206d6163696e666f200d09
:10029c000a0045783a206d6163696e666f200d0a1d
:1002ac0000496e746572666163653a20257320445b
:1002bc0072697665722053746174697374696373bf
:1002cc000d0a000d0a20526563656976652053742a
:1002dc0061746973746963730d0a0009206e527836
:1002ec004f6b5061636b6574733a2025640d0a097a
:1002fc00206e527850656e64427566666572733a0c
:10030c002025640d0a09206e527853636865644297
:10031c007566666572733a2025640d0a0009206eb5
:10032c0052784572726f725061636b6574733a20c8
:10033c0025640d0a09206e5278467261676d656ef0
:10034c00744572726f72733a2025640d0a09206e1f
:10035c005278427566664e6f74417661696c616263
:10036c006c653a2025640d0a000d0a205472616eea
:10037c00736d697420537461746973746963730d5c
:10038c000a0009206e54784f6b5061636b6574736f
:10039c003a2025640d0a09206e547850656e64422b
:1003ac007566666572733a2025640d0a09206e54d1
:1003bc00784572726f725061636b6574733a202565
:1003cc00640d0a09206e5478517565756546756c17
:1003dc006c3a2025640d0a0d0a00096e6f742073a7
:1003ec007570706f727465640d0a00496e74657275
:1003fc00666163653a202573204861726477617287
:10040c0065205265676973746572205374617475e5
:10041c00730d0a00092025733a20307825780d0acf
:10042c0000556e6b6e6f776e206865617020747905
:10043c0070652e205573653a205b312c2025645d48
:10044c000d0a004e6f206865617020696e666f2022
:10045c0065786973747320666f7220747970653a6d
:10046c00202573210d0a0048656170207479706530
:10047c003a2025732e20496e697469616c20637271
:10048c00656174656420686561702073697a653a8a
:10049c002025642042797465730d0a00416c6c6fe1
:1004ac006361626c6520626c6f636b206865617060
:1004bc002073697a653a2025642042797465730d3e
:1004cc000a00416c6c20617661696c61626c65201c
:1004dc00686561702073697a653a202564204279d9
:1004ec007465732c20686967682077617465726d18
:1004fc0061726b3a2025640d0a004c61737420689c
:10050c00656170206572726f723a20307825780db3
:10051c000a004e6f20547261636520696e666f200d
:10052c006578697374732e0d0a00537461636b20c4
:10053c007570206661696c65640d0a0053746163a3
:10054c006b207570207375636365656465640d0a53
:10055c000055736167653a20737461636b203c7559
:10056c00702f646f776e3e203c7072657365727687
:10057c00653e0d0a0045783a20737461636b206404
:10058c006f776e2070726573657276650d0a0075f3
:10059c007000537461636b20616c726561647920c7
:1005ac007570210d0a005475726e20537461636b63
:1005bc0020646f776e20616e64207468656e2075a0
:1005cc0070210d0a0052657374617274696e672034
:1005dc0074686520737461636b2077697468202577
:1005ec006420696e746572666163652873290d0aef
:1005fc0000646f776e00537461636b20646f776e69
:10060c003a2063616e6e6f7420676574206120738d
:10061c007461636b2068616e646c650d0a005374c1
:10062c0061636b20646f776e20646f6e650d0a00da
:10063c0055736167653a206966203c696e74657212
:10064c00666163653e203c646f776e2f75703e204b
:10065c000d0a0045783a20696620504943333249e7
:10066c004e5420646f776e200d0a00556e6b6e6fc2
:10067c00776e20696e746572666163652073706550
:10068c00636966696564200d0a00546869732069a2
:10069c006e7465726661636520616c726561647904
:1006ac002075700d0a004f7065726174696f6e2051
:1006bc006661696c65642e204e6f20636f6e66698f
:1006cc006775726174696f6e0d0a0066756c6c00eb
:1006dc005468697320696e74657266616365206124
:1006ec006c726561647920646f776e0d0a005772c5
:1006fc006f6e6720706172616d65746572207370c6
:10070c0065636966696564200d0a004f70657261e6
:10071c0074696f6e207375636365737366756c2192
:10072c000d0a004f7065726174696f6e20666169a5
:10073c006c6564210d0a0055736167653a20736519
:10074c00746d6163203c696e746572666163653ead
:10075c00203c783a783a783a783a783a783e200dd4
:10076c000a0045783a207365746d616320504943e3
:10077c003332494e542061613a62623a63633a649f
:10078c00643a65653a6666200d0a00617267765bad
:10079c00325d3a2025730d0a00496e76616c6964ee
:1007ac00204d4143206164647265737320737472cd
:1007bc00696e67200d0a00536574204d414320611a
:1007cc00646472657373206661696c65640d0a00fc
:1007dc005365742042494f53204e616d65204f4b39
:1007ec000d0a005365742042494f53204e616d65cc
:1007fc00206661696c65640d0a0055736167653a22
:10080c002073657462696f73203c696e74657266df
:10081c006163653e203c782e782e782e783e200d34
:10082c000a0045783a2073657462696f73205049e9
:10083c00433332494e54204d434850424f41524469
:10084c005f3239200d0a0053657420676174657737
:10085c0061792061646472657373204f4b0d0a00db
:10086c005365742067617465776179206164647283
:10087c00657373206661696c65640d0a005573615c
:10088c0067653a207365746777203c696e7465728e
:10089c00666163653e203c697076342f3620616456
:1008ac0064726573733e203c76616c696454696d47
:1008bc00653e200d0a0045783a20736574677720f1
:1008cc005049433332494e54203139322e31363867
:1008dc002e302e31200d0a00496e76616c69642031
:1008ec004950206164647265737320737472696e0d
:1008fc0067200d0a0053657420697020616464726e
:10090c00657373204f4b0d0a00536574206970207a
:10091c0061646472657373206661696c65640d0a49
:10092c000055736167653a207365746970203c6982
:10093c006e746572666163653e203c697076342f17
:10094c003620616464726573733e203c6970763442
:10095c006d61736b2f69707636207072656669787d
:10096c00206c656e3e0d0a0045783a2073657469fb
:10097c0070205049433332494e54203139322e3194
:10098c0036382e302e38203235352e3235352e3243
:10099c0035352e30200d0a004e6f2073756368209c
:1009ac00696e746572666163652069732075700d7c
:1009bc000a00416e20616464726573732073657202
:1009cc007669636520697320616c72656164792056
:1009dc0072756e6e696e672e2053746f702044486a
:1009ec0043502c205a434c4c2c206574632e2066ab
:1009fc00697273740d0a00496e76616c69642049e2
:100a0c0050206d61736b20737472696e67200d0ad0
:100a1c000073756363657373006661696c6564006c
:100a2c0055736167653a20736574646e7320312f5a
:100a3c0032203c696e746572666163653e203c7859
:100a4c002e782e782e783e200d0a0045783a2073a9
:100a5c006574646e732031206574683020323535ce
:100a6c002e3235352e3235352e30200d0a00556e8e
:100a7c006b6e6f776e20444e5320696e6465780df3
:100a8c000a0053657420444e53202564206164642d
:100a9c00726573732025730d0a006e6f742067697d
:100aac0076656e004e6f6e65006661696c005573fd
:100abc006167653a202573203c696e7465726661c6
:100acc0063653e203c6f6e2f6f66662f72656e6598
:100adc00772f726571756573742f696e666f3e2022
:100aec000d0a0045783a202573205049433332498a
:100afc004e54206f6e200d0a00556e6b6e6f776e24
:100b0c0020696e746572666163650d0a006f6e0014
:100b1c006f66660072656e657700726571756573d8
:100b2c00740052657175657374206e65656473200d
:100b3c00616e20495020616464726573730d0a0004
:100b4c00696e666f0044484350207374617475730a
:100b5c003a2025642028202564203d3d20426f75d5
:100b6c006e64292c2074696d653a2025640d0a0089
:100b7c0044484350206c65617365207374617274d2
:100b8c003a2025642c206475726174696f6e3a206a
:100b9c002564730d0a00444843502072656e6577d6
:100bac002074696d653a2025642c20726562696e2b
:100bbc00642074696d653a2025640d0a004448432d
:100bcc005020616464726573733a2025730d0a00ba
:100bdc0044484350207365727665723a2025730d34
:100bec000a004448435020626f6f74206e616d653b
:100bfc003a2025730d0a00444843502054696d6512
:100c0c0020736572766572733a2025642c202573e7
:100c1c000d0a0044484350204e54502073657276a0
:100c2c006572733a2025642c2025730d0a00444804
:100c3c0043503a206661696c656420746f20676567
:100c4c007420696e666f0d0a00556e6b6e6f776e51
:100c5c00206f7074696f6e0d0a0025732025732048
:100c6c0025730d0a007375636365737366756c0089
:100c7c006661696c65642100736574006765740056
:100c8c0044656661756c7420696e74657266616327
:100c9c0065207365742025730d0a004465666175c3
:100cac006c7420696e746572666163652069733a51
:100cbc002025730d0a0055736167653a20646566db
:100ccc006e6574207365742f676574203c696e744f
:100cdc006572666163653e0d0a0045783a2064656d
:100cec00666e65742073657420657468300d0a0037
:100cfc00646863700064656661756c74204950208b
:100d0c006164647265737300656e61626c65640026
:100d1c0064697361626c656400555000444f574eb2
:100d2c00005265616479004e6f742052656164797c
:100d3c000055736167653a206e6574696e666f0d58
:100d4c000a0045783a206e6574696e666f0d0a006c
:100d5c002d2d2d2d2d2d2d2d2d2d20496e746572a3
:100d6c0066616365203c25732f25733e202d2d2d48
:100d7c002d2d2d2d2d2d2d200d0a00496e746572f3
:100d8c006661636520697320646f776e0d0a004895
:100d9c006f7374204e616d653a202573202d204ea3
:100dac00424e5320656e61626c65640d0a004950b9
:100dbc00763420416464726573733a2025730d0a8e
:100dcc00004d61736b3a2025730d0a004761746501
:100ddc007761793a2025730d0a00444e53313a203d
:100dec0025730d0a00444e53323a2025730d0a0028
:100dfc004d414320416464726573733a2025730d31
:100e0c000a002573206973204f4e0d0a0064686335
:100e1c00702069732025730d0a004c696e6b206974
:100e2c00732025730d0a005374617475733a202571
:100e3c00730d0a0055736167653a202573203c6970
:100e4c006e746572666163653e203c6f6e2f6f66d3
:100e5c00663e200d0a00556e6b6e6f776e207365c3
:100e6c0072766963652025730d0a003a20737461ec
:100e7c00636b20636f6d6d616e6473007463706976
:100e8c0070004661696c656420746f2063726561e3
:100e9c00746520544350495020436f6d6d616e64ee
:100eac00730d0a00696e7465726e616c00706f6f01
:100ebc006c0065787465726e616c006e6574696e39
:100ecc00666f003a20476574206e6574776f726b9d
:100edc0020696e666f726d6174696f6e0064656611
:100eec006e6574003a205365742f476574206465f1
:100efc006661756c7420696e7465726661636500f9
:100f0c003a204448435020636c69656e7420636fcb
:100f1c006d6d616e6473007a636c6c003a2054756d
:100f2c00726e205a434c4c206f6e2f6f66660073a6
:100f3c006574646e73003a2053657420444e5320dc
:100f4c0061646472657373007365746970003a2030
:100f5c005365742049502061646472657373206119
:100f6c006e64206d61736b007365746777003a2053
:100f7c00536574204761746577617920616464728c
:100f8c006573730073657462696f73003a205365ff
:100f9c007420686f73742773204e657442494f53e5
:100fac00206e616d65007365746d6163003a20534a
:100fbc006574204d414320616464726573730069ec
:100fcc0066003a204272696e6720616e20696e7409
:100fdc006572666163652075702f646f776e007340
:100fec007461636b003a20537461636b2074757287
:100ffc006e206f6e2f6f66660068656170696e6635
:10100c006f003a20436865636b20686561702073dc
:10101c007461747573006d6163696e666f003a205c
:10102c00436865636b204d4143207374617469732d
:05103c007469637300fc
:020000040000fa
:03104100010306a2
:020000040000fa
:101044002de9f04f0f218fb00a2014f0a5f8079076
:10105400c00700f13f81079b990740f1f8840026ff
:10106400dff8e084dff8e0944ff47a7700f0ebbc2b
:101074001a462946029811f0a5fd69e15ef823603d
:101084009eb196f86e100b290fd096f86f20012aa6
:101094000bd8326c0ab1904207d1b6f86a2039b93c
:1010a400624502d1002c08bf344601331bb278e1fb
:1010b400ba42fad1d9f80010b26d9142f5d1b16bb0
:1010c400d8f80c209142f0d10121306486f86f10d9
:1010d4005246304616f07bfb3446dbf81020049968
:1010e40093895b1a9381029b5e7bd3e9013a059352
:1010f40094f837305b0614d5002384f8713094f8e3
:1011040036309b070dd416f087fcb4f8687080461f
:1011140016f082ff78434ff47a77b0fbf7f040443f
:10112400606294f86d3094f86e206ff3000384f8d5
:101134006d30002a7ad0012a00f0a080049b143577
:10114400ed1aadb216f00103a5f1140718bf133d53
:101154000993bfb21abfabb204930497b30748bf55
:10116400049bd4e9075042bf01339bb204938542e8
:1011740023bfd4e90513a5eb00085b1aa0eb05080f
:1011840028bfa3eb0808256d059ba3eb0505049b6d
:1011940038bf08f1ff381ffa88f8002b00f04981a6
:1011a400b8f1000f00f04c81002d02db4545c0f082
:1011b4003c81049beb18002b40f33981049ba8eb82
:1011c40003039d42ccbf00230123454503da049960
:1011d4002944002902dc002b00f0328116f0060fae
:1011e40000f03481750724d594f8373043f00203b6
:1011f40084f837304ff4006303931ae0d8f80c30c6
:10120400a3630121206484f86f105246204616f02f
:10121400defab9f80030a4f85830b9f80230a4f86e
:101224005a302368a4f86a70236156e716f004055f
:1012340004d0002120460bf04cf830e0f70607d527
:10124400c4f84ca02a460421204604f047faf0e7eb
:1012540016f00201eed0059b0298013323650ff0ce
:101264007ffba4f86200204614f044fa0122122104
:1012740004f034fa022384f86e3010e070070ed4c0
:1012840016f0100700f09780e56caa4500f09380f3
:10129400c4f84ca00421204604f020fae5640020a0
:1012a40017f070fb01460020b4f87260d4e91d57b2
:1012b40017f0ceff039b16ea030206d02db13b467e
:1012c400dbf82810b4f93400a84702210a22584652
:1012d40014f0cafc0a2015f04dfd834600283ff4a3
:1012e400baaebbf82050132d40f22f83dbf81c302c
:1012f40002931b7b1b09042b40f22783b5eb830f5e
:10130400c0f22383bbf8222012f4007250d1dbf820
:101314001880d8f80c300b93d8f810300c934ff495
:10132400c063adf834300c216bba0ba8adf836307d
:1013340011f048fcbbf82220c343520708f1100afd
:101344009bb27ff595ae2a460299584610f0bef935
:101354000390039b002b40f0f582029815f04cfd9e
:10136400029bdbf81c901b7bb9f802c0dbf8280059
:101374001b099b000493bcf1000f19d0b8f80c3082
:10138400b8f80e70039c1f44b9f800301f446d4b2d
:101394001b6805936c4b87ea0c07d3f800e0bfb2d7
:1013a4002346059a9342fff469ae002c7ff426afde
:1013b4006ff00e018ae7b1077ff571af059b0298c4
:1013c40001332365029bdb89a4f86630a4f85c3002
:1013d4000ff0c6faa4f86200204614f08bf901223b
:1013e400002f3ff444af102104f078f9032384f86c
:1013f4006e3094f837305a060dd516f00dfbb4f85c
:101404006850064616f008fe68434ff47a75b0fb40
:10141400f5f03044606294f836306ff3410384f899
:1014240036304ff48073039339e70123cde600236c
:10143400cbe6002d3ff4d2ae02db4545fff6ceae3f
:1014440016f0040f7ff42baf01223be0f0067ff58a
:1014540026af023a072a00f2e780dfe812f008001c
:101464001b001b001b001b00e5001b00bb01d4f884
:101474004c90ca4509d0c4f84ca00122042120464e
:1014840004f02cf9c4f84c9009e7032384f86e3077
:10149400fd330393a36822690893981a42bfd4e9e1
:1014a40000135b1ac018e36caaeb0301081a0028a6
:1014b40012ddb4f86c1001f40171042901d1012882
:1014c40002d00022102127e20133e36494f86d3046
:1014d40043f0020384f86d30d4f80cc0d4f84ce027
:1014e400624538bfd4e90013a2eb0c0038bf5b1a85
:1014f400aeeb000034bfc31a0346aaeb0303002b70
:10150400069340f32b81d4e90031a1eb0309069b38
:101514004b4500f2238194f86c0020f0300084f8ed
:101524006c0094f8360063446ff34510624584f808
:101534003600e3600ad39a420bd29a1a7244e264e8
:10154400236106e0e8280020e42800204a4493426e
:10155400f3d899429cbfa3eb0903e3602369994242
:101564009cbfa3eb0903236194f86e30032b01d0d5
:10157400082b04d1039b43f0040293b20393e36862
:10158400089a9a421cd194f83730d90700f10e8199
:101594005a060fd516f040fab4f86890069016f083
:1015a4003bfd069b00fb09f04ff47a79b0fbf9f0a0
:1015b4000344636294f836306ff3410384f83630a1
:1015c400029bb4f86620db89b4f85c109a42e26ca2
:1015d40038bfa4f8663053449b1a9bb231b92bb17f
:1015e40094f8361041f0400184f83610a4f85c30c9
:1015f40094f86e30042b40f0e680924514d194f8b0
:101604006c30580710d516f007fa814616f004fd21
:1016140041f288335843a3f57a63b0fbf3f0052312
:101624004844206384f86e30b1063ff538ae94f830
:101634006e30a3f10802012a7ff631ae062b3ff487
:101644002eae002f53d0029b002d1b7b07eb05020f
:1016540000f3df801b09c5eb8305029b97b22b4483
:10166400d4e90651b84528bfb8460a9301eb0803ec
:101674009d4280f0b3806d1a0135afb24ff001097d
:101684003b460aaacdf80090584610f0ddffcdf88d
:101694000090a8eb070306469bb20aaa6169584664
:1016a40010f0d2ff63693044a8eb050580b21d44f5
:1016b40040451cd194f86e20236d676de561033ab3
:1016c400022a9ebf039a42f4007292b2434498bf26
:1016d40003927a1c23650ad0b4f86020a7eb0807ac
:1016e400d219676540f184804ff0ff336365049b32
:1016f40083b194f86e30033b022b84bfe369236209
:1017040094f83630de0640f1e980012210212046ab
:1017140003f0e4ff099b002b3ff4c1addde9043184
:10172400226d0b4401329a427ff4b9ad039b2265ca
:1017340043f4806293b2039394f8373043f0040384
:1017440084f8373094f86e30023b032b3ff67caebe
:10175400dfe813f0dd00e600ee00f10062453ff43f
:101764000eaf94f86c30d90619d59b0611d5624595
:101774003cbfd4e900239b1ae06438bfc01a94f834
:10178400363038bfe06443f08003c4f810c084f8f6
:10179400363094f86c3043f0200384f86c3094f8bd
:1017a4006c3043f0100384f86c30e8e6e36c9a453f
:1017b4007ff406af94f86c305b0742bfe38e23f4ea
:1017c4008173e386fce6062b7ff42eaf92457ff40b
:1017d40066ad2ee5e36c01339a45f8e701230093e7
:1017e4000aaa4346584610f02fffe56945445fe7cf
:1017f400002f3ff77caf13442365a36915449d4232
:10180400e5617ff671af62699b1adb431d44e561b4
:101814006ae74245029a4fea131302eb8303c8bff7
:10182400a8eb05070a93d4e90631c8bfbfb27a19f9
:101834000a44934231d25e1a0136761b20d4b6b2e2
:101844004ff0010933460aaa2944cdf800905846be
:1018540010f0fafecdf80090bb1b80469bb20aaa9a
:101864006169584610f0f0fe404480b287427ff42c
:101874003eaf626d531c16d16565a4f8607036e7ff
:101884006269681e9b1ac01a012300930aaa3b4688
:101894000144584610f0d8fee8e7012300930aaa51
:1018a4003b462944f5e7b4f86030954207eb05015f
:1018b400134409d2994203d88a429cbf5b1b9fb24e
:1018c400a4f86070656512e799427ff610af9d42f7
:1018d4009ebfad1aed19a4f8605008e743f0100359
:1018e4001d0784f836303ff515af43f0080384f83c
:1018f400363016f091f8054616f08efb64235843f3
:1019040003f56173b0fbf3f02844e06202e70923b6
:1019140084f86e3001221121204603f0dffebee47c
:10192400082384f86e3094f86d3013f0010f89e5c4
:10193400e36c9a4502d10022102185e4062384f841
:101944006e3081e56ff00901c0e46ff00d01bde474
:10195400d9f8003053f82640002c72d094f86e3039
:101964000b2b6ed094f8363013f0c0051abf4fea33
:10197400d31b1025ab46580706d516f04df8a36abd
:10198400c01a0028a8bf102594f83630190706d5c8
:1019940016f042f8e36ac01a0028a8bf102594f88c
:1019a4006e30052b0fd116f037f8236bc01a0028c0
:1019b40009db01221421204603f090fe0021204679
:1019c4000af087fc3de02db18bf001022946204648
:1019d40003f084fe94f836a01af0020a4cd194f86d
:1019e40037305a062dd594f86e30032b29d116f0d2
:1019f40013f8636ac01a002823db94f8712094f862
:101a04007c309a4226d10121204694f836500ef0bb
:101a14001ffa94f8363043f0010305f0010584f809
:101a240036304ff480525146204612f011fb45b92e
:101a340094f8363065f3000384f836300a2384f8ca
:101a44006e30013636b2d8f800309e4280d30fb0e3
:101a5400bde8f08f02221021204603f03ffe15f06e
:101a6400dbffb4f86850824616f0d6fa6843b0fb40
:101a7400f7f050446062e4e715f0ceff636ac01ae1
:101a84000028dedb94f86e20531e082b6ed8dfe8a6
:101a940003f0051754676d5f6d6d670094f870303f
:101aa400032b09d9042384f8703016f0b5fa78436f
:101ab400b0fbf7f00001a06402254ff0000a12e029
:101ac40094f87030022b59d994f8363003f001039e
:101ad400002b0dbf154614254ff0010a4ff0000ae4
:101ae400bbf1000f48d094f87030d4e903020133fd
:101af40084f87030a36c206182424fea4303a364ec
:101b0400a2eb000338bfd4e900129bb23cbf521ac7
:101b14009b18e26c38bf9bb2d21ae264b4f85c2022
:101b24001344a4f85c3000222946204603f0d6fd75
:101b3400baf1000f7ff442af83e794f87030042bbe
:101b44001ed9042384f86e304ff0000a1125c7e72c
:101b540094f87030042b13d94ff0010a1425bfe711
:101b640094f87030042bf7d81125a6e7002d3ff424
:101b740068af4ff0000ab3e70122d5e712259ce7ce
:041b840010259ae7a7
:020000040000fa
:101b88002de9f04f0f219db0202013f003fb002812
:101b980040f071851db0bde8f08fd4f8c43094f8da
:101ba800d1205e682ab91b68b8491b683046984737
:101bb80050e3277c012f30d0022f45d1b4f93830bb
:101bc80001330ed104f18002618a012010f0def8a1
:101bd8002087013005d1d4f8c430ad491b681b6893
:101be800e4e7ac4ab4f938004ff40071002313f06d
:101bf8001fffd4f8bc20b4f9380002210cf0b8fb60
:101c080030b9d4f8c430a4491b6830461b689847db
:101c18000621204612f08cfc51e0618a04f1800212
:101c2800384617f084fe411ca08705d1d4f8c4308b
:101c38009a491b681b68b9e74ff480710023984ada
:101c480013f09ffe0321e4e71b6896491b68ade784
:101c5800d4f8c430944ad3f80480a4eb0a03db1008
:101c680053430593b4f93c0015f04afc0b2806468b
:101c78005ad8d4f89430f3b115f0ccfed4f8a83083
:101c8800c01a2368984216d9d4e925239a4240f00d
:101c98003b81d4f8c43085491b6840461b68984787
:101ca80015f0b8fe0023c4f88c000421204684f8ff
:101cb800cc3012f03dfc94f8cf30012b43d009f121
:101cc8000109d8347a4b1b684b457ff763af94f80a
:101cd800ce30012bf3d0023b102b00f2bb8201a2c5
:101ce80052f823f0a31b0000591c00001b1f000022
:101cf800371f00005120000091200000cd21000076
:101d0800e7210000612200008b2200003724000038
:101d1800ed2400005f2500002f2600006b23000043
:101d2800b32500006d2600000c226249b4f93c007e
:101d38000df092fb0c2808d0d4f8c4305e491b681b
:101d480040461b689847042163e72f68d4f894300d
:101d58003fbaa76233b9002f04dab4f93c0016f091
:101d6800b4fcace70133012bc4f8943060d1d4f84b
:101d7800c430059a1b6851495b6840469847a26a77
:101d88005ab1d4f8c4304e491b6840465b6898473e
:101d9800236ba26a013b13442363a36ab4f93c0092
:101da800e36207a90df019f8b4f93c0017f0d4fb69
:101db80017f065fbd4f8c430628a1b680292020ee1
:101dc8000192c0f3074200925f683e49089ec0f343
:101dd8000723c2b24046b847d4f8c430bdf86020e3
:101de8001b680292320e0192c6f3074200925f68a6
:101df8003549c6f30723f2b24046b847bdf860300c
:101e0800a4f86430666415f005fea36ac4f89c3033
:101e1800d4f89430c4f88800c4f8a800c4f89830fe
:101e2800b4f93c00236bc4f8a03016f04efc19e757
:101e3800304615f01eff02460b46d4e9080106f0ad
:101e480009fe002fc4e908010cda7f42a76215f0e9
:101e5800e1fd0023c4f88c000421204684f8cc302e
:101e680012f066fbd4e90a32511c8b4204d093422b
:101e780030dc616b0131616393422fd1d4f8c430f7
:101e880012491b6840461b68984727e0e92c000068
:101e98000c2d0000c99001002e2d0000542d0000cb
:101ea800b7900100762d000013da4b68202e000051
:101eb80030290020310000208e2d0000ac2d0000bc
:101ec800d72d0000d22b0000042c0000032e0000a8
:101ed80000007a44226b5b1a13442363d4e90a3264
:101ee8009342c8bfe3620c3eb6b2002e3ff4baaece
:101ef800332e94bf374634273a462946b4f93c0076
:101f08000df0aafaf61befe70021204607f0fefacb
:101f1800d1e6b4f93c0015f0f3fa00287ff41dafc0
:101f280094f8cf300bb1092173e6052171e694f8d6
:101f3800cd3033b90221204607f0e8fa012384f8ae
:101f4800cd30b4f93c0015f0dbfa064600287ff4e2
:101f580004af94f8cc305a1c0a2b84f8cc20e2d871
:101f68008021b4f93c0017f0fdfc00283ff4a7ae2f
:101f7800e36a2e715b421bba2b606ff07f032b73f1
:101f8800d4e908016e71ae71ee712e726e72ae7286
:101f9800ee726e73ae73ee732e746e74ae74ee746e
:101fa80015f0bcfd00ba686116f034f8d4e92232a5
:101fb800d21ab2fbf0f319ba00fb132307ee903ada
:101fc8001fed3d6aa96107ee100af8ee677af8ee90
:101fd800476a67ee867a342287eea67aba49b4f958
:101fe8003c0085f82c6085f82d6085f82e6085f812
:101ff8002f6085f8306085f8316085f8326085f8a3
:10200800336067ee067afceee77a17ee903a1bba71
:10201800eb61236b1bba2b62636b1bba6b62e36abf
:102028001bbaab6212f08afc31464c2207a817f0a3
:1020380065f94c2207a9b4f93c0012f07ffcb4f909
:102048003c0008f009f93ae694f8cf30012b3ff448
:102058006aafb4f9380015f00dff00283ff42fae31
:1020680007a9b4f9380010f0b5fa382207a904f125
:10207800400017f07ff82046072112f059fab4f90a
:10208800380015f0b2fd1ae6d4f8c430b4f93800b7
:102098005f6816f0f1ff064660bbb4f9380015f02a
:1020a800a4fd28b115f0b6fc0821c4f88c00b0e5f1
:1020b800b4f9380016f0d7ff0028f3d1a36a5bb152
:1020c80015f0a8fcd4f8a830c01a2368984203d9a0
:1020d8000021204607f01afa94f8cf30012b7ff43c
:1020e800eead0821204612f023fa15f093fcc4f84f
:1020f8008c00e4e5a36a002b41d1d4f8c4307349bd
:102108001b68a4eb0a02d2104a435b687049384640
:10211800984715f07ffca36ac4f88800c4f8a800a3
:10212800b4f93800c4f89c3017f01cfa17f0a7f976
:10213800d4f8c430628a1b680292020e0192c0f37e
:1021480007420092d3f804806249c0f30723c2b261
:102158003846c047d4f8c430b4f864201b680292eb
:1021680094f84720019294f846200092d3f804800e
:1021780094f8442094f8453057493846c047a36a34
:10218800d4f8942001330132a362c4f89420e362a6
:10219800304615f06efd02460b46d4e9080106f0fc
:1021a80059fcc4e90801332e94bf37463427f61b7f
:1021b8003a462946b4f93800b6b20cf08bff002e27
:1021c800f1d17be794f8cd30002b7ff4acae02213f
:1021d800204607f09bf9012384f8cd30a3e6d4f814
:1021e800c4305f68237c012b22d0022b25d0a4ebbe
:1021f8000a06f310354e39495e43d4f8c4301b68db
:1022080032465b6838469847204613f09df994f8a3
:10221800d130012bd4f8c43016d194f8cf209ab914
:102228001b682f495b683246384698470221f0e41c
:10223800b4f93c0015f050f9d9e7b4f9380013f0b7
:10224800d9fca4f838b0d2e71b6826495b68324647
:10225800384698470121dce4d4f8c80016f03cfb66
:10226800032805d004f14401d4f8c80013f08bf911
:102278000b21204612f05cf915f0ccfbc4f8ac0039
:102288001de594f8cf70d4f8c430012f5e6803d1ef
:102298001b6815491b6889e4d4f8c80016f01cfbb4
:1022a800032823d104f178030022a2679a80237cb3
:1022b800012b03d11021204612f03af9237c022b7e
:1022c8007ff4fdac0c21a4e43100002013da4b6844
:1022d800ac2d0000d22b0000042c0000362e00008c
:1022e800652e0000962e0000b62e000094f84430ab
:1022f80003f0f003e02bdad004f1780204f1440192
:10230800d4f8c8000ff018fb98b915f083fbd4f87f
:10231800ac30c71a15f07efe00eb800087427ff6ce
:10232800ceacd4f8c430c5491b6830461b68984702
:10233800a2e7d4f8c43094f87d201b68039294f87f
:102348007c20029294f87b20019294f87a200092e3
:102358005f6894f8782094f87930b9493046b847de
:10236800a5e7d4f8c430618a5e6804f1440201200c
:1023780017f0e0fa421ca0873ff458acb14a4ff47a
:102388008071002313f0fdfae268b4f93c000521de
:1023980006f07ffc30b9d4f8c430ab491b6830462e
:1023a8001b68984702220621b4f93c0006f071fc2c
:1023b80030b9d4f8c430a5491b6830461b68984723
:1023c800d4f8c810b4f93c0011f072fd07a9b4f9ab
:1023d8003c000cf002fdbdf86230a4f87e30d4f861
:1023e800c4309b491b6830461b689847d4f8c430f2
:1023f800628a1b68029294f84720019294f846205a
:1024080000925f6894f8442094f84530914930462a
:10241800b8471121204612f08bf815f0fbfad4f8d2
:102428008430c4f888000344c4f8903047e4d4f8f2
:10243800c430618a5e680022012016f0e7fb431c65
:1024480060873ff4c8ab0023834a4ff4007113f050
:10245800effad4f880303bb104f18003628ab4f912
:102468003a0001210df030fe002204f1440301215d
:10247800b4f93a0013f05af94ff48063a4f87e30a7
:10248800d4f8c43072491b6830461b689847d4f8a2
:10249800c430628a1b68029294f84720019294f82b
:1024a800462000925f6894f8442094f845306b49c0
:1024b8003046b8470d21204612f03af8d4f8b82033
:1024c800b4f93a0003210bf053ff30b9d4f8c43003
:1024d8005d491b6830461b689847b4f93a0015f007
:1024e80087f9c9e694f8cf30012b02d10f21fff705
:1024f80090bbd4f8c430b4f93a005e6815f0bafc61
:10250800c8b915f087fad4f8ac30c71a15f082fdaf
:1025180000eb800087427ff6d2abb4f93a0013f0a3
:1025280069fbd4f8c430a4f83ab01b684c491b685e
:1025380030469847dae7b4f93a0015f056fb15f03b
:1025480069fad4f88430c4f888000344c4f8903099
:102558000e21fff75ebb204604f044fd01281fd181
:1025680034225421284616f0c9feb4f8b03073b1ad
:10257800332b94bf1e4634269b1b32462946b4f99a
:102588003a00a4f8b03009f001fb8642edd0b4f966
:102598003a0015f07ffc204608f0e8f8fff78fbbfb
:1025a80002287ff48cab0f219ce5227db4f93c0016
:1025b8000b2106f06efb204604f014fd01282dd1f6
:1025c80034225521284616f099feb4f8b060002749
:1025d8008eb1332e94bfb0464ff034084246294698
:1025e800b4f93c0012f0aaf9a6eb08064744804566
:1025f800b6b2bfb2ecd0b4f93c0007f02dfe0246eb
:1026080030b90146b4f93c0013f038fefff757bb68
:10261800b4f8b030df1ba4f8b070bce702287ff430
:102628004eab12215ee5204610f0fefab4f93a00ee
:1026380013f0e0faa4f83ab0fff741bbd62e000039
:10264800152f0000b79001003f2f0000652f0000f4
:10265800f02900008d2f0000c9900100c42f000050
:10266800fb2f0000204610f0dffab4f93c0014f00c
:1026780033fffff724bb044c044d4ff00009a2467a
:102688004ff6ff7bfff71ebb18200020310000200b
:020000040000fa
:102698002d7478002d7278002d69002d2d696e64d7
:1026a80065780055736167653a206970657266736d
:1026b800203c2d74782073697a653e203c2d727811
:1026c8002073697a653e203c2d6920696e646578bf
:1026d8003e0d0a000d0a69706572663a20496e76e9
:1026e800616c69642073657373696f6e206e756db4
:1026f8006265722e204d696e3a20302c204d61782b
:102708003a2025640d0a006970657266733a2030b4
:10271800203c2073697a65203c2036353533360de8
:102728000a006970657266733a204f4b2c20696ef7
:102738007374616e63652025642074782073697ae8
:10274800652069732025640d0a00697065726673d7
:102758003a204f4b2c20696e7374616e6365202597
:10276800642072782073697a652069732025640d66
:102778000a0069706572666b3a205573696e672046
:10278800696e64657820300d0a0055736167653a93
:102798002069706572666b203c2d6920696e6465de
:1027a800783e0d0a000d0a697065726620736573bc
:1027b80073696f6e3a206e6f7420737461727465fa
:1027c80064210d0a000d0a69706572663a207472f8
:1027d80079696e6720746f2073746f7020697065f3
:1027e800726620696e7374616e63652025642e2e8f
:1027f8002e0d0a0055736167653a20697065726627
:1028080069202d612061646472657373203c2d69b1
:1028180020696e6465783e0d0a002d610069706557
:102828007266693a2075736520612076616c696407
:102838002049502061646472657373210d0a006930
:1028480070657266693a20556e6b6e6f776e207090
:102858006172616d657465720d0a000d0a697065b3
:102868007266693a2063616e6e6f74206368616e88
:102878006765207468652069702061646472657397
:1028880073207768696c652073657373696f6e3a36
:102898002025642072756e6e696e67210d0a0069c5
:1028a80070657266693a204f4b2c207365742074ea
:1028b8006865204950206164647265737320746f81
:1028c80020696e7374616e63653a2025640d0a0091
:1028d8002d73002d2d736572766572002d75002d90
:1028e8002d756470002d62002d2d62616e6477690c
:1028f800647468004d004b000a476976656e20696c
:102908006e2042573a20256c752b256c753d256c39
:1029180075002d78002d2d786d69747261746500cd
:102928002d63002d2d636c69656e74002d74002d68
:102938002d74696d65002d6e002d2d6e756d002d41
:1029480053002d2d746f73000a476976656e205405
:102958004f532076616c75652069732025642c209f
:102968006d547970654f66536572766963653a256b
:1029780064002d4d002d2d6d7373002d2d696e741f
:10298800657276616c002d70002d2d706f72740069
:102998002d6c002d2d6c656e0069706572663a208d
:1029a800546865206d696e696d756d206461746128
:1029b8006772616d2073697a652069732025640ddb
:1029c8000a0069706572663a205573696e672074eb
:1029d80068652064656661756c7420696e746572db
:1029e80066616365210d0a002d2d2d2d2d2d2d2db0
:1029f8002d2d2d2d2d2d2d2d2d2d2d2d2d2d2d2dff
:102a08002d2d2d2d2d2d2d2d2d2d2d2d2d2d2d2dee
:102a18002d2d2d2d2d2d2d2d2d2d2d2d2d2d2d2dde
:102a28002d0d0a0069706572663a205365727665e5
:102a380072206c697374656e696e67206f6e200012
:102a4800554450005443500020706f727420256420
:102a58000d0a000d0a69706572663a20416c6c2097
:102a6800696e7374616e63657320627573792e2065
:102a78005265747279206c61746572210d0a000dbb
:102a88000a69706572663a205374617274696e6778
:102a98002073657373696f6e20696e7374616e63fa
:102aa800652025640d0a00202020202d205b25327a
:102ab8006c752d2025326c75207365635d20253378
:102ac8006c752f2025336c75202825326c752525cb
:102ad800292020202025346c75204b6270730d0a44
:102ae80000202020202d205b302e302d20256c75d5
:102af8002e256c75207365635d2025336c752f203a
:102b080025336c75202825326c7525252920202031
:102b18002025346c75204b6270730d0a006970654e
:102b280072663a20696e7374616e6365202564204d
:102b3800636f6d706c65746564202e2e2e0069704d
:102b480065726620696e7374616e63652025643ae8
:102b580020547820646f6e652e20536f636b657404
:102b680020636c6f7365642e0d0a00697065726668
:102b78003a20696e7374616e636520256420636f03
:102b88006d706c657465642e0d0a006970657266f7
:102b98003a20536f636b65742073656e64206661b9
:102ba800696c65640d0a000d0a69706572663a20e1
:102bb800696e7374616e6365202564207374617235
:102bc800746564202e2e2e0d0a00202020202d2032
:102bd8004c6f63616c202025752e25752e25752e6a
:102be800257520706f727420257520636f6e6e6571
:102bf8006374656420776974680d0a0020202020ba
:102c08002d2052656d6f74652025752e25752e252e
:102c1800752e257520706f72742025750d0a002099
:102c28002020202d205461726765742072617465bc
:102c3800203d20256c64206270732c2070657269b9
:102c48006f64203d20256c64206d730d0a002020e0
:102c580020202d2d2d2d2d2d2d2d2d2d2d2d2d2db6
:102c68002d2d2d2d2d2d2d2d2d2d2d2d2d2d2d2d8c
:102c78002d2d2d2d2d2d2d2d2d2d2d0d0a000d0a2f
:102c880069706572663a205761726e696e672c20aa
:102c98005443502073657276657220646973636f5c
:102ca8006e6e6563742064657465637465640d0a8b
:102cb8000069706572663a204661696c65642074c3
:102cc8006f206765742025642062797465732073aa
:102cd8006f636b65742054582073706163650d0ac7
:102ce8000069706572663a20556e737570706f7200
:102cf80074656420436f6e66696775726174696f85
:102d08006e0d0a0069706572663a204372656174d7
:102d1800652054435020736f636b65742066616946
:102d28006c65640d0a0069706572663a20536574b3
:102d3800206f662052582062756666657220736936
:102d48007a65206661696c65640d0a006970657250
:102d5800663a204372656174652055445020736f4c
:102d6800636b6574206661696c65640d0a0069703f
:102d78006572663a2050726f746f636f6c2065726b
:102d8800726f720d0a0069706572663a2055445078
:102d980020476574204172726179204661696c65cb
:102da800640d0a000d0a69706572663a20696e73cf
:102db80074616e63652025642073657373696f6e33
:102dc8002073746172746564202e2e2e0d0a0069ba
:102dd800706572663a202d20466972737420706b94
:102de80074206964203d20256c64202873686f7501
:102df8006c642062652030290d0a0069706572666e
:102e08003a2052656376206475706c6963617465f5
:102e18006420706b740d0a0069706572663a2052fe
:102e2800782074696d6564206f75740d0a000d0a49
:102e3800697065726620696e7374616e63652025ba
:102e4800643a20527820646f6e652e20536f636b4e
:102e5800657420636c6f7365642e0d0a0069706574
:102e6800726620696e7374616e63652025643a200a
:102e7800526561647920666f7220746865206e659a
:102e880078742073657373696f6e2e0d0a0069700c
:102e980065726620696e7374616e63652025643a95
:102ea80020636f6d706c657465642e0d0a0069701f
:102eb8006572663a20636c69656e74207365737316
:102ec800696f6e20636c6f7365642e0d0a006970fc
:102ed8006572663a2041525020756e61626c6520b9
:102ee800746f207265736f6c766520746865204d09
:102ef80041432061646472657373206f6620726554
:102f08006d6f746520736964652e0d0a002020209a
:102f1800202d2052656d6f74654e6f6465204d419c
:102f2800433a2025782025782025782025782025e3
:102f3800782025780d0a0069706572663a20536515
:102f480074206f6620545820627566666572207317
:102f5800697a65206661696c65640d0a0069706547
:102f680072663a20536574206f6620545820717534
:102f78006575696e67206c696d6974206661696c36
:102f880065640d0a0069706572663a20436c69656c
:102f98006e7420636f6e6e656374696e6720746ffc
:102fa8002025752e25752e25752e25752c20554422
:102fb8005020706f72742025750d0a006970657253
:102fc800663a20436c69656e7420636f6e6e656344
:102fd80074696e6720746f2025752e25752e2575ea
:102fe8002e25752c2054435020706f72742025753f
:102ff8000d0a0069706572663a2054435020436c8c
:1030080069656e7420636f6e6e656374696f6e2098
:1030180074696d656f75740d0a003a206970657280
:103028006620636f6d6d616e6473006970657266aa
:10303800003a20203c69706572663e2073746172a4
:103048007420636d640069706572666b003a203c99
:1030580069706572666b3e206b696c6c20636d6489
:1030680000697065726669003a203c69706572662d
:103078006920616464726573733e2020696e7465ab
:10308800726661636520636d64006970657266735a
:10309800003a203c6970657266732074782f7278e4
:1030a8002073697a653e2074782f72782073697a64
:0630b8006520636d640059
:020000040000fa
:0230be00704759
:020000040000fa
:1030c000502700201c000000000000000025002008
:1030d000700000000000000080230020800000003d
:1030e0000000000000000020300000000000000090
:1030f000e4290020d400000001000000f83801009d
:1031000000000000000000000000000000000000bf
:1031100000000000000000000000000000000000af
:10312000000000000000000000000000000000009f
:10313000000000000000000000000000000000008f
:10314000000000000000000000000000000000007f
:10315000000000000000000000000000000000006f
:10316000000000000000000000000000000000005f
:10317000000000000000000000000000000000004f
:10318000000000000000000000000000000000003f
:10319000000000000000000000000000000000002f
:1031a000000000000000000000000000000000001f
:1031b000000000000000000000000000000000000f
:1031c00000000000000000000000000000000000ff
:1031d000042b00200100000001000000ff0000009f
:1031e00030000020010000000000000058220020f4
:1031f0009400000000000000cc2900200200000024
:1032000000000000fc1c0020040000000000000082
:10321000142000200400000000000000ec22002028
:1032200090000000000000008c1a002070020000d6
:10323000000000007c2300200400000000000000cb
:10324000a42800200400000000000000a82800209e
:103250000400000000000000ac2800200400000072
:1032600000000000b0280020040000000000000062
:10327000b42800200400000000000000b82800204e
:103280000400000000000000bc2800200400000032
:1032900000000000c0280020040000000000000022
:1032a000702800200c00000000000000882700208b
:1032b00018000000000000006c2700201c00000027
:1032c00000000000c42800200400000000000000ee
:1032d000de2900200100000000000000c8280020b6
:1032e0000400000000000000f82a00200400000094
:1032f00001000000ffffffffcc28002004000000b9
:1033000000000000d02800200400000000000000a1
:10331000d42800200400000000000000ce29002076
:103320000200000000000000d82800200400000077
:1033300000000000dc280020040000000000000065
:10334000e02800200400000000000000e428002025
:103350000400000000000000e82800200400000035
:1033600000000000d0290020020000000000000042
:10337000d22900200200000000000000ec280020fc
:103380000400000000000000f028002004000000fd
:1033900000000000f42800200400000000000000ed
:1033a000f82800200400000000000000fc28002095
:1033b00004000000000000000029002004000000bc
:1033c00000000000042900200400000000000000ac
:1033d0000829002004000000000000007c280020d4
:1033e0000c00000000000000d027002014000000a6
:1033f00000000000df2900200100000000000000a4
:10340000d42900200200000000000000d62900207e
:1034100002000000000000000c2900200400000051
:1034200000000000e427002014000000000000005d
:1034300010290020040000000000000014290020d2
:103440000400000000000000182900200400000013
:10345000000000001c290020040000000000000003
:10346000a0270020180000000000000020290020f4
:1034700004000000000000002429002004000000d7
:1034800000000000282900200400000000000000c7
:1034900018200020d8000000000000002c29002087
:1034a0000400000000000000e029002001000000ee
:1034b000000000003029002004000000000000008f
:1034c00031000020340000000000000034290020fa
:1034d0000400000000000000d829002002000000c5
:1034e00000000000da2900200200000000000000b7
:1034f0003829002004000000000000003c290020c2
:10350000040000000000000040290020040000002a
:1035100000000000f8270020140000000000000058
:10352000dc290020020000000000000044290020e7
:103530000400000000000000842600204c00000071
:1035400000000000f02a002006000000010000003a
:10355000ffffffffffff00000024002080000000ad
:10356000000000008c00002000100000000000009f
:10357000d026002040000000000000009428002019
:10358000080000000000000048290020040000009e
:1035900000000000802400208000000000000000e7
:1035a0009c2800200800000000000000e129002005
:1035b00001000000000000008c100020000a000044
:1035c000000000004c290020040000000000000062
:1035d000882800200c00000000000000f0200020df
:1035e000c800000000000000502900200400000076
:1035f00000000000e229002001000000000000009f
:10360000b827002018000000000000005429002006
:103610000400000000000000650000200100000020
:103620000000000010270020400000000000000003
:10363000b8210020a000000000000000f62a0020b1
:1036400002000000010000000100000058290020d5
:1036500004000000000000005c29002004000000bd
:1036600000000000602900200400000000000000ad
:103670000c1f002008010000000000006429002049
:103680000400000000000000682900200400000081
:10369000000000006c290020040000000000000071
:1036a000702900200400000000000000dc2a002037
:1036b0000c00000001000000f4010000d007000031
:1036c00001000000b82a00201400000001000000e2
:1036d00008000800020001000200080000060006c1
:1036e00001015400cc2a002010000000010000005d
:1036f0000101000021a400006dd90000fafa0000c9
:103700006800002019000000000000008400002074
:103710000400000000000000fc2a0020040000005b
:1037200001000000aaaaaaaa74290020040000002f
:1037300000000000782900200400000000000000c4
:103740007c290020040000000000000070250020fb
:103750006400000000000000802900200400000038
:103760000000000084290020040000000000000088
:103770008829002004000000000000008c2900209f
:103780000400000000000000902900200400000058
:10379000000000000c2800201400000000000000c1
:1037a00020280020140000000000000094290020c0
:1037b0000400000000000000982900200400000020
:1037c000000000009c290020040000000000000010
:1037d000a029002004000000000000003428002080
:1037e0001400000000000000a429002004000000d4
:1037f0000000000048280020140000000000000025
:103800005c2800201400000000000000a82900200f
:103810000400000000000000ac29002004000000ab
:1038200000000000002b0020040000000100000048
:1038300004000000d425002060000000000000000b
:10384000e32900200100000000000000b029002052
:103850000400000000000000e82a0020080000002a
:1038600001000000ffffffffffffffff88000020b7
:103870000100000000000000b42900200400000046
:10388000000000003426002050000000000000006e
:10389000001d00200c02000000000000b8290020dc
:1038a0000400000000000000bc290020040000000b
:1038b00000000000c02900200400000000000000fb
:1038c000c42900200400000000000000c8290020d6
:1038d00004000000000000000000000000000000e4
:020000040000fa
:1038e0005478204279746520436f756e742d6c6f27
:1038f000776572203332626974732854784f544c60
:103900004f290000af960100547820427974652059
:10391000436f756e742d75707065722031366269f3
:1039200074732854784f544849290000b99601000f
:103930005478204672616d657320772f6f20657211
:10394000726f722854784654434e54290000000088
:1039500000000000c396010054782042726f616439
:1039600063617374204672616d65732854784243b5
:10397000465429000000000000000000cd96010020
:103980005478204d756c746963617374204672615c
:103990006d65732854784d465429000000000000de
:1039a00000000000d79601005478205061757365bf
:1039b000204672616d657328547850465429000082
:1039c000000000000000000000000000e19601007f
:1039d00054782036342d62797465204672616d65a5
:1039e0007328547842465436342900000000000001
:1039f00000000000eb96010054782036352d31325e
:103a0000372062797465204672616d65732854426f
:103a1000465431323729000000000000f5960100bd
:103a20005478203132382d32353520627974652052
:103a30004672616d6573285442465432353529000b
:103a400000000000ff9601005478203235362d35f5
:103a500031312062797465204672616d6573285436
:103a60004246543531312900000000000997010019
:103a70005478203531322d313032332062797465fb
:103a8000204672616d65732854424654313032339a
:103a90002900000013970100547820313032342d72
:103aa000313531382062797465204672616d6573f5
:103ab0002854424654313531382900001d97010001
:103ac0005478204672616d6573203e3d203135315a
:103ad0003820627974652847544246313531382997
:103ae0000000000027970100547820556e6465722d
:103af00072756e204672616d6573206e6f7420540e
:103b000058656428547854555229000031970100b3
:103b100054782053696e676c6520436f6c6c6973d1
:103b2000696f6e204672616d657328547853434601
:103b3000290000003b970100547820322d313520b8
:103b4000436f6c6c6973696f6e204672616d65734b
:103b50002854784d43462900000000004597010095
:103b6000547820313620436f6c6c6973696f6e2016
:103b70004672616d65732854784543434e5429005d
:103b8000000000004f9701005478206c617465209c
:103b9000436f6c6c6973696f6e204672616d6573fb
:103ba0002854784c43434e54290000005997010093
:103bb0005478204465666572726564204672616d52
:103bc0006573285478445446290000000000000022
:103bd000000000006397010054782043617272690d
:103be00065722053656e7365206572726f72204630
:103bf00072616d6573285478435345296d970100b0
:103c00005278204279746520436f756e742d6c6f05
:103c1000776572203332626974732852784f524c40
:103c20004f2900007797010052782042797465206f
:103c3000436f756e742d75707065722031366269d0
:103c400074732852784f5248492900008197010027
:103c50005278204672616d657320772f6f206572f0
:103c6000726f722852784652434e54290000000069
:103c7000000000008b97010052782042726f61644f
:103c800063617374204672616d6573285278424394
:103c90004652290000000000000000009597010036
:103ca0005278204d756c746963617374204672613b
:103cb0006d6573202852784d46522900000000009f
:103cc000000000009f9701005278205061757365d5
:103cd000204672616d657328527850465229000063
:103ce000000000000000000000000000a997010093
:103cf00052782036342d62797465204672616d6584
:103d000073285278424652363429000000000000e1
:103d100000000000b397010052782036352d313273
:103d2000372062797465204672616d65732854424c
:103d3000465231323729000000000000bd970100d3
:103d40005278203132382d32353520627974652031
:103d50004672616d657328544246523235352900ea
:103d600000000000c79701005278203235362d350b
:103d700031312062797465204672616d6573285413
:103d8000424652353131290000000000d197010030
:103d90005278203531322d313032332062797465da
:103da000204672616d657328544246523130323379
:103db00029000000db970100527820313032342d89
:103dc000313531382062797465204672616d6573d2
:103dd000285442465231353138290000e597010018
:103de0005278204672616d6573203e3d2031353139
:103df0003920627974657328544d5842465229001f
:103e000000000000ef9701005278204672616d6556
:103e100073203c20363420627974657328527855bb
:103e2000465229000000000000000000f997010040
:103e30005278204672616d6573203e2031353138ed
:103e40002062797465732852784f46522900000029
:103e500000000000039801005278206572726f72b2
:103e6000204672616d6573203e2031353138206205
:103e7000797465732852784a522900000d98010020
:103e8000527820435243206572726f7220467261ed
:103e90006d657328527846435345290000000000a1
:103ea00000000000179801005278204c656e67747e
:103eb00068206669656c64206572726f7220467254
:103ec000616d65732852784c46464529219801005a
:103ed00052782073796d626f6c206572726f7220f8
:103ee0004672616d6573285278525345290000006f
:103ef000000000002b980100527820616c69676e09
:103f00006d656e74206572726f72204672616d65a8
:103f100073285278414529000000000035980100bf
:103f20005278205265736f75726365204572726fa7
:103f300072202852785252452900000000000000eb
:103f4000000000003f9801005278206f7665727281
:103f5000756e206572726f72204672616d6573288e
:103f60005278524f45290000000000004998010096
:103f700052782049504864722043686b73756d20f5
:103f80006572726f72204672616d6573285278494e
:103f90004843452953980100527820544350204308
:103fa000686b73756d206572726f72204672616df9
:103fb0006573285278544345290000005d9801003c
:103fc0005278205544502043686b73756d2065729c
:103fd000726f72204672616d657328527855434541
:083fe0002900000067980100b0
:020000040000fa
:103fe8002de9f04f8db00b68826d0193436dd0f8c9
:103ff80050a0009083ea020e0eea0a0e8eea020e24
:10400800d44bc26c1344019a13449e444b680293e8
:10401800436d826d0aeb7e6e8aea0307436d07eaf9
:104028000e075f40cc4b1344029a13441f448b681d
:104038000393426dc94b0eeb37578aea0e051344ba
:10404800039a3d40134485ea0a051d44cb6804934e
:10405800c34b049a07ebf5358eea07062e40534406
:10406800134486ea0e061e440b690593059cbd4a57
:10407800224405ebb62687ea050396444a69069268
:1040880033400698b84a7b40734406eb736385ea6d
:104098000604024417441c408a6907926c4007983a
:1040a8003c44b24f03eb345486ea030207442240ef
:1040b8003d447240c86908902a44ad4d04ebf23281
:1040c80083ea0408054408ea02082e4488ea03083b
:1040d800086aa84d0990b04402ebb82884ea020c9b
:1040e80005440cea080c2b448cea040c9c444b6aeb
:1040f8000a930a98a04b8e6a08eb7c6c82ea08093e
:10410800034409ea0c091c4489ea0209a144a6f5fa
:1041180024430ceb395988ea0c0e4f3b1a440eea3b
:10412800090ecb6a0b938eea080e9644934b0b9ab2
:10413800029809ebfe3e8cea0905134405ea0e05d0
:10414800984485ea0c0545448d4bd1f830808d4a5a
:104158000eebb52589ea0e0743442f409c4487eab5
:1041680009076744d1f834c005eb77678eea050381
:1041780062443b40914483ea0e034b44824ad1f89f
:10418800389007eb335385ea07044a441c409644a9
:104198006c407444d1f83ce07c4903ebf43487ea82
:1041a8000302714422400d447a402a4404ebb222af
:1041b800774984ea020b01440bea030b0f448beaac
:1041c800040bbb4402ebfb6b0798724982ea0b07ae
:1041d800014427400b4457401f440bebf7570b98fb
:1041e8006d498bea0703014413400c4483ea0b032f
:1041f800234407ebb34301986849694c87ea0305f0
:10420800014405ea0b050a447d40154403eb3535a6
:104218000698644983ea050201443a408b445a40af
:104228005a4405ebf26285ea0201344419402744f6
:104238006940394402ebf1515b4f059882ea010469
:1042480077442c403b4454401c4401ebb444574f42
:1042580081ea0403074413403d444b402b4404ebdc
:1042680033330a98524d84ea030b05440bea010bd9
:104278002a448bea040b934403ebfb6b4d4a0998e1
:1042880083ea0b074a44274011445f400f440beb75
:10429800f7570499484a8bea07050a441d40144415
:1042a80085ea0b05254407ebb5454449444c87eaa4
:1042b8000502014402ea0b020b447a401a4405eb5a
:1042c80032324049039885ea020361443b408b44fb
:1042d8006b405b4402ebf36382ea03010444294028
:1042e80027445140394403ebf1510898364f83ea8b
:1042f8000104074414403d445c402c4401ebb444a1
:10430800324f099881ea040b0bea030547443a4403
:104318004d401544069a2e4fa2f5b82204eb3535c8
:10432800a2f2be628bea050b13445b4405eb3373c0
:1043380084ea050207445a4039440b981144254a37
:1043480003eb715185ea030b02448bea010b144419
:1043580042e000bf78a46ad756b7c7e8db702024cc
:10436800eecebdc1af0f7cf52ac68747134630a8ed
:10437800019546fdd8988069aff7448bbed75c8914
:104388002211906b937198fd8e4379a62108b44948
:1043980062251ef640b340c0515a5e26aac7b6e948
:1043a800531444025d102fd681e6a1d8c8fbd3e789
:1043b800e6cde121d60737c3870dd5f4ed145a456c
:1043c800f8a3effc05e9e3a9d9026f678a4c2a8da7
:1043d80081f6718722619d6d9d4a02985c4401ebcc
:1043e800344483ea01074a44154467402f44994df1
:1043f80004eb772781ea040205447a4005982b44a8
:10440800954d134407eb337384ea070205445a4079
:1044180029440898914d1144914a03eb715187ea58
:10442800030b024414448bea010ba3448d4c0198fe
:1044380001eb3b4b83ea01023444274482ea0b0236
:104448003a440beb722281ea0b04654454402b4436
:104458002344854c02eb33738bea0207044421445e
:104468005f4004980f44814903eb775782ea0305bc
:1044780001448b4407987e497d405d4407eb3545f0
:1044880083ea070b01440a448bea050b0a9903984f
:104498009344784a05eb7b2b87ea05040a441344c6
:1044a80084ea0b041c44744b744a0beb347485ea9d
:1044b8000b0143441f446140394404eb71518beaba
:1044c800040372444b4015441d446d4b6d4f01eb82
:1044d800354584ea010203449b446a4001985a44e2
:1044e80005eb722262ea010307443c446b400898da
:1044f8002344654c02ebb36363ea050b044421448f
:104508008bea020b8b446149069803ebbb5b6beab1
:10451800020749440d445f402f445d490beb774740
:1045280067ea030401440a4484ea0b041444594a20
:104538005949079807ebf42464ea0b0542441344ed
:104548007d40049a1d44554b04ebb56565ea0708a0
:1045580013449b4488ea0408d84405ebb858a6f5e8
:10456800801668ea0403a6f683363e446b40029a36
:10457800334408eb734363ea050911440c4489eaa0
:1045880008090999464aa14403ebf92969ea08068a
:104598000a4415445e402e44424a09ebb66666ea70
:1045a80003017244904481ea090141443e4a06eb02
:1045b800b15161ea09040244134474401c443b4b62
:1045c8003b4a0b9801eb744464ea0605634499443a
:1045d8004d40059b4d4404ebf52565ea01071a4457
:1045e800164467403744334a05ebb76767ea040364
:1045f80002446b40114419442f4a039b1a44009b00
:1046080007ebb151db6c61ea05061444009a7e4061
:104618003b44d36434440a9a284b01eb7444134452
:1046280064ea07071d444f402f44009b0aeb04052a
:1046380005ebf7251d655b6d1c44009b5c659b6d58
:104648001944009b002099650db0bde8f08f00bfac
:104658000c38e5fd44eabea4a9cfde4bc67e9b28f4
:10466800604bbbf670bcbfbefa27a1ea8530efd419
:10467800051d880439d0d4d9e599dbe6f87ca21f5a
:104688006556acc4442229f497ff2a43a72394ab68
:1046980039a093fcc3595b65d15d848592cc0c8f9e
:1046a8004f7ea86fe0e62cfe144301a3a111084e2b
:1046b800827e53f735f23abdbbd2d72a91d386eb27
:020000040000fa
:1046c8002de9f04fa94baa4cd0f804808db01746bd
:1046d800049106461968002223468a4205db33689e
:1046e800a4491b684046984719e294f8ce50012d1a
:1046f80000f04f820132d834efe757f825a09e49e1
:104708000222504613f04eff30b105229b49504615
:1047180013f048ff002833d1012384f8d130013544
:10472800edb2049b9d42e8db94f8d110002900f01b
:10473800fb81012940f0f381336891491b684046a9
:10474800984733688f491b6840469847237c012b5c
:1047580004d133688c491b6840469847237c022b58
:1047680004d1336889491b6840469847d4f8c43057
:1047780087491b68628a5b68404698470221ffe1c7
:1047880002228449504613f00dff28b105228249c0
:10479800504613f007ff10b901232374bfe7022224
:1047a8007e49504613f0fefe05f1010930b105229d
:1047b8007b49504613f0f6fe00286ad15ffa89f566
:1047c8004ff0010b57f8259084f810b0484614f0c4
:1047d8009dfd5ffa80fa0af1ff334b447149039358
:1047e800184614f060fa039b6f4958b1184614f044
:1047f8005afa002832d05a4608a948460df03efb1e
:10480800089b29e0184614f04efa0028674808bfac
:104818004ff47a704ff0000e0af1ff3103904ff019
:10482800010b7246f44605914ff00a0a059b9c4518
:1048380017db039b3168824203fb0ef338bf424308
:1048480098180090cde90823d1f804907068584969
:10485800c847dde908321344a36160e74ff47a7072
:10486800d8e719f80c10a1f13003092b0bd8bbf1cc
:10487800000f00f0b6810afb0212303a0cf1010c6d
:104888005ffa8cfcd2e72e2904bf42434ff0000b9d
:10489800f4e702224749504613f084fe28b1052266
:1048a8004549504613f07efe30b95ffa89f501227a
:1048b80008a957f82500a1e702224049504613f0fd
:1048c80071fe28b105223e49504613f06bfeb8b977
:1048d80000235ffa89f584f8d130042208a957f833
:1048e80025000df0cbfa089b84f84430099b84f826
:1048f80045300a9b84f846300b9b84f847300ee716
:1049080002223049504613f04dfe28b105222e49a7
:10491800504613f047fe70b95ffa89f5012208a9dd
:1049280057f825000df0aafa089b029a5343a36092
:1049380000236360f3e602222449504613f032fe56
:1049480030b105222249504613f02cfe002841d1ef
:104958005ffa89f5012208a957f825000df08efaab
:10496800089b63600023a360d9e600bf30290020bc
:10497800182000205b2a0000d8280000db2800004f
:10498800f02900002c2a0000482a00004c2a0000c8
:10499800502a0000e4280000e7280000ed28000065
:1049a800f0280000fc280000fe28000040420f000c
:1049b800002900001a2900001d29000028290000ec
:1049c8002b29000034290000372900003e29000067
:1049d8004129000002228749504613f0e3fd28b11f
:1049e80005228549504613f0ddfd78bb5ffa89f54d
:1049f80057f825004378782b0dd1408840baadf898
:104a08001e0080b210f024fd0246202a13d009d8d7
:104a18009ab100230be0012208a90df02ffa9df8a6
:104a28002020f2e7a02a04d0c02af2d1102323754f
:104a380004e02023fbe70823f9e7227533686f4970
:104a4800d3f80490237d4046c84768e602226c49a3
:104a5800504613f0a7fd28b105226a49504613f0c5
:104a6800a1fd58b95ffa89f5012208a957f8250070
:104a78000df004fa089ba4f8d23050e602226249ed
:104a8800504613f08ffd28b105226049504613f0b7
:104a980089fd60b95ffa89f5012208a957f8250050
:104aa8000df0ecf9089b029a5343236037e6022283
:104ab8005749504613f076fd28b10622554950460d
:104ac80013f070fd50b95ffa89f5012208a957f86b
:104ad80025000df0d3f9089b638220e602224e4997
:104ae800504613f05ffd38b105224c49504613f08b
:104af80059fd00287ff413ae5ffa89f5012208a951
:104b080057f825000df0baf9089b332b0ad8d4f8ca
:104b1800c43043491b6834225b68404698470db04f
:104b2800bde8f08fe360fae504f1800013f092f934
:104b3800c4f8c80040b933683a491b6840469847ea
:104b480014f0ecfcc4f8c800237c022b1cd1b4f888
:104b5800d230a269dded027ad208b8ee676a07eeb4
:104b6800902ab8eee77a07ee903af8ee677a0a21cb
:104b7800c7ee276ac6ee267afceee77ac4ed217afc
:104b880020460ff0d5fccae7012b0cbfa3890023f0
:104b9800dfe732682449d2f80490244ae31adb108c
:104ba8005a434046c8470223237441f289334ff0e1
:104bb800000963821e4ba36184f8d19084f8cf90da
:104bc80013f028fa0a234343029020602046c4f8d1
:104bd8000490a36084f81490c4f8c46010f0b4fc86
:104be8009fe50afb0e1e039bb3fbfaf3aef1300ef2
:104bf800039343e6472900004a2900005029000092
:104c08007a2900007d290000a026000083290000e1
:104c18008e29000091290000982900009b29000096
:104c2800a1290000ca290000872a000013da4b686e
:044c380040420f00e7
:020000040000fa
:104c3c002de9f04faf4c844287b014d1ae4f97f9a9
:104c4c000020531edbb2012b0dd8ac4d2b6883b961
:104c5c00ab4b02a81b689847002804dc06d10298cd
:104c6c0020b101f05bfe07b0bde8f08f00233b7074
:104c7c00f9e7012a29d1a34e3368013325d1a24a81
:104c8c000021052013f0e6fe3060013000f0f880c2
:104c9c0013f0bef94ff47a7300eb800202f2e732a4
:104cac00b2fbf3f25343994a994eb3fbf0f34ff036
:104cbc0025081360336a06f12001002b40f0d380e5
:104ccc00b8f1010806f11006f4d12e68dff824b211
:104cdc004ff0000840f2dc5948f2400a2188884520
:104cec00c0f2e88097f90020012a16d10026d5f8e9
:104cfc00008033464ff06c0e99420efb038040f05f
:104d0c004f8101238b40013bb34240f07d81022354
:104d1c0080493b70002012f0cbf900200ff07cfd95
:104d2c007d4b1a682ab97d4a11687d4a12680a437c
:104d3c0099d01a680026002a00f085811e6014f0b4
:104d4c0039fc074611f018fe3a4633468046894630
:104d5c0011f0a2fe734b4ff47a721860b7fbf2f2ab
:104d6c0033464046494611f097fe6f4b2f6818604a
:104d7c0023889e42c0f24e814ff00108674a1368a7
:104d8c0013b300232e68dff8b8a11360994623886b
:104d9c004b4500f35a81dff878b14ff000094ff022
:104dac00010a624814f082f80746002840f092810c
:104dbc00012013f0e3fd564a138b23f00103014647
:104dcc001383012014f040fa00262d68584f40f24e
:104ddc008669b2462388b34200f3af814c4db8f1db
:104dec00000f21d0494f2c462526236a04f12000c0
:104dfc005bb1b4f92a2042b13968a38d5b1a9bb21e
:104e0c0019b2002940f3bd81a185013e04f11004c3
:104e1c00ebd1012013f0b2fd2b8923f002030146e4
:104e2c002b81012014f010fa394c0225002013f0cc
:104e3c00a5fd266a278d0146002014f005fa0eb157
:104e4c0007b1b0470135272d04f11004eed1344bd6
:104e5c001b68002b3ff407af00224ff480713548dc
:104e6c0012f0d6ffffe6b6f92a20002a3ff428af4d
:104e7c00c8f1270080b212f04dfd00287ff420af5e
:104e8c0014f092fb28b114f089fb05222a490ef08c
:104e9c00c7f80bf0c9f8ff233b7014f085fb002812
:104eac003ff4e1ae14f07afb24494ff0ff320ef0e0
:104ebc00b7f8d8e6f06cc0b1736c9b69984796f85c
:104ecc0043305b0611d5736cf06c5b699847002816
:104edc0038da03230422314658460ef06ffb96f85d
:104eec00433043f0800386f8433008f101086c36f8
:104efc00f4e600bf6c270020de290020c02800202b
:104f0c00c4280020f82a0020fd780100b8280020d1
:104f1c008c1a00209e550000b0280020c8280020c4
:104f2c00b4280020a42800207c230020f822002094
:104f3c00a82800209c1a0020325500005f55000064
:104f4c00ac2800200228d0d11022002102a814f095
:104f5c00d3f9736cadf812901b6c306d02a99847a5
:104f6c000298f063bdf80c30a6f84030bdf80e3056
:104f7c0096f84320003318bf012363f3451286f8db
:104f8c004320bdf81230a6f85e30b6f8423023f05c
:104f9c0040039b049b0c4aea0303a6f84230a4e7a7
:104fac0090f843c00cf00c09b9f1040f07d11cf0b8
:104fbc00800f3ff458ae90f84200400602d502fa3a
:104fcc0003f00643013397e6b1f8423023f47e53e5
:104fdc0023f03f035b045b0c23b1032304225046f4
:104fec000ef0ecfa013523889d4209fb0581ebdbc1
:104ffc00ff233b7014f0d8fa00283ff434ae14f0c1
:10500c00cdfa3246624952e700254ff06c09dff8c1
:10501c0088a1e8e797f842305b0611d57b6c386db8
:10502c005b6a984797f8603003f0010290421fbf0b
:10503c0043f0020360f3820360f3000387f86030ef
:10504c0001366c3794e6904698e696f842305f0647
:10505c0036d5736c306d5b6db6f85a709847074354
:10506c00012013f08bfcb6f85a30bfb223ea0703c9
:10507c000146a6f85a30012014f0e6f8b6f85c3078
:10508c00306d3b43a6f85c30736c39461b6d98470a
:10509c0017f0160f0cd0736c306d5b6b0022114641
:1050ac009847014680b9daf800300133caf800306d
:1050bc0096f84330980603d5736c306d9b6b98470c
:1050cc0009f101096c3662e68e62002201200ff0b4
:1050dc00b5fee0e77b699a892e4b52ba92b2002654
:1050ec001988914223d17a8c59889888019322f49b
:1050fc007c520a437a84394600220ff09ffe019bb2
:10510c0030b901226ff00c01384610f0a9fd48e6c9
:10511c000afa06f616ea09027ff443ae98880121d2
:10512c000beb001049ea060912f0c9f839e6013612
:10513c00042e03f10603d3d1e3e795f84230590668
:10514c001cd5b5f85c1011ea090f1ebf3b68013382
:10515c003b6095f860309a070ed55b0795f8603088
:10516c006ff341034cbf41f4006141f4805185f869
:10517c00603028460df0d2f8a5f85ca001366c35ed
:10518c0028e61344a3850022022112f098f83ce68d
:0c519c00ce550000f88801006c270020b0
:020000040000fa
:1051a8005443502f495020537461636b3a20257340
:1051b800204d414320696e697469616c697a617434
:1051c800696f6e206661696c65640d0a005443500e
:1051d8002f495020537461636b3a202573204d4149
:1051e80043204f70656e206661696c65640d0a0026
:1051f8005443502f495020537461636b3a204d6fcc
:1052080064756c65206e6f3a20256420496e697458
:1052180069616c697a6174696f6e206661696c6531
:10522800640d0a005443502f495020537461636b36
:105238003a202573204d4143206576656e74206eb3
:105248006f74696669636174696f6e2073657474dd
:10525800696e67206661696c65640d0a0054435085
:105268002f495020537461636b3a20486561702060
:1052780044656c657465206661696c21204e6f20f9
:105288007472616365206578697374730d0a0054dc
:1052980043502f495020537461636b3a204865612d
:1052a80070206372656174696f6e206661696c65f0
:1052b800642c20747970653a2025640d0a005443e3
:1052c800502f495020537461636b3a204e657477b0
:1052d8006f726b20636f6e66696775726174696f50
:1052e8006e20616c6c6f636174696f6e20666169b2
:1052f8006c65643a20256c750d0a005443502f499b
:105308005020537461636b3a205061636b6574205d
:10531800696e697469616c697a6174696f6e206617
:1053280061696c65643a20307825780d0a00544329
:10533800502f495020537461636b3a20446566616d
:10534800756c7420466c617368204e6574776f7253
:105358006b20636f6e66696775726174696f6e2022
:105368006c6f6164206661696c65642025640d0a50
:10537800005443502f495020537461636b3a204eb8
:105388006574776f726b20636f6e6669677572619b
:1053980074696f6e20696e697469616c697a617489
:1053a800696f6e206661696c65643a2025640d0a30
:1053b800005443502f495020537461636b3a204e78
:1053c8006574776f726b20636f6e6669677572615b
:1053d80074696f6e3a20416c6961736573206e6ff2
:1053e8007420737570706f727465643a2025640d4b
:1053f8000a005443502f495020537461636b3a207c
:105408004e6574776f726b20636f6e66696775722d
:105418006174696f6e3a20696e76616c69642049bf
:105428005020616464726573733a20307825387847
:105438000d0a0025732564005443502f495020530a
:105448007461636b3a20506f776572204d6f6465a5
:1054580020696e697469616c697a6174696f6e201c
:105468006661696c3a2025640d0a005443502f493f
:105478005020537461636b3a2044796e616d69639f
:10548800206d656d6f7279206973206c6f773a2093
:10549800256c750d0a005443502f495020537461f0
:1054a800636b3a20496e697469616c697a617469e1
:1054b8006f6e206661696c6564202564202d20412b
:1054c800626f7274696e6721200d0a005443502f71
:1054d800495020537461636b3a20496e697469615d
:1054e8006c697a6174696f6e205374617274656453
:1054f800200d0a005443502f495020537461636ba8
:105508003a204e6574776f726b20636f6e666967b9
:1055180075726174696f6e206c6f61642066616971
:105528006c65643a2025640d0a005443502f495095
:1055380020537461636b3a205469636b207265670a
:10554800697374726174696f6e206661696c6564f1
:105558003a2025640d0a005443502f4950205374b3
:1055680061636b3a20496e697469616c697a617428
:10557800696f6e2053595320544d52206661696cef
:1055880065643a202564202d2041626f7274696e2b
:105598006721200d0a005443502f4950205374614d
:1055a800636b3a20496e697469616c697a617469e0
:1055b8006f6e20456e646564202d20737563636586
:1055c8007373200d0a005443502f495020537461bf
:1055d800636b3a20496e7465726661636520496e33
:1055e800697469616c697a6174696f6e2066616952
:1055f8006c65643a2030782578202d2041626f72de
:1056080074696e6721200d0a00382e3130202d2054
:10561800483300544350495020537461636b204110
:1056280073736572743a20696e2066696c653a20f6
:1056380025732c2066756e633a2025732c206c69bf
:105648006e653a2025642c200d0a002e2e2f7372c9
:10565800632f636f6e6669672f73616d5f6535349d
:105668005f7870726f5f6672656572746f732f6ca6
:105678006962726172792f74637069702f737263d3
:105688002f74637069705f6d616e616765722e63f8
:1056980000544350495020537461636b20436f6e2c
:1056a800643a20696e2066696c653a2025732c205f
:1056b80066756e633a2025732c206c696e653a20f6
:1056c80025642c200d0a00756e6b006574680077e0
:0856d8006c616e00707070003f
:020000040000fa
:1056e0002de9f04790f86f30012b86b004460f4645
:1056f000914640f05d82002013f046f9656c01464a
:1057000035b16b8c18075abf43f008036b84002532
:10571000002013f09ffd002d70d142f206030422f9
:105720001421742012f07bf80546002800f0438213
:105730003f4bc0e902340123a0f86c30a0f854308c
:10574000438c43f008034384002013f01df9636c7d
:10575000014603b96564002013f07cfdfb0707d503
:1057600094f8373043f0010384f8373007f0fe0730
:1057700094f8363003f0030384f8363094f86f3031
:10578000012b40f01b82d5f81ca09af80c3017f0c2
:1057900006066ff307138af80c304bd0ba0725d5ed
:1057a00040f20243adf80830236c83b3206c13f051
:1057b000bbf8143880b243baadf80a309af80c300e
:1057c000a4f86400c3f30312013262f307138af8ea
:1057d0000c3094f86f30012b02d1029bcaf81430c0
:1057e000e36c1bb920460bf08df9e06417f0030859
:1057f00000f097814ff00008464663e02a690023d5
:105800002b656b64ab66eb6513609381a6e720465e
:1058100010f0d8f80028c9d1043894f86f30012b63
:1058200040f035816b8c23f008036b842fe100bfbf
:10583000d9e00000a2682369b4f862809a4231d0ae
:1058400014f096f820b9b4f86430984528bf98460b
:10585000a168236994f86fe0b4f85c60994240f263
:105860001b81c91a8e4228bf0e46b0453fbf94f82f
:10587000362042f0800284f836204646bef1010f01
:105880000ed100226a642a69002b00f00381b1b2b4
:10589000a5f85210a5f8501005f14401eb64116011
:1058a0003344236194f83730db0707d5b4f85c3014
:1058b000b34203d0b04518bf47f00107002e95d082
:1058c0001ffa86f8b4f85c309b1ba4f85c300eb16c
:1058d00047f0080719f0010f0ad0002384f8703050
:1058e00012f09cfb4ff47a735843b0fbf3f0a064c2
:1058f00012f094f8a36c184494f83630606243f0c8
:10590000020384f83630b4f85a30226daaf8003019
:10591000b4f85830aaf80230e36ccaf808209af8b4
:105920000c20caf804306ff303028af80c201e44de
:10593000002217f002098af80d70caf8102007f04b
:105940001001e66415d001f0ff0209b9caf8082079
:1059500094f86c2010074dbf03f1ff33013642f07d
:105960000802caf804305cbfe66484f86c204ff08b
:105970000409f80742bf94f86c3043f0040384f83c
:105980006c3029b194f86d3043f0010384f86d3028
:10599000d4e90732934225bfd4e905609b1ad31a94
:1059a000801b2cbfc31a03f1ff339bb2aaf80e3041
:1059b0005046a4f85e3011f021fa9af80c30c3f387
:1059c0000312053262f307138af80c3094f86f3033
:1059d000012b40f0d180a36b002b00f0cd8020463e
:1059e0000ff0f0ff002800f0c7802869236ce16bfe
:1059f000a26beb638389696309f114094b4409ebda
:105a0000080aaa63cde9031283810c214ff4c06315
:105a10001ffa8afaadf8143000229afa9af30debc5
:105a20000100adf816300df0cff8ee69c24392b226
:105a3000494630460df0c8f82a69c04383b2118a3e
:105a4000b8f1000f00f0948041f00801118228465f
:105a50004246e96c0bf03cfec04383b2db43338229
