:020000040000fa
:10000000f0ff03208147010091ca010095ca010059
:100010009dca0100a1ca0100a5ca0100000000009c
:1000200000000000000000000000000011b201000c
:1000300099ca0100000000005169010039aa0100bd
:100040005ba700005ba700005ba700005ba70000a8
:100050005ba700005ba700005ba700005ba7000098
:100060005ba700005ba700005ba700005ba7000088
:100070005ba700005ba700005ba700005ba7000078
:100080005ba700005ba700005ba700005ba7000068
:100090005ba700005ba700005ba700005ba7000058
:1000a0005ba700005ba700005ba700005ba7000048
:1000b0005ba700005ba700005ba700005ba7000038
:1000c0005ba700005ba700005ba700005ba7000028
:1000d0005ba700005ba700005ba700005ba7000018
:1000e0005ba700005ba7000000000000000000000c
:1000f000000000005ba700005ba700005ba70000fa
:100100005ba700005ba700005ba700005ba70000e7
:100110005ba700005ba7000041c1000041c10000d7
:1001200041c1000041c100005ba700005ba70000c7
:100130005ba700005ba700005ba700005ba70000b7
:100140005ba700005ba700005ba700005ba70000a7
:100150005ba700005ba700005ba700005ba7000097
:100160005ba700005ba700005ba700005ba7000087
:100170005ba700005ba700005ba700005ba7000077
:100180005ba700005ba700005ba700005ba7000067
:1001900091ab01005ba700005ba700005ba700001c
:1001a0005ba700005ba700005ba700005ba7000047
:1001b0005ba700005ba700005ba700005ba7000037
:1001c0005ba700005ba700005ba700005ba7000027
:1001d0005ba700005ba700005ba700005ba7000017
:1001e0005ba700005ba700005ba70000f9ac010063
:1001f0005ba700005ba700005ba700005ba70000f7
:100200005ba700005ba700005ba700005ba70000e6
:100210005ba700005ba700005ba700005ba70000d6
:100220005ba700005ba700005ba700005ba70000c6
:100230005ba700005ba700005ba700005ba70000b6
:100240005ba700005ba700005ba700005ba70000a6
:100250005ba700005ba700005ba700005ba7000096
:040260005ba7000098
:020000040000fa
:10026400f8b500bff8bc08bc9e467047e18b01009e
:10027400f8b500bff8bc08bc9e467047bd8b0100b2
:020000040000fa
:080284008c9300000100000052
:020000040000fa
:10028c0055736167653a206d6163696e666f200d09
:10029c000a00000045783a206d6163696e666f2034
:1002ac000d0a0000496e746572666163653a20251b
:1002bc007320447269766572205374617469737427
:1002cc006963730d0a0000000d0a205265636569ad
:1002dc00766520537461746973746963730d0a00d5
:1002ec0009206e52784f6b5061636b6574733a20c2
:1002fc0025640d0a09206e527850656e644275664d
:10030c00666572733a2025640d0a09206e52785383
:10031c0063686564427566666572733a2025640d80
:10032c000a00000009206e52784572726f7250619b
:10033c00636b6574733a2025640d0a09206e52783c
:10034c00467261676d656e744572726f72733a2096
:10035c0025640d0a09206e5278427566664e6f74dc
:10036c00417661696c61626c653a2025640d0a0006
:10037c000d0a205472616e736d697420537461742c
:10038c006973746963730d0a0000000009206e54d0
:10039c00784f6b5061636b6574733a2025640d0a5a
:1003ac0009206e547850656e64427566666572738a
:1003bc003a2025640d0a09206e54784572726f72ca
:1003cc005061636b6574733a2025640d0a09206ec5
:1003dc005478517565756546756c6c3a2025640dbd
:1003ec000a0d0a00096e6f7420737570706f727449
:1003fc0065640d0a00000000496e746572666163e5
:10040c00653a2025732048617264776172652052c9
:10041c0065676973746572205374617475730d0a22
:10042c0000000000092025733a20307825780d0a49
:10043c0000000000696e7465726e616c0000000053
:10044c00556e6b6e6f776e20686561702074797075
:10045c00652e205573653a205b312c2025645d0d8b
:10046c000a0000004e6f206865617020696e666f2f
:10047c002065786973747320666f72207479706567
:10048c003a202573210d0a0048656170207479703b
:10049c00653a2025732e20496e697469616c20635e
:1004ac0072656174656420686561702073697a6532
:1004bc003a2025642042797465730d0a000000000f
:1004cc00416c6c6f6361626c6520626c6f636b2056
:1004dc00686561702073697a653a202564204279d9
:1004ec007465730d0a000000416c6c2061766169c3
:1004fc006c61626c6520686561702073697a653a1d
:10050c002025642042797465732c20686967682003
:10051c0077617465726d61726b3a2025640d0a0007
:10052c004c6173742068656170206572726f723ae9
:10053c0020307825780d0a004e6f20547261636567
:10054c0020696e666f206578697374732e0d0a00ce
:10055c00537461636b207570206661696c65640d02
:10056c000a000000537461636b207570207375630f
:10057c006365656465640d0a00000000557361676e
:10058c00653a20737461636b203c75702f646f77d0
:10059c006e3e203c70726573657276653e0d0a0086
:1005ac0045783a20737461636b20646f776e2070aa
:1005bc00726573657276650d0a0000007570000037
:1005cc00537461636b20616c726561647920757022
:1005dc00210d0a005475726e20537461636b206494
:1005ec006f776e20616e64207468656e2075702163
:1005fc000d0a000052657374617274696e67207421
:10060c00686520737461636b207769746820256456
:10061c0020696e746572666163652873290d0a0022
:10062c00646f776e00000000537461636b20646f1d
:10063c00776e3a2063616e6e6f742067657420610b
:10064c0020737461636b2068616e646c650d0a00c5
:10065c00537461636b20646f776e20646f6e650ded
:10066c000a00000055736167653a206966203c6991
:10067c006e746572666163653e203c646f776e2fa5
:10068c0075703e200d0a000045783a2069662050ae
:10069c0049433332494e5420646f776e200d0a0063
:1006ac00556e6b6e6f776e20696e746572666163e2
:1006bc006520737065636966696564200d0a0000c6
:1006cc005468697320696e74657266616365206134
:1006dc006c72656164792075700d0a004f706572db
:1006ec006174696f6e206661696c65642e204e6f53
:1006fc0020636f6e66696775726174696f6e0d0a3f
:10070c000000000066756c6c000000005468697392
:10071c0020696e7465726661636520616c726561d7
:10072c00647920646f776e0d0a00000057726f6e4b
:10073c006720706172616d6574657220737065639a
:10074c006966696564200d0a000000004f706572cf
:10075c006174696f6e207375636365737366756c12
:10076c00210d0a004f7065726174696f6e206661ad
:10077c00696c6564210d0a0055736167653a2073d5
:10078c0065746d6163203c696e7465726661636546
:10079c003e203c783a783a783a783a783a783e2063
:1007ac000d0a000045783a207365746d6163205022
:1007bc0049433332494e542061613a62623a636371
:1007cc003a64643a65653a6666200d0a00000000da
:1007dc00617267765b325d3a2025730d0a0000006a
:1007ec00496e76616c6964204d414320616464728a
:1007fc0065737320737472696e67200d0a000000b4
:10080c00536574204d414320616464726573732099
:10081c006661696c65640d0a000000005365742004
:10082c0042494f53204e616d65204f4b0d0a00001d
:10083c005365742042494f53204e616d65206661ab
:10084c00696c65640d0a000055736167653a207325
:10085c00657462696f73203c696e7465726661635e
:10086c00653e203c782e782e782e783e200d0a009e
:10087c0045783a2073657462696f7320504943332d
:10088c0032494e54204d434850424f4152445f32fe
:10089c0039200d0a000000005365742067617465ef
:1008ac007761792061646472657373204f4b0d0a14
:1008bc0000000000536574206761746577617920ce
:1008cc0061646472657373206661696c65640d0a9a
:1008dc000000000055736167653a20736574677793
:1008ec00203c696e746572666163653e203c69707c
:1008fc0076342f3620616464726573733e203c76c7
:10090c00616c696454696d653e200d0a000000003d
:10091c0045783a20736574677720504943333249e0
:10092c004e54203139322e3136382e302e31200da6
:10093c000a000000496e76616c69642049502061a0
:10094c0064647265737320737472696e67200d0a28
:10095c000000000053657420697020616464726546
:10096c007373204f4b0d0a0053657420697020611e
:10097c00646472657373206661696c65640d0a004a
:10098c0055736167653a207365746970203c696eb4
:10099c00746572666163653e203c697076342f36ef
:1009ac0020616464726573733e203c697076346dab
:1009bc0061736b2f6970763620707265666978206a
:1009cc006c656e3e0d0a000045783a2073657469bb
:1009dc0070205049433332494e54203139322e3134
:1009ec0036382e302e38203235352e3235352e32e3
:1009fc0035352e30200d0a004e6f2073756368203c
:100a0c00696e746572666163652069732075700d1b
:100a1c000a000000416e2061646472657373207378
:100a2c0065727669636520697320616c72656164b7
:100a3c00792072756e6e696e672e2053746f7020fc
:100a4c00444843502c205a434c4c2c206574632e44
:100a5c002066697273740d0a00000000496e76619d
:100a6c006c6964204950206d61736b2073747269da
:100a7c006e67200d0a000000737563636573730065
:100a8c006661696c6564000055736167653a207333
:100a9c006574646e7320312f32203c696e746572fc
:100aac00666163653e203c782e782e782e783e2049
:100abc000d0a000045783a20736574646e7320311a
:100acc002065746830203235352e3235352e32356e
:100adc00352e30200d0a0000556e6b6e6f776e2030
:100aec00444e5320696e6465780d0a00536574207a
:100afc00444e532025642061646472657373202511
:100b0c00730d0a006e6f7420676976656e000000c5
:100b1c004e6f6e65000000006661696c000000009d
:100b2c0055736167653a202573203c696e74657254
:100b3c00666163653e203c6f6e2f6f66662f726533
:100b4c006e65772f726571756573742f696e666f3c
:100b5c003e200d0a0000000045783a2025732050f5
:100b6c0049433332494e54206f6e200d0a00000069
:100b7c00556e6b6e6f776e20696e7465726661630d
:100b8c00650d0a006f6e00006f66660072656e651b
:100b9c00770000007265717565737400526571752c
:100bac00657374206e6565647320616e20495020f6
:100bbc00616464726573730d0a000000696e666f80
:100bcc000000000044484350207374617475733afc
:100bdc002025642028202564203d3d20426f756e21
:100bec0064292c2074696d653a2025640d0a000077
:100bfc0044484350206c6561736520737461727452
:100c0c003a2025642c206475726174696f6e3a20e9
:100c1c002564730d0a000000444843502072656e31
:100c2c0065772074696d653a2025642c20726562a5
:100c3c00696e642074696d653a2025640d0a0000a4
:100c4c004448435020616464726573733a20257381
:100c5c000d0a000044484350207365727665723a61
:100c6c002025730d0a0000004448435020626f6f2a
:100c7c0074206e616d653a2025730d0a000000002a
:100c8c00444843502054696d6520736572766572d3
:100c9c00733a2025642c2025730d0a0044484350d8
:100cac00204e545020736572766572733a20256419
:100cbc002c2025730d0a0000444843503a206661ed
:100ccc00696c656420746f2067657420696e666f4b
:100cdc000d0a0000556e6b6e6f776e206f70746925
:100cec006f6e0d0a000000002573202573202573fc
:100cfc000d0a00007375636365737366756c000091
:100d0c006661696c656421007365740067657400c5
:100d1c0044656661756c7420696e74657266616396
:100d2c0065207365742025730d0a000044656661a7
:100d3c00756c7420696e7465726661636520697385
:100d4c003a2025730d0a000055736167653a2064db
:100d5c0065666e6574207365742f676574203c69d5
:100d6c006e746572666163653e0d0a0045783a20c3
:100d7c006465666e65742073657420657468300de7
:100d8c000a000000656e61626c65640064697361e1
:100d9c00626c65640000000055500000444f574ed3
:100dac000000000052656164790000004e6f7420f1
:100dbc00526561647900000055736167653a206e75
:100dcc006574696e666f0d0a0000000045783a2064
:100ddc006e6574696e666f0d0a0000002d2d2d2d49
:100dec002d2d2d2d2d2d20496e7465726661636538
:100dfc00203c25732f25733e202d2d2d2d2d2d2d93
:100e0c002d2d2d200d0a0000496e746572666163ec
:100e1c006520697320646f776e0d0a00486f7374d8
:100e2c00204e616d653a202573202d204e424e5385
:100e3c0020656e61626c65640d0a00004950763461
:100e4c0020416464726573733a2025730d0a0000a7
:100e5c004d61736b3a2025730d0a00004761746570
:100e6c007761793a2025730d0a000000444e533106
:100e7c003a2025730d0a0000444e53323a20257354
:100e8c000d0a00004d414320416464726573733a4e
:100e9c002025730d0a0000006468637020697320bc
:100eac0025730d0a000000004c696e6b20697320dd
:100ebc0025730d0a000000005374617475733a2099
:100ecc0025730d0a0000000064656661756c742062
:100edc004950206164647265737300002573206946
:100eec0073204f4e0d0a0000646863700000000010
:100efc0055736167653a202573203c696e74657281
:100f0c00666163653e203c6f6e2f6f66663e200dfa
:100f1c000a000000556e6b6e6f776e2073657276eb
:100f2c006963652025730d0a000000003a20737474
:100f3c0061636b20636f6d6d616e64730000000004
:100f4c0074637069700000004661696c656420749c
:100f5c006f2063726561746520544350495020437f
:100f6c006f6d6d616e64730d0a000000706f6f6cb5
:100f7c000000000065787465726e616c0000000002
:100f8c006e6574696e666f003a20476574206e65f5
:100f9c0074776f726b20696e666f726d6174696fb6
:100fac006e0000006465666e657400003a2053653f
:100fbc00742f4765742064656661756c7420696e66
:100fcc0074657266616365003a204448435020633f
:100fdc006c69656e7420636f6d6d616e6473000077
:100fec007a636c6c000000003a205475726e205ac3
:100ffc00434c4c206f6e2f6f6666000073657464f3
:10100c006e7300003a2053657420444e5320616483
:10101c00647265737300000073657469700000007e
:10102c003a2053657420495020616464726573736f
:10103c0020616e64206d61736b00000073657467d2
:10104c00770000003a20536574204761746577611e
:10105c007920616464726573730000007365746257
:10106c00696f73003a2053657420686f737427732b
:10107c00204e657442494f53206e616d650000002f
:10108c007365746d616300003a20536574204d41a3
:10109c00432061646472657373000000696600002c
:1010ac003a204272696e6720616e20696e746572b7
:1010bc00666163652075702f646f776e00000000a9
:1010cc00737461636b0000003a20537461636b208e
:1010dc007475726e206f6e2f6f6666006865617036
:1010ec00696e666f000000003a20436865636b20f0
:1010fc006865617020737461747573006d616369e8
:10110c006e666f003a20436865636b204d41432047
:0c111c007374617469737469637300007c
:020000040000fa
:101128002de9f04f2ded048b0f219bb0202018f0f6
:10113800fbfb002800f08680dff800b3dbf8003006
:10114800002b7fdd9fedb28bdff8f4a29fedb29a02
:10115800b24c002794f8ce30012b6cd0023b102bf8
:1011680000f2da86dfe813f0a003d103b00202032d
:10117800c202260213021100d201f0016e013101f0
:101188001e010b019b0083007300237cd4f8c4204c
:10119800012b556800f03b85022b08d1b4f93800c3
:1011a80016f072f94ff6ff73d4f8c42023879b4bcf
:1011b8001268e31adb1003ebc30103eb4103c3eb33
:1011c800432303eb83435e42d2f8048094493246ba
:1011d8002846c04794f8d120002340f2b45040f28a
:1011e800be51012ac4e90a33c4e90c33c4f8943067
:1011f80084f8cd30c4e92233c4e92633c4e928335e
:10120800c4f8a83084f8d030c4f8b43084ed088b22
:10121800a4f8d200e16004f1ce08d4f8c43000f09c
:10122800d2841b685b687f49284632469847404607
:10123800012116f0cdfcdbf8003001379f4204f1a4
:10124800d80487db1bb0bdec048bbde8f08f2046cb
:1012580011f0b6f8b4f93c0017f04cfedbf800309a
:1012680001379f4204f1d804fff674afeae7227d04
:10127800b4f93c000b2107f0fbfe204607f0d8fb31
:10128800012800f0be850228d5d1122104f1ce0034
:1012980016f09efc19f08effc4f88c00cbe7d4f84a
:1012a800c430618a5d6804f1440201201bf070fbc0
:1012b800421ca08704f1ce0600f075845a4a4ff408
:1012c8008071002315f032fce268b4f93c00052176
:1012d80007f0cefe30b9d4f8c43054491b6828460c
:1012e8001b68984702220621b4f93c0007f0c0feab
:1012f80030b9d4f8c4304e491b6828461b68984753
:10130800d4f8c810b4f93c0014f016ff05a9b4f9d4
:101318003c000ff0a3fdd4f8c430bdf85a201b6878
:101328004449a4f87e2028461b689847608a94f8a8
:101338004710d4f8c43094f846201b680092cde9d1
:10134800011094f844203c4928465d6894f84530db
:10135800a8473046112116f03bfc19f02bffd4f8b2
:101368008430c4f888000344c4f89030dbf80030b7
:1013780001379f4204f1d804fff6ecae62e720463d
:1013880011f01ef8b4f93a0016f07ef84ff6ff7324
:101398006387dbf8003001379f4204f1d804fff679
:1013a800d9ae4fe7204607f043fb012800f005853a
:1013b80002287ff440af0f2104f1ce0016f008fc9c
:1013c80019f0f8fec4f88c0035e794f8cf30012bfb
:1013d80000f06684d4f8c430b4f93a005e6818f0b6
:1013e80063f8002800f04284b4f93a0018f0d4faff
:1013f80019f0e0fed4f88430c4f8880003440e21c4
:1014080004f1ce00c4f8903016f0e2fb13e700bff9
:10141800000000000000000000007a4418200020ae
:10142800f03400005435000091c20100003600007d
:1014380028360000283100005036000034290020ea
:1014480034000020d4f8c430618a5d68002201208d
:101458001bf016f8431c608704f1ce0600f08e835b
:101468000023ba4a4ff4007115f0a6f9d4f8803079
:10147800002b40f0988404f1440300220121b4f9c0
:101488003a0016f065fed4f8c430b1491b684ff431
:1014980080621b68a4f87e2028469847608a94f8e2
:1014a8004710d4f8c43094f846201b680092cde960
:1014b800011094f84420d3f80480a64994f84530e4
:1014c8002846c04730460d2116f082fbd4f8b820d4
:1014d800b4f93a0003210ef097fb30b9d4f8c430c0
:1014e8009d491b6828461b689847b4f93a0016f0ce
:1014f8001ffb19f05ffedbf80030c4f8ac000137c1
:101508009f4204f1d804fff625ae9be6d4f8c80044
:1015180019f0a4ff032805d004f14401d4f8c80049
:1015280017f048fe04f1ce000b2116f051fb19f01c
:1015380041fedbf80030c4f8ac0001379f4204f1eb
:10154800d804fff607ae7de694f8cf50d4f8c4303f
:10155800012d5e6800f02b83d4f8c80019f07effd7
:10156800032800f0808494f8443003f0f003e02b63
:1015780040f09d83237c012b00f07b84022b7ff4b9
:101588005aae0c2104f1ce0016f022fb53e694f873
:10159800cd30002b00f04b8304f1ce00092116f06a
:1015a80017fbdbf8003001379f4204f1d804fff63f
:1015b800d1ad47e6d4f8c430b4f938005e6817f006
:1015c8007ff80546002800f03a83a36a002b49d12a
:1015d800624bd4f8c40062490068e31adb1003ebdd
:1015e800c30203eb4203c3eb432303eb83435a4297
:1015f80043683046984719f0ddfda26ac4f89c207c
:101608000346b4f93800c4f88830c4f8a83019f093
:10161800f7fa1af085fdd4f8c430628a1b68029282
:10162800010ec0f30742cde90021c2b2d3f804800d
:101638004c49c0f307233046c047b4f8640094f817
:101648004710d4f8c43094f846201b680092cde9be
:10165800011094f84420444930465e6894f84530b7
:10166800b047a36ad4f8942001330132c4e90a339d
:10167800c4f89420284619f00ffe02460b46d4e918
:10168800080108f047ffc4e90801b4f93830332de0
:101698004ff034025146184600f21a822a460ff0db
:1016a80097f9a36a002b40f0578394f8cf30012ba9
:1016b8007ff4c1ad082104f1ce0016f089fa19f0c3
:1016c80079fdc4f88c00b6e5b4f93c0017f032fc9b
:1016d800002840f01e8294f8cf3004f1ce00002b91
:1016e80000f02582092116f073faa4e594f8cf30aa
:1016f800012b3ff451afb4f9380017f0d5fe00289c
:101708003ff499ad05a9b4f938000ff0fffe04f1d4
:1017180040060df1140c0df1440e65460fcd7545cc
:1017280030607160b260f360ac4606f11006f4d127
:10173800bce803003060716004f1ce00072116f0a8
:1017480047fab4f9380018f027f974e57dc20100aa
:1017580028310000883600000036000018200020dc
:10176800c434000078320000ac32000094f8cd3068
:10177800002b00f05482b4f93c0017f0dbfb05465f
:10178800002840f0c68194f8cc305a1c0a2b84f803
:10179800cc203ff601af8021b4f93c001bf04af998
:1017a80000283ff448ade36a8af804505b421bba4c
:1017b800caf800306ff07f03d4e908018af80c30ca
:1017c8008af805508af806508af807508af80850af
:1017d8008af809508af80a508af80b508af80d508e
:1017e8008af80e508af80f508af810508af811506b
:1017f8008af812508af8135019f03cfd00bacaf85a
:10180800140019f0e9f8d4e922239b1ab3fbf0f28b
:1018180000fb123307ee903a07ee100af8ee677aeb
:10182800f8ee476a67ee897ad4e90c0187eea67a62
:10183800e36a8af82c5006ba18ba12ba09bacaf872
:101848001820caf82410caf828003422c149b4f96b
:101858003c008af82d508af82e5067ee097a8af8eb
:101868002f50fceee77a8af8305017ee903a1bba00
:10187800caf81c308af831508af832508af8335046
:10188800caf8206019f094f9294605a84c221af0e4
:1018980067fe05a94c22b4f93c0019f089f9b4f99e
:1018a8003c0009f0b5fdc6e4d4f8c43094f8d12062
:1018b800d3f8048004f1ce06002a00f09581257c37
:1018c800012d00f05782022d40f06a82b4f93800e9
:1018d800431c00f03182a04a4ff40071002314f039
:1018e8006bffd4f8bc20b4f9380002210ef08cf953
:1018f80030b9d4f8c43099491b6840461b689847ea
:101908003046062116f064f995e4954be31adb108e
:1019180003ebc30203eb4203d4f8c420c3eb432315
:1019280003eb8343d2f80490c3f10008b4f93c00f8
:1019380017f000fb0b2805467bd90c228549b4f922
:101948003c000ef06dfd0c2840f0f680daf80060df
:10195800d4f8943036baa662002b7bd1002ec0f2a0
:10196800d880d4f8c4307f491b6801225b68c4f86a
:101978009420484642469847a26a5ab1d4f8c430df
:1019880079491b6848465b689847236ba26a013b04
:101998001344236305a9b4f93c00e2620ff05efa30
:1019a800b4f93c0019f08afd1af0bafbd4f8c43037
:1019b800628a1b680292010ec0f30742cde900213a
:1019c800c2b25e686949069dc0f307234846b0471e
:1019d800d4f8c430bdf858201b680292290ec5f30c
:1019e8000742cde900214846eab261495e68c5f37d
:1019f8000723b047bdf858306564a4f8643019f07f
:101a0800d9fba16ad4f89420236bc4f8a03005460a
:101a1800b4f93c00c4f88850c4f8a850c4e9262199
:101a280017f0a8fab4f93c0017f084fa0b28054619
:101a380083d8d4f89430002b40f05c8194f8cf30f0
:101a4800012b7ff4f8ab042104f1ce0016f0c0f8a6
:101a5800fff7f1bb0133c4f89430284619f01cfc99
:101a680002460b46d4e9080108f054fd002ec4e9eb
:101a780008013edbe36a5a1cb24237d0b3422fdb7f
:101a8800636b03f1010363630ad1d4f8c4303949a5
:101a98001b6848461b689847d4e90a63b34223dbae
:101aa8000c3dadb2002d3ff441afb4f93c30332dbd
:101ab8004ff034025146184603d82a460ef0b0fcbf
:101ac80034e7343dadb20ef0abfc002dedd12de77f
:101ad800343dadb20ef07cff002d7ff4d6ade0e5cd
:101ae800236bb21a1a442263e662d9e7b342ccd018
:101af800d4e77642a66219f05dfb0023c4f88c0097
:101b0800042104f1ce0084f8cc3016f061f8a66afe
:101b1800b0e7b4f93c0017f02dfadbf800300137d4
:101b28009f4204f1d804fff615abfff78bbb0521e4
:101b380016f04ef8fff77fbbd4f8c4300e491b6887
:101b480048461b689847042104f1ce0016f040f877
:101b5800fff771bb340000207dc20100dc330000b8
:101b680018200020c43400006034000078320000df
:101b7800ac3200008c34000040340000d4f8c4308b
:101b8800cb491b6828461b6898473046012116f048
:101b98001ff8dbf8003001379f4204f1d804fff644
:101ba800d9aafff74fbbd4f8c430c249e9e71b688c
:101bb800c1491b6830469847294604f1ce0016f003
:101bc80007f8fff738bb1b6894f8cf205b68002a3a
:101bd8007ff429ab28463246b84998474046022147
:101be80015f0f6fffff727bb1b68b5491b68404691
:101bf80098473046012115f0ebffdbf8003001373c
:101c08009f4204f1d804fff6a5aafff71bbbb4f95d
:101c18003c0017f06ff9d4f8c420fff7c8ba0221c6
:101c2800204608f097fd012384f8cd30a3e5022172
:101c3800204608f08ffd012384f8cd30ace4b4f9d8
:101c4800380017f0a9fe30b9b4f9380018f0a6fd2d
:101c580000283ff426ad19f0adfa0821c4f88c002d
:101c680004f1ce0015f0b4fffff7e5ba19f0a2fab7
:101c7800d4f8ac30c51a18f0affe00eb80008542ee
:101c88007ff6d9aab4f93a0015f0fefbd4f8c430af
:101c98008c491b684ff6ff721b686287304698476d
:101ca8000f2104f1ce0015f093fffff7c4ba04f139
:101cb800780204f14401d4f8c80013f02dff00287d
:101cc80000f00a8194f87d5094f87c0094f87b1019
:101cd80094f87a20d4f8c4301b68cde90021cde906
:101ce800020594f878205d68774994f87930304691
:101cf800a8473fe419f05efad4f8a8302268c31a5e
:101d080093427ff69baed4e925239a4240f0fd80aa
:101d1800d4f8c4306d491b6848461b68984719f0c9
:101d280049fa0023c4f88c00042104f1ce0084f899
:101d3800cc3015f04dff81e604f18002618a012064
:101d480011f06cfc451c20877ff4c5add4f8c43075
:101d580057491b68404616e719f02cfad4f8a83002
:101d68002268c31a93427ff6a0ac0021204608f0ef
:101d7800f1fc9ae4618a04f1800228461af004fe14
:101d8800411ca08700f087800023514a4ff48071de
:101d980014f0ccfe3046032115f01afffff74bbaba
:101da8001b684c4922e704f18003628ab4f93a00bf
:101db80001210ef01ffdfff75ebb3422542150466f
:101dc8001af0cefb0ee0332d86bf34259bb20023dc
:101dd8002a465146b4f93a00a4f8b0300bf010fa8c
:101de800854205d1b4f8b050a5f13403002dead1ed
:101df800b4f93a0016f09afe204609f0cffffff733
:101e08001aba3422552150461af0aafbb4f8b05039
:101e1800002d7fd0002609e0b4f93c001ffa8cf5ac
:101e28009eb218f0c5fe342810d17db1332da5f12e
:101e3800340c06f134034ff034025146ecd82e44ea
:101e48002a46b4f93c00b6b218f0b2feb4f93c0028
:101e580009f0defaa8b902460146b4f93c0015f0cb
:101e68003ffefff7e8b90022a267a4f87c20fff73d
:101e780081bb102104f1ce0015f0aafe237cfff7e8
:101e88007dbbb4f8b03020469e1ba4f8b06009f0c2
:101e980085fffff7d0b9d4f8c43006491b6840461f
:101ea8001b6898472946304615f092fefff7c3b9dc
:101eb800b8330000043400007435000020350000f9
:101ec80094330000c0360000d4350000ac34000064
:101ed80091c201002834000019f06cf9d4f8ac3034
:101ee800c51a18f079fd00eb800085427ff6a3a99a
:101ef800d4f8c4300c491b6830461b68984719f061
:101f080059f9c4f8ac00fff796b90021204608f04b
:101f180021fc93e52e4699e7012104f1ce0015f046
:0c1f280057fefff788b900bf9435000099
:020000040000fa
:101f34002de9f04f0f2191b00a2017f0f7fcc407e8
:101f440006d4814619f0020f28d111b0bde8f08ff4
:101f5400804614e0d4f81ca09af80c301b09042b1a
:101f640015d9b5eb830f12db628c12f4007200f00a
:101f7400c9806ff00e0120460a2217f0ebff0a20f9
:101f840018f0e2fb044628b1258c132de2d86ff03b
:101f94000d01f0e7c14619f0020fd6d0dff8d08466
:101fa400d8f80030002bd0d00025dff8c894dff833
:101fb400c8a42b46d9f8002052f823400cb394f857
:101fc4006e300b2b1dd094f8363013f0c0061abfb8
:101fd400df09102637465a075bd418072bd494f828
:101fe4006e30052b17d096bb94f8361011f0020b07
:101ff40038d194f83730590603d594f86e30032b52
:102004005fd00135d8f800202db295422b46d1d3ac
:1020140011b0bde8f08f19f0cff8236bc01a002877
:10202400e1db01221421204603f096fd2046002125
:102034000af048fae5e719f0bff8e36ac01a002885
:10204400cddb94f86e30052b00f08c8110263146e0
:1020540087f00102204603f07ffd94f8361011f05a
:10206400020bc6d019f0a8f8636ac01a0028c8dbae
:1020740094f86e104b1e082b00f2ce81dfe813f0ab
:10208400b601bf01a8011300cc017a01cc01cc0137
:10209400130019f091f8a36ac01a002894f8363096
:1020a400a8bf102699e794f87030042b40f2b08151
:1020b400002f40f0428401221421204603f04cfdfd
:1020c40081e119f079f8636ac01a002899db94f861
:1020d400712094f87c309a4200f06e830222102121
:1020e400204603f039fd19f067f8b4f86860074634
:1020f40018f074fc00fb06f0aafb003007eb90100c
:1021040060627ee7a669d6e903314ff4c0600d939f
:102114000e916bba0c21adf83c000da8adf83e3021
:1021240014f0f4ff628c06f11001c34307915107c8
:102134009bb240f110812a465146204611f036fcec
:102144000390039b002b40f02b84504618f010f9a9
:10215400d4f81c909af80c30b9f8022005921b09a7
:102164009b000693002a3ff404afb389b6f80eb07f
:10217400b9f80020be4908929b44059b0968934422
:102184008bea030b1ffa8bf3049300293ff4f1ae9f
:10219400b84b039ad3f800c0d4f828e0134693460a
:1021a400274606e0a64513d001331bb28b421a46dc
:1021b40039d25cf82220002af6d092f86e000b285f
:1021c400f2d092f86f40012ceed8146c002ce9d1b7
:1021d400b2f86a40f8b10498a042e5d1d9f80040b9
:1021e400906d8442e0d1946bf0688442dcd1012389
:1021f40082f86f30079bc2f840e03c46002b00f0a9
:102204006a8492f86d303169d16343f0100382f827
:102214006d3093462ce00598a042c5d1bbf1000f68
:1022240008bf9346c0e73c46bbf1000f3ff4a1aea4
:10223400f368cbf8383001238bf86f30079bcbf869
:1022440040e043b19bf86d203369cbf83c3042f059
:1022540010038bf86d30049aabf86a20089adbf807
:102264000030abf85820059aabf85a20cbf8103060
:102274002269daf808009389049006989bf83710cd
:102284009af80d70daf804601b1a93814a0607d590
:102294009bf8363000228bf871209a0740f1d580e4
:1022a4009bf86d309bf86e106ff300038bf86d3064
:1022b400002900f0e982012900f09e82069b143572
:1022c400ed1aadb2a5f114039bb2059317f0010307
:1022d40014bf133d059d0793dbe9072018bfadb27a
:1022e400bb0744bf0135adb2824280f0a180a0ebb0
:1022f400020909f1ff391ffa89f30693dbf850301c
:10230400a6eb0309002d00f0f982069b002b00f0d8
:10231400fe82b9f1000fc0f22683994506d3069bcd
:10232400a3eb050302db994500f3f18217f0060fd6
:1023340040f00683f80640f1a8808b1e072b00f2bc
:102344006081dfe813f0e501bc00bc00bc00bc0008
:102354005e01bc009b001a462946504614f0d6fe86
:102364000390eee618f028ff236bc01a0028fff64e
:102374006dae56e694f87030042b3ff699aea26c1d
:1023840000271021d4e903060133520084f8703089
:102394008642a6eb0003a2649bb204d2d4e9006295
:1023a400921b13449bb2e26cb4f85c602061d21ab5
:1023b4003344e264a4f85c300022204603f0ccfbf2
:1023c400002f3ff41eae204600210af07bf818e6e9
:1023d40094f87030042bd2d9042284f86e20bfb94b
:1023e40020460122112103f0b7fb0ae694f870306d
:1023f400032b00f29082a26c00270221c2e794f81a
:102404007030022b00f26b82a26c00271221b9e714
:10241400a26c00271121b5e7002e3ff4f2ad31463e
:10242400002f40f04b842046012203f095fbe8e5a1
:10243400a2eb0009dbf81830dbf814209b1aa3eb9d
:1024440009091ffa89f3069358e718f0b5febbf89b
:1024540068300593814618f0c1fa059b00fb03f030
:10246400054ba3fb003009eb9010cbf8240017e7d1
:10247400ec280020e8280020d34d6210dbf84c3013
:10248400049a01339a4200f05781002019f0fcfcb1
:1024940001460020bbf87250dbe91d671af00af808
:1024a400039b15ea030200f08481002e00f0818171
:1024b400a16abbf934003b46b04702215be5dbf877
:1024c4004c3008939e46dbf80830dbf81000099383
:1024d400191a03d5dbe900239b1a1944049b089ab3
:1024e4009b1a5b1a002b14ddbbf86c2002f40172fa
:1024f400042a40f06482012b40f061829bf86d3025
:10250400089a43f0020302f1010ecbf84ce08bf879
:102514006d30dbf80cc0a0eb0c0360450b93a3eb10
:102524000e0280f07d82dbf804300a931946dbf852
:102534000030cb1a04990893cb181a44002a40f3ac
:102544004782089b9342c0f043829bf86c309bf80f
:10255400361023f030038bf86c30089b6244c318a8
:102564006ff345119a42cbf80c208bf8361040f2e9
:10257400ce82d31a7344cbf84c30cbf810200a9b8c
:102584009a420cd3dbf81000089bd21acbf80c202b
:102594000a9b984203d3089bc01acbf810009bf8ff
:1025a4006e30dbf80cc0032b00f0ab82082b00f07c
:1025b400a882099b634500f07d82dbf84c300893c8
:1025c400baf80e30bbf8662008999a42049a38bfcc
:1025d400abf866301344bbf85c205b1a9bb232b98b
:1025e4002bb19bf8362042f040028bf836209bf842
:1025f4006e10abf85c30042900f04982062900f023
:102604008b82bf063ff541afa1f10803012b7ff692
:102614003caf06293ff439af0598002841d09af819
:102624000c30b9f1000f4fea1313dbe906214fea2e
:10263400830c40f39082059b069803eb09078742bd
:1026440005dda0eb090083b2059303eb0907c81964
:102654000ceb0a0382420c9380f02d83531a01334e
:10266400b3eb090300f118831ffa83fa01204944ec
:1026740053460caa0090204611f08efd059b06904f
:1026840001220092a3eb0a039bb20caadbf81410fc
:10269400204611f081fd069b034498b2059b8342ba
:1026a4004fd0a5b19bf86e30033b022b84bfdbf8ff
:1026b4001c30cbf820309bf83630df0600f1c7829f
:1026c40043f0100318078bf8363040f1ac82079bb7
:1026d400002b3ff4daaedbf8502035440132aa4235
:1026e4007ff4d3aecbf85020039a9bf837109bf8b5
:1026f4006e3042f48060023b41f0040281b20391e7
:102704008bf83720032b3dd8dfe803f04a4234111d
:10271400dbf84c30049a08939a429e4640f0bf81fd
:1027240003238bf86e304ff480730393cbe60022bf
:102734001021584603f010fa0021584609f0c2fe51
:10274400a3e6dbf854305a1c00f0cb82bbf86020bf
:1027540099451a4480f0b882974205d8bb4203d801
:10276400a2eb090293b20593059babf86030cbf85a
:10277400549096e7dbf84c30049a9a42d7d006235b
:102784008bf86e3001221021584603f0e5f97ce6ff
:102794009bf86d300822d9078bf86e20f2d574e6c9
:1027a40009238bf86e3001221121584603f0d4f925
:1027b4006be60221fff7dfbb204694f8366011f088
:1027c4003ffb94f8363043f0010306f00106594606
:1027d40084f836304ff48052204614f00dfc002e5d
:1027e4007ff40fac94f836300a2266f3000384f8c1
:1027f400363084f86e2004e478073ff546ae17f0cf
:10280400100905d0dbf84c50049bab4240f0b0807b
:10281400b9077ff53aaebaf80e30abf86630013638
:10282400abf85c30cbf85060504610f0adfe9bf82e
:102834003730abf86200c3f30113002b00f0b4800f
:1028440013f1ff3318bf01239bf86d2063f3c71204
:102854008bf86d200122b9f1000f38d010215846b1
:1028640003f07af99bf8373003228bf86e205a066e
:1028740000f1fc809bf836306ff341038bf836305f
:102884004ff48073039300e617f004057ff455af0b
:10289400fb0662d417f002013ff44faf0136cbf8c8
:1028a4005060504610f070fe9bf83730abf8620071
:1028b400c3f30113002b65d013f1ff3318bf0123b9
:1028c4009bf86d2063f3c7128bf86d20012212214f
:1028d400584603f041f902238bf86e30d5e594f89d
:1028e400362012f001027ff4e3ab002f55d12046cd
:1028f4000122022103f030f9fff783bbb9f1000f85
:102904003ff414ad03db069b9945fff60fad7e073c
:102914003ff5bbad36e7042384f8703018f05ef859
:102924004ff47a7303fb00f2aafb023292091201fc
:1029340094f870300027022124e5a26c142121e5cb
:102944007d077ff5f9ae9bf8373043f002038bf82f
:1029540037304ff400630393eee6049bcbf84c301e
:102964002a460421e5e605eb0903002bcfdddde46f
:102974000a46cbf84c300421584603f0edf8cbf866
:102984004c5082e5dbe9002300eb40009b1ab3ebdb
:10299400500fb4bf0123002392e71746a26cf1e461
:1029a4006ff00901fff7e7badbe9002300eb400011
:1029b4009b1ab3eb500fb4bf0123002344e700225a
:1029c4001021584603f0c8f85fe560453ff4f1adc7
:1029d4009bf86c30da061cd59b0614d50b9b60451e
:1029e400aeeb0301cbf84c1005d2dbe900239b1ab4
:1029f400c91acbf84c109bf83630cbf810c043f012
:102a040080038bf836309bf86c3043f020038bf84e
:102a14006c309bf86c3043f010038bf86c30c8e5d5
:102a2400049b1a44002ad0dddbf804300a931946cb
:102a3400dbf80030cb1a9a420893c6d89bf86c3066
:102a44009bf83610624423f030036ff34511904233
:102a5400cbf80c208bf86c308bf8361057d2101a48
:102a64007044cbf84c00cbf8102088e518f0a4fb98
:102a7400bbf86850064617f0b1ff9d4a00fb05f30a
:102a8400a2fb032306eb9313cbf82430f2e6049b5a
:102a9400089a934246d0bb067ff5beadf5e4cbf869
:102aa4004c2004210122584603f056f8089bcbf829
:102ab4004c30eae49bf83730d8070fd4590600f1bc
:102ac400d7809bf83630dbf84c2008926ff3410333
:102ad4008bf8363074e59346fff7cabbdbf84c300d
:102ae400049a08939a427ff46bad9bf86c305a07b2
:102af4007ff566adbbf8363023f48173abf836301e
:102b04005ee5039b43f0040293b2039351e50a9bf1
:102b14009a42fff43dad37e5049b089a93427ff453
:102b2400b4ac09e69bf86c305b07b4d518f044fbf1
:102b3400089017f053ff089b41f288324ff47a71e2
:102b440002fb00f2b2fbf1f205211344cbf8303062
:102b54008bf86e109fe7069b484480b2834228bfdf
:102b640003461f46c819aceb0903534482420c9335
:102b740073d2521a02f101091ffa89fa012053464d
:102b84000caa0090204611f007fb01220092a7eb4b
:102b94000a0305909bb20caadbf81410204611f02e
:102ba400fbfa059adbf8143002441046a7eb09023d
:102bb40080b2134487427ff474ad9bf86e20dbf837
:102bc4005010cbf81c30033a3944022acbf8501089
:102bd40004d8039a42f4007292b20392dbf85420b0
:102be400501c3ff45eadbbf86000d21b8018cbf8dc
:102bf400542013d4002a3ff754addbf818200344c3
:102c040001449342cbf85010cbf81c3006d9dbf8c2
:102c14001410521ad2431344cbf81c304ff0ff3334
:102c2400cbf854303de543f008028bf8362018f019
:102c3400c3fa074617f0d2fe642303fb00f34ff4f4
:102c44007a72b3fbf2f33b44cbf82c303fe501221c
:102c54001021584602f080ff39e5012300930caaa5
:102c64003b46204611f098fadbf81c303b44a1e7c0
:102c740018f0a2fabbf868300893099017f0aefe7a
:102c8400089b099a00fb03f34ff47a71b3fbf1f349
:102c94001a44cbf8242014e7dbf8140009f1ff33bd
:102ca400121a9a1a1144012300930caa059b204678
:102cb40011f072faf2e401234944f5e794f8703014
:102cc400a26c0027fff75ebb97427ff6eaac914502
:102cd4003ff6e7ac059aa9eb03031a44abf860206e
:102ce400dfe4059bcbf85490abf86030d9e400bf27
:042cf400d34d62104a
:020000040000fa
:102cf8002d7478002d7278002d6900002d2d696ed5
:102d08006465780055736167653a20697065726615
:102d180073203c2d74782073697a653e203c2d72af
:102d2800782073697a653e203c2d6920696e646558
:102d3800783e0d0a000000000d0a69706572663a57
:102d480020496e76616c69642073657373696f6e70
:102d5800206e756d6265722e204d696e3a20302c9a
:102d6800204d61783a2025640d0a0000697065726b
:102d780066733a2030203c2073697a65203c2036ff
:102d8800353533360d0a00006970657266733a206e
:102d98004f4b2c20696e7374616e63652025642027
:102da80074782073697a652069732025640d0a0098
:102db8006970657266733a204f4b2c20696e737484
:102dc800616e63652025642072782073697a6520b6
:102dd80069732025640d0a0069706572666b3a2074
:102de8005573696e6720696e64657820300d0a0036
:102df80055736167653a2069706572666b203c2d72
:102e08006920696e6465783e0d0a00000d0a6970d4
:102e18006572662073657373696f6e3a206e6f749e
:102e28002073746172746564210d0a000d0a69705b
:102e38006572663a20747279696e6720746f2073c0
:102e4800746f7020697065726620696e7374616e44
:102e580063652025642e2e2e0d0a00002d610000ca
:102e68006970657266693a207573652061207661bc
:102e78006c69642049502061646472657373210d24
:102e88000a0000006970657266693a20556e6b6ebb
:102e98006f776e20706172616d657465720d0a00de
:102ea80055736167653a20697065726669202d619e
:102eb8002061646472657373203c2d6920696e64b7
:102ec80065783e0d0a0000000d0a69706572666932
:102ed8003a2063616e6e6f74206368616e67652067
:102ee8007468652069702061646472657373207703
:102ef80068696c652073657373696f6e3a20256421
:102f08002072756e6e696e67210d0a0069706572b0
:102f180066693a204f4b2c207365742074686520cd
:102f28004950206164647265737320746f20696e00
:102f38007374616e63653a2025640d0a0000000011
:102f4800202020202d205b25326c752d2025326c09
:102f580075207365635d2025336c752f2025336cd0
:102f680075202825326c7525252920202020253418
:102f78006c75204b6270730d0a0000002020202021
:102f88002d205b302e302d20256c752e256c75205c
:102f98007365635d2025336c752f2025336c752090
:102fa8002825326c752525292020202025346c758c
:102fb800204b6270730d0a0069706572663a206969
:102fc8006e7374616e636520256420636f6d706c29
:102fd80065746564202e2e2e000000002d730000fd
:102fe8002d2d736572766572000000002d75000046
:102ff8002d2d7564700000002d6200002d2d62617a
:103008006e647769647468004d0000004b0000002e
:103018000a476976656e20696e2042573a20256c0a
:10302800752b256c753d256c750000002d7800000a
:103038002d2d786d69747261746500002d63000030
:103048002d2d636c69656e74000000002d740000fe
:103058002d2d74696d6500002d6e00002d2d6e7587
:103068006d0000002d5300002d2d746f73000000bb
:103078000a476976656e20544f532076616c7565f2
:103088002069732025642c206d547970654f665330
:103098006572766963653a25640000002d4d00006d
:1030a8002d2d6d73730000002d2d696e7465727679
:1030b800616c00002d7000002d2d706f727400007f
:1030c8002d6c00002d2d6c656e0000006970657216
:1030d800663a20546865206d696e696d756d206467
:1030e8006174616772616d2073697a652069732004
:1030f80025640d0a0000000069706572663a205563
:1031080073696e67207468652064656661756c74a0
:1031180020696e74657266616365210d0a0000009e
:103128002d2d2d2d2d2d2d2d2d2d2d2d2d2d2d2dc7
:103138002d2d2d2d2d2d2d2d2d2d2d2d2d2d2d2db7
:103148002d2d2d2d2d2d2d2d2d2d2d2d2d2d2d2da7
:103158002d2d2d2d2d2d2d2d2d0d0a00697065720b
:10316800663a20536572766572206c697374656e71
:10317800696e67206f6e200055445000544350001c
:1031880020706f72742025640d0a00000d0a6970a2
:103198006572663a20416c6c20696e7374616e6367
:1031a800657320627573792e205265747279206c6c
:1031b80061746572210d0a000d0a69706572663abc
:1031c800205374617274696e672073657373696fd5
:1031d8006e20696e7374616e63652025640d0a0044
:1031e800697065726620696e7374616e6365202507
:1031f800643a20547820646f6e652e20536f636b99
:10320800657420636c6f7365642e0d0a00000000fe
:1032180069706572663a20696e7374616e636520c1
:10322800256420636f6d706c657465642e0d0a00eb
:1032380069706572663a20536f636b6574207365b5
:103248006e64206661696c65640d0a000d0a697018
:103258006572663a20696e7374616e6365202564d1
:103268002073746172746564202e2e2e0d0a00007e
:10327800202020202d204c6f63616c202025752e86
:1032880025752e25752e257520706f72742025756d
:1032980020636f6e6e656374656420776974680d6a
:1032a8000a000000202020202d2052656d6f7465d3
:1032b8002025752e25752e25752e257520706f7283
:1032c800742025750d0a0000202020202d2054612f
:1032d800726765742072617465203d20256c6420d6
:1032e8006270732c20706572696f64203d20256cb4
:1032f80064206d730d0a0000202020202d2d2d2d17
:103308002d2d2d2d2d2d2d2d2d2d2d2d2d2d2d2de5
:103318002d2d2d2d2d2d2d2d2d2d2d2d2d2d2d2dd5
:103328002d2d2d2d2d0d0a000d0a69706572663a36
:10333800205761726e696e672c2054435020736564
:103348007276657220646973636f6e6e656374204c
:1033580064657465637465640d0a0000697065725c
:10336800663a204661696c656420746f20676574ed
:1033780020256420627974657320736f636b6574ac
:103388002054582073706163650d0a006970657276
:10339800663a20556e737570706f72746564204359
:1033a8006f6e66696775726174696f6e0d0a0000e9
:1033b80069706572663a204372656174652054438a
:1033c8005020736f636b6574206661696c65640d6a
:1033d8000a00000069706572663a20536574206fb0
:1033e80066205258206275666665722073697a6530
:1033f800206661696c65640d0a0000006970657279
:10340800663a204372656174652055445020736f95
:10341800636b6574206661696c65640d0a00000061
:1034280069706572663a2050726f746f636f6c20b2
:103438006572726f720d0a0069706572663a20557e
:103448004450204765742041727261792046616951
:103458006c65640d0a00000069706572663a202d7b
:1034680020466972737420706b74206964203d2053
:10347800256c64202873686f756c64206265203041
:10348800290d0a0069706572663a205265637620d4
:103498006475706c69636174656420706b740d0a7f
:1034a8000000000069706572663a205278207469dd
:1034b8006d6564206f75740d0a0000000d0a69704f
:1034c8006572663a20696e7374616e63652025645f
:1034d8002073657373696f6e2073746172746564a9
:1034e800202e2e2e0d0a00000d0a697065726620c6
:1034f800696e7374616e63652025643a2052782082
:10350800646f6e652e20536f636b657420636c6ff8
:103518007365642e0d0a0000697065726620696e15
:103528007374616e63652025643a2052656164791d
:1035380020666f7220746865206e657874207365e4
:103548007373696f6e2e0d0a000000006970657252
:103558006620696e7374616e63652025643a206322
:103568006f6d706c657465642e0d0a006970657204
:10357800663a20636c69656e742073657373696f4e
:103588006e20636c6f7365642e0d0a006970657236
:10359800663a2041525020756e61626c6520746fe6
:1035a800207265736f6c766520746865204d4143a1
:1035b8002061646472657373206f662072656d6f35
:1035c800746520736964652e0d0a00002020202090
:1035d8002d2052656d6f74654e6f6465204d4143b3
:1035e8003a202578202578202578202578202578e8
:1035f8002025780d0a00000069706572663a20532c
:103608006574206f6620545820627566666572205e
:1036180073697a65206661696c65640d0a0000004b
:1036280069706572663a20536574206f6620545835
:103638002071756575696e67206c696d697420669f
:1036480061696c65640d0a0069706572663a2043a9
:103658006c69656e7420636f6e6e656374696e67fe
:1036680020746f2025752e25752e25752e25752c11
:103678002055445020706f72742025750d0a000083
:1036880069706572663a20436c69656e7420636f71
:103698006e6e656374696e6720746f2025752e25bc
:1036a800752e25752e25752c2054435020706f7269
:1036b800742025750d0a000069706572663a2054f9
:1036c800435020436c69656e7420636f6e6e65634a
:1036d80074696f6e2074696d656f75740d0a0000ea
:1036e8003a20697065726620636f6d6d616e6473f0
:1036f8000000000069706572660000003a20203cf6
:1037080069706572663e20737461727420636d64bb
:103718000000000069706572666b00003a203c6921
:10372800706572666b3e206b696c6c20636d64001b
:1037380069706572666900003a203c697065726656
:103748006920616464726573733e2020696e7465d4
:10375800726661636520636d64000000697065725c
:10376800667300003a203c6970657266732074784d
:103778002f72782073697a653e2074782f727820ca
:0c37880073697a6520636d64000000bf67
:020000040000fa
:10379400502700201c00000000000000002500202d
:1037a4007000000000000000802300208000000062
:1037b40000000000000000203000000000000000b5
:1037c400e8290020d400000001000000d8720100a4
:1037d40000000000000000000000000000000000e5
:1037e40000000000000000000000000000000000d5
:1037f40000000000000000000000000000000000c5
:1038040000000000000000000000000000000000b4
:1038140000000000000000000000000000000000a4
:103824000000000000000000000000000000000094
:103834000000000000000000000000000000000084
:103844000000000000000000000000000000000074
:103854000000000000000000000000000000000064
:103864000000000000000000000000000000000054
:103874000000000000000000000000000000000044
:103884000000000000000000000000000000000034
:103894000000000000000000000000000000000024
:1038a400082b00200100000001000000ff000000c0
:1038b4003000002001000000000000005822002019
:1038c4009400000000000000d02900200200000045
:1038d400000000001420002004000000000000008c
:1038e4007c2300200400000000000000ec220020e3
:1038f4009000000000000000901a002070020000f8
:1039040000000000a42800200400000000000000c3
:10391400a82800200400000000000000ac280020bb
:103924000400000000000000b02800200400000093
:1039340000000000b4280020040000000000000083
:10394400b82800200400000000000000bc2800206b
:103954000400000000000000c02800200400000053
:1039640000000000c4280020040000000000000043
:10397400702800200c0000000000000088270020b0
:1039840018000000000000006c2700201c0000004c
:1039940000000000c828002004000000000000000f
:1039a400e22900200100000000000000cc280020d3
:1039b4000400000000000000fc2a002004000000b5
:1039c40001000000ffffffffd028002004000000da
:1039d40000000000d42800200400000000000000c3
:1039e400d82800200400000000000000d229002094
:1039f4000200000000000000dc2800200400000099
:103a040000000000e0280020040000000000000086
:103a1400e42800200400000000000000e828002042
:103a24000400000000000000ec2800200400000056
:103a340000000000d4290020020000000000000063
:103a4400d62900200200000000000000f028002019
:103a54000400000000000000f4280020040000001e
:103a640000000000f828002004000000000000000e
:103a7400fc280020040000000000000000290020b1
:103a840004000000000000000429002004000000dd
:103a940000000000082900200400000000000000cd
:103aa4000c29002004000000000000007c280020f5
:103ab4000c00000000000000d027002014000000cb
:103ac40000000000e32900200100000000000000c5
:103ad400d82900200200000000000000da2900209c
:103ae4000200000000000000102900200400000073
:103af40000000000e4270020140000000000000083
:103b040014290020040000000000000018290020ef
:103b140004000000000000001c2900200400000034
:103b24000000000020290020040000000000000024
:103b3400a027002018000000000000002429002015
:103b440004000000000000002829002004000000f8
:103b5400000000002c2900200400000000000000e8
:103b640018200020d80000000000000030290020a8
:103b74000400000000000000e4290020010000000f
:103b840000000000342900200400000000000000b0
:103b94003400002034000000000000003829002018
:103ba4000400000000000000dc29002002000000e6
:103bb40000000000de2900200200000000000000d8
:103bc4003c290020040000000000000040290020df
:103bd400040000000000000044290020040000004c
:103be40000000000f827002014000000000000007e
:103bf400e029002002000000000000004829002005
:103c04000400000000000000842600204c00000096
:103c140000000000f42a002006000000010000005b
:103c2400ffffffffffff00000024002080000000d2
:103c340000000000900000200010000000000000c0
:103c4400d02600204000000000000000942800203e
:103c540008000000000000004c29002004000000bf
:103c6400000000008024002080000000000000000c
:103c74009c2800200800000000000000e529002026
:103c8400010000000000000090100020000a000065
:103c94000000000050290020040000000000000083
:103ca400882800200c00000000000000f020002004
:103cb400c800000000000000542900200400000097
:103cc40000000000e62900200100000000000000c0
:103cd400b827002018000000000000005829002028
:103ce4000400000000000000680000200100000043
:103cf4000000000010270020400000000000000029
:103d0400b8210020a000000000000000fa2a0020d2
:103d14000200000001000000010000005c290020f6
:103d240004000000000000006029002004000000de
:103d340000000000642900200400000000000000ce
:103d44000c1f00200801000000000000682900206a
:103d540004000000000000006c29002004000000a2
:103d64000000000070290020040000000000000092
:103d7400742900200400000000000000e02a002054
:103d84000c00000001000000f4010000d007000056
:103d940001000000bc2a0020140000000100000003
:103da40008000800020001000200080000060006e6
:103db40001015400d02a002010000000010000007e
:103dc40001010000e5c9000021050100fafa000024
:103dd4006c00002019000000000000008800002092
:103de4000400000000000000002b0020040000007c
:103df40001000000aaaaaaaa782900200400000051
:103e0400000000007c2900200400000000000000e5
:103e1400802900200400000000000000702500201c
:103e24006400000000000000842900200400000059
:103e340000000000882900200400000000000000a9
:103e44008c290020040000000000000090290020bc
:103e54000400000000000000942900200400000079
:103e6400000000000c2800201400000000000000e6
:103e740020280020140000000000000098290020e1
:103e840004000000000000009c2900200400000041
:103e940000000000a0290020040000000000000031
:103ea400a4290020040000000000000034280020a1
:103eb4001400000000000000a829002004000000f5
:103ec400000000004828002014000000000000004a
:103ed4005c2800201400000000000000ac29002031
:103ee4000400000000000000b029002004000000cd
:103ef40000000000042b002004000000010000006a
:103f040004000000d4250020600000000000000030
:103f1400e72900200100000000000000b42900206f
:103f24000400000000000000ec2a0020080000004b
:103f340001000000ffffffffffffffff8c000020d8
:103f44000100000000000000b82900200400000067
:103f54000000000034260020500000000000000093
:103f6400001d00200c02000000000000bc290020fd
:103f74000400000000000000c0290020040000002c
:103f840000000000c429002004000000000000001c
:103f9400c82900200400000000000000cc290020f3
:103fa4000400000000000000000000000000000009
:020000040000fa
:103fb4002de9f04f8fb04c6a07948c6a0894446dd5
:103fc400dff8b4c3d1f800e0d44f4b680093a046a7
:103fd400846d8d68ce68019588ea0408046d0d69c6
:103fe400029608ea0408c46c4e690395a444846ddf
:103ff4008d690c96f44488ea0408046dce6904952e
:10400400e04404eb7868a446446d0d6a05968cea96
:10401400040c846d06952744446dc14ac14bdff8f6
:104024005cb3dff85ca3dff85c93bf4ebf4d0cead2
:10403400080c8cea040c009c2744bc44076d446db6
:1040440008eb3c5c87ea08072244046d07ea0c0786
:104054006740019c2244046d17440cebf73788ea4f
:104064000c022344029c3a40234482ea0802039c43
:104074001a4407ebb2228cea0703a344134083eaf1
:104084000c03d8440c9c984402eb786887ea02033a
:10409400a24403ea08037b40d4449c44049b059c4b
:1040a40008eb3c5c82ea080a99440aea0c0a8aeaa8
:1040b400020a4f4457440cebf73788ea0c032644b2
:1040c4003b4083ea080332449e18069b984c07eb56
:1040d400b6268cea07021d44324082ea0c024544ab
:1040e4001544079a06eb756587ea0603a21862442d
:1040f4002b407b4014461c44089bdff88cc205eb24
:10410400345486ea0502a3f524492240a9f14f0953
:104114004f4482ea06033b44cf6adff870923a4682
:104124000f6b09974f6b0a97d1e90e8104ebf333b8
:104134000b9185ea0401914419404e44694031448d
:10414400099e7c4f0d9203ebb12184ea0309b44428
:1041540009ea01066640654406eb050c0a9e01eb7c
:104164007c6c83ea010505ea0c053744274485ea9b
:1041740003043c44704f714d714e0ceb345481ea8e
:104184000c0b47440bea040b3b448bea010b0b9fdb
:104194009b4404ebfb3b8cea04033d4403ea0b031e
:1041a40083ea0c03294419440bebb12a0099049fb8
:1041b400644d8bea0a030e44234083ea0b03b444a0
:1041c40003eb0c060aebf6663d442c448aea06052a
:1041d40005ea0b0585ea0a05254406ebf5555a4917
:1041e4005a4b5b4f86ea0504114404ea0a047440fe
:1041f4008b44a34405ebbb4985ea0904734434406a
:104204000c9adff88cb16c409a44524ba24409ebef
:104214003a3113441e4489ea01032b4083ea09031b
:10422400334401ebf363089a4b4c81ea03061444cc
:1042340006ea09064e402544354403ebf55c0b9e23
:10424400039a83ea0c0537440d405d40b944434f5b
:10425400434ea9440cebb944174439448cea04078f
:104264001f4087ea0c070f4404eb3737079a3d4d8c
:10427400dff8209184ea0701164401ea0c01614049
:104284003344ce1807ebf66687ea06034544234019
:104294007b40ac44029a344903eb0c05dff8f8c0c8
:1042a400324b06ebf5559444644486ea050c0cea5b
:1042b400070c8cea060c644405ebb444069a85eac0
:1042c400040c11440cea060c8cea050c0f440cebac
:1042d400070104eb31310a9adff8c0c084ea010710
:1042e40013442f40019a67401e44bb1901ebf3634a
:1042f4009444ac4481ea030525404d40654403ebf6
:10430400f555059a1a4f1b4e83ea050c17440cea1f
:10431400010c8cea030c3c44644441e056b7c7e802
:10432400db702024eecebdc1019546fdd89880698e
:10433400aff7448b937198fd8e4379a62108b44955
:1043440062251ef640b340c0515a5e26aac7b6e99c
:1043540081e6a1d85d102fd653144402c8fbd3e7dd
:10436400e6cde121d60737c3ed145a4505e9e3a9a3
:10437400d9026f678a4c2a8d78a46ad7af0f7cf56f
:104384002ac68747134630a82211906bbed75c8992
:1043940097ff2a4381f67187870dd5f4f8a3effcc4
:1043a40005ebb444099a85ea0407164407ea030caa
:1043b4000c9a8cea050c31446144a2f5b82c04eb48
:1043c4003131acf2be6c4f4063443b44069fb14e66
:1043d40001eb3373b94484ea01075f404d443d4423
:1043e4000d9fdff8009303eb75553e4481ea030cff
:1043f4008cea050c3444644405eb3444c14483ea38
:1044040005066640494406eb0109a34f009ea349f3
:1044140004eb7929374485ea040686ea09063b4415
:1044240033449f4f039e09eb3373374484ea0906f0
:104434005e403d44354403eb755a059d994f29442c
:1044440089ea030c0c448cea0a0c0899964da4449e
:104454000aeb3c4c0f4483ea0a0181ea0c01b9449b
:1044640001eb09070a99914cdff87c920ceb772752
:104474000d448aea0c062b447e408d4d1e4407eb06
:10448400367675448cea07037340aa4403eb0a05a5
:10449400029bdff858a206eb75551c4487ea060117
:1044a400a4446940049c834b614405eb3141a1441d
:1044b40086ea050c4f448cea010c0ceb0704079fb9
:1044c40001eb74243b4485ea01091e4489ea04098a
:1044d400b144794b099e794f04eb3979334481ea2d
:1044e400040686ea09061d4473190b9e059d09eb13
:1044f4007353374484ea090c39448cea030c8c4422
:104504006f4f01996f4e03eb3c4c0f4489ea030152
:1045140081ea0c013c440f190ceb772767ea03048a
:104524007644b14484ea0c064e4407ebb666ab44c9
:1045340066ea0c0e8eea070e5b440eeb030bdff803
:10454400b091614c6149dff8ace106ebbb5bc1445f
:104554006bea0703cc44734003eb0c050beb754586
:10456400144465ea060383ea0b032744dc19099b18
:10457400574a584fdff88091dff88081dff880c117
:1045840005ebf424194464ea0b036b4031441944e9
:10459400029b514e04ebb1611a4461ea05035a448b
:1045a40063401344089a01ebb353a2f5801babf6a6
:1045b400833b63ea04024a405d441544009a03ebda
:1045c4007545174465ea01025a403c441444069f69
:1045d4000b9a05ebf424ba4464ea030b8bea050b4b
:1045e4005144594404ebb161914461ea05026240cb
:1045f4004b44049f134401ebb353b84463ea0407e8
:104604004f40a844b8440a9d344f03eb7848ae4465
:1046140068ea01055d40a644ae44039c08ebfe2e07
:10462400a4446eea030282ea080261440d9c114428
:104634000eebb161264461ea08041e4484ea0e03c9
:10464400019a274c334401ebb353174463ea0e0237
:10465400474482ea0108b844079f03eb784868eab4
:1046640001023c445a40a6449644c26c046d114471
:10467400826dc1641344426d04eb080505ebfe250d
:1046840002eb0804c0e91543056500200fb0bde83e
:10469400f08f00bf22619d6d44eabea4604bbbf65f
:1046a400a9cfde4b70bcbfbec67e9b288530efd43d
:1046b400fa27a1ea39d0d4d9e599dbe6f87ca21f20
:1046c4006556acc4442229f439a093fcc3595b65f4
:1046d40092cc0c8fd15d848535f23abdbbd2d72afa
:1046e40091d386eb0c38e5fd051d88044f7ea86f39
:1046f400a72394aba111084ee0e62cfe144301a3ba
:04470400827e53f767
:020000040000fa
:104708005478204279746520436f756e742d6c6ff0
:10471800776572203332626974732854784f544c29
:104728004f29000001c601005478204279746520a1
:10473800436f756e742d75707065722031366269bd
:1047480074732854784f5448492900000dc6010055
:104758005478204672616d657320772f6f206572db
:10476800726f722854784654434e54290000000052
:104778000000000019c6010054782042726f61647d
:1047880063617374204672616d657328547842437f
:1047980046542900000000000000000025c6010062
:1047a8005478204d756c7469636173742046726126
:1047b8006d65732854784d465429000000000000a8
:1047c8000000000031c601005478205061757365ff
:1047d800204672616d65732854785046542900004c
:1047e8000000000000000000000000003dc60100bd
:1047f80054782036342d62797465204672616d656f
:1048080073285478424654363429000000000000ca
:104818000000000049c6010054782036352d313299
:10482800372062797465204672616d657328544239
:1048380046543132372900000000000055c60100f7
:104848005478203132382d3235352062797465201c
:104858004672616d657328544246543235352900d5
:104868000000000061c601005478203235362d352d
:1048780031312062797465204672616d6573285400
:104888004246543531312900000000006dc6010050
:104898005478203531322d313032332062797465c5
:1048a800204672616d657328544246543130323364
:1048b8002900000079c60100547820313032342da7
:1048c800313531382062797465204672616d6573bf
:1048d80028544246543135313829000085c6010034
:1048e8005478204672616d6573203e3d2031353124
:1048f8003820627974652847544246313531382961
:104908000000000091c60100547820556e6465725d
:1049180072756e204672616d6573206e6f742054d7
:104928005865642854785455522900009dc60100e2
:1049380054782053696e676c6520436f6c6c69739b
:10494800696f6e204672616d6573285478534346cb
:1049580029000000a9c60100547820322d313520e5
:10496800436f6c6c6973696f6e204672616d657315
:104978002854784d4346290000000000b5c60100c0
:10498800547820313620436f6c6c6973696f6e20e0
:104998004672616d65732854784543434e54290027
:1049a80000000000c1c601005478206c61746520c5
:1049b800436f6c6c6973696f6e204672616d6573c5
:1049c8002854784c43434e5429000000cdc60100ba
:1049d8005478204465666572726564204672616d1c
:1049e80065732854784454462900000000000000ec
:1049f80000000000d9c60100547820436172726932
:104a080065722053656e7365206572726f722046f9
:104a180072616d657328547843534529e5c60100d2
:104a28005278204279746520436f756e742d6c6fcf
:104a3800776572203332626974732852784f524c0a
:104a48004f290000f1c60100527820427974652090
:104a5800436f756e742d757070657220313662699a
:104a680074732852784f524849290000fdc6010046
:104a78005278204672616d657320772f6f206572ba
:104a8800726f722852784652434e54290000000033
:104a98000000000009c7010052782042726f61646b
:104aa80063617374204672616d657328527842435e
:104ab80046522900000000000000000015c7010050
:104ac8005278204d756c7469636173742046726105
:104ad8006d6573202852784d465229000000000069
:104ae8000000000021c701005278205061757365ed
:104af800204672616d65732852785046522900002d
:104b08000000000000000000000000002dc70100a8
:104b180052782036342d62797465204672616d654d
:104b280073285278424652363429000000000000ab
:104b38000000000039c7010052782036352d313287
:104b4800372062797465204672616d657328544216
:104b580046523132372900000000000045c70100e5
:104b68005278203132382d323535206279746520fb
:104b78004672616d657328544246523235352900b4
:104b88000000000051c701005278203235362d351b
:104b980031312062797465204672616d65732854dd
:104ba8004246523531312900000000005dc701003e
:104bb8005278203531322d313032332062797465a4
:104bc800204672616d657328544246523130323343
:104bd8002900000069c70100527820313032342d95
:104be800313531382062797465204672616d65739c
:104bf80028544246523135313829000075c7010022
:104c08005278204672616d6573203e3d2031353102
:104c18003920627974657328544d584246522900e8
:104c28000000000081c701005278204672616d655e
:104c380073203c2036342062797465732852785585
:104c48004652290000000000000000008dc7010046
:104c58005278204672616d6573203e2031353138b7
:104c68002062797465732852784f465229000000f3
:104c78000000000099c701005278206572726f72b7
:104c8800204672616d6573203e20313531382062cf
:104c9800797465732852784a52290000a5c7010023
:104ca800527820435243206572726f7220467261b7
:104cb8006d6573285278464353452900000000006b
:104cc80000000000b1c701005278204c656e67747f
:104cd80068206669656c64206572726f722046721e
:104ce800616d65732852784c46464529bdc7010059
:104cf80052782073796d626f6c206572726f7220c2
:104d08004672616d65732852785253452900000038
:104d180000000000c9c70100527820616c69676e05
:104d28006d656e74206572726f72204672616d6572
:104d3800732852784145290000000000d5c70100ba
:104d48005278205265736f75726365204572726f71
:104d580072202852785252452900000000000000b5
:104d680000000000e1c701005278206f766572727a
:104d7800756e206572726f72204672616d65732858
:104d88005278524f4529000000000000edc701008d
:104d980052782049504864722043686b73756d20bf
:104da8006572726f72204672616d65732852784918
:104db80048434529f9c701005278205443502043fd
:104dc800686b73756d206572726f72204672616dc3
:104dd80065732852785443452900000005c801002e
:104de8005278205544502043686b73756d20657266
:104df800726f72204672616d65732852785543450b
:084e08002900000011c801009f
:020000040000fa
:104e10002de9f04fb64b83461868dbf804308fb0ad
:104e20000028029313dd8946b24991f8ce30012b58
:104e3000164600f0798200230d4603e095f8ce2057
:104e4000012a0dd00133834205f1d805f6d1dbf8f4
:104e50000030a9491b68029898470fb0bde8f08f51
:104e6000691ac91001ebc10201eb4202c2eb4222f6
:104e700002eb82425242dbf80030a0495b680298a4
:104e800000249847022141f289329d4b29746a829d
:104e9000ab6185f8d14085f8cf4015f0a1fd024601
:104ea00002eb82035b00059000210020c5e900248d
:104eb000ab6040f2b45240f2be53b9f1010f2c7511
:104ec000c5e90a44c5e90c44c5f8944085f8cd40cd
:104ed000c5e92244c5e92644c5e92844c5f8a840e7
:104ee00085f8d040c5f8b440c5f8c4b0c5e908019c
:104ef000a5f8d220eb6040f3c880dff854a2cdf8cb
:104f00000cb0012456f8247097f80080b8f12d0fea
:104f100000f0ad8005225146384616f02bfe0028e1
:104f200000f0a980b8f12d0f00f0da800522754954
:104f3000384616f01ffe002800f0d680b8f12d0f7d
:104f400000f0088105227049384616f013fe00284b
:104f500000f00481b8f12d0f00f0d18105226b49da
:104f6000384616f007fe002800f0cd81b8f12d0f6d
:104f700000f0dd8105226649384616f0fbfd002869
:104f800000f0d981b8f12d0f00f0f58105226149bb
:104f9000384616f0effd002800f0f181b8f12d0f32
:104fa00000f0008205225c49384616f0e3fd002837
:104fb00000f0fc8102225949384616f0dbfd00283a
:104fc00000f0528205225649384616f0d3fd0028db
:104fd00000f04a8202225349384616f0cbfd0028e1
:104fe00000f01f8205225049384616f0c3fd002804
:104ff00000f0178202224d49384616f0bbfd00280a
:1050000000f0fc8105224a49384616f0b3fd00281d
:1050100000f0f48102224749384616f0abfd002823
:1050200000f0e08106224449384616f0a3fd00282e
:1050300000f0d88102224149384616f09bfd28b184
:10504000384605223e4916f095fdb8b90134e4b260
:1050500056f82400002800f0bb8101220aa90ff0b5
:1050600007fb0a9b332b40f2b481eb6006e07b78b0
:10507000732b7ff44faf012385f8d1300134e4b2b4
:105080004c45fff63fafddf80cb095f8d110002984
:1050900000f0d580012920d1029cdbf8003029499d
:1050a0001b6820469847dbf8003027491b682046dc
:1050b00098472b7c012b00f00f81022b00f0fe8023
:1050c000d5f8c43021491b6802986a8a5b68984702
:1050d00005f1ce00022112f07ffd0fb0bde8f08f88
:1050e0007b78752b7ff422af01232b74c6e700bfba
:1050f000342900201820002094310000c031000025
:1051000040420f00f82f000004300000383000004b
:105110004830000058300000643000006c3000005f
:1051200070300000a4300000a8300000002d000006
:10513000b0300000bc300000c0300000c8300000bb
:10514000cc300000283100006431000088310000bc
:10515000e82f00007b78622b7ff4f4ae0134e4b2d8
:105160004ff0010b56f8247085f810b0384617f050
:1051700003fac0b200f1ff3807eb08031846b04944
:10518000049316f04eff049b002800f0868018461a
:10519000ac4916f046ff002840f0c0804ff47a7307
:1051a0000493b8f1000f40f3e0804ff0000c0121b0
:1051b000ab4662466346ddf810e006940d4607965e
:1051c0000fe0a14c0ceb8c0001eb4000a4fb0e6443
:1051d0007dbba0f1300c4fead40e0133dbb2984511
:1051e0000fddf95ca1f130000928ead92e29f4d1ac
:1051f00001330499dbb298454ff0000501fb02f240
:10520000efdc0499069c079e8a425d460efb0cf378
:105210004ed3d01803990968009003984f684068ee
:105220008a49cde90a23b847dde90a321344ab6164
:1052300024e702eb820201eb4202303acde705f1ae
:10524000800012f075f8c5f8c80000284cd02b7cff
:10525000022b3ad0012b09bfab899fed7d7a07ee77
:10526000103ab8ee477aab69dded056adb0807ee68
:10527000903af8eee77ab8ee666ac7ee876a05f10b
:10528000ce000a21c6ee267afceee77ac5ed217a39
:1052900012f0a2fc0fb0bde8f08f1846694916f075
:1052a000c0fe00286b4b08bf4ff47a73049378e775
:1052b000049901fb02f10a465818abe7dbf800300d
:1052c00065491b6802989847fae6b5f8d23007eeb0
:1052d000103ab8ee477ac6e7dbf800305f491b6842
:1052e000029898472b7ce8e6dbf800305c491b68a5
:1052f0000298984717f09efac5f8c800a7e77b7890
:10530000782b7ff42bae0134e4b256f8240080b33e
:1053100001220aa90ff0acf90a9b88e75a463846e1
:105320000aa90ff0a5f9f7e70d460022a3e57b785f
:10533000632b7ff41fae0134e4b2002385f8d13033
:1053400056f8240060b304220aa90ff091f99df8e1
:1053500028000b9b0c9a85f845300d9b85f844007e
:1053600085f8462085f8473088e600200246034647
:1053700050e70a90d0e77b78742b7ff407ae0134b6
:10538000e4b256f82400f8b101220aa90ff070f92e
:10539000059a0a9b02fb03f30022c5e901236de68f
:1053a0000a90d6e77b786e2b7ff4fcad0134e4b233
:1053b00056f8240050b101220aa90ff059f90a9bae
:1053c0006b600023ab6059e60a90e1e70a90f6e7cc
:1053d0000a90d5f8c43023491b6802985b683422d0
:1053e00098477ae60134e4b256f82400a8b10122c5
:1053f0000aa90ff03df90a9b6b823fe60134e4b243
:1054000056f8240058b101220aa90ff031f90a9b7d
:10541000059a02fb03f32b6030e60a90ebe70a9053
:10542000f5e70134e4b256f8240000283ad001220e
:105430000aa90ff01df90a9ba5f8d2301ee600bf9d
:105440001030000014300000cdcccccc183000005f
:105450000000000040420f00843100008031000055
:1054600000310000d43000000134e4b256f82400ca
:105470004378782b25d001220aa90ff0f9f89df87e
:105480002820202a1ad015d9a02a10d0c02a0bd142
:1054900010232b75039b029819682b7d4f680d49cb
:1054a000b847ebe50a90c6e700232b75f2e7202307
:1054b0002b75efe7002af7d12a75ebe708232b7548
:1054c000e8e743885bba98b2adf8263014f0c2fe24
:0854d0000246d6e77830000027
:020000040000fa
:1054d8002de9f04fb14c844287b040f0c280dff82c
:1054e800e88298f90020531edbb2012b00f2b98044
:1054f800ab4e3568002d00f0a680012a00f0b4807c
:105508002388002b00f0b2810027b94640f2dc5a0c
:10551800eb6c1846002b3cd06b6c9b69984795f850
:1055280043305b0635d56b6ce86c5b69984700289f
:10553800c0f2f88002282cd16b6c286dcdf8109041
:105548001b6ccdf81490cde90299adf812a002a910
:1055580098470298e863bdf80c30a5f84030bdf8cc
:105568000e3095f84320003318bf012363f345122a
:1055780085f84320bdf81230b5f84220a5f85e3012
:1055880043f6bf73134043f4004343f04003a5f8c8
:105598004230218801378f4205f16c05b8db98f954
:1055a8000020012a00f099807e4b1b68002b00f038
:1055b80000827d4b7d4f1a68dff810b222b9396836
:1055c800dbf800200a434cd01a68002a40f0f48126
:1055d800396835682388002940f0d680002b00f010
:1055e8005f8100910026dff8e8a1b14640f28667a6
:1055f80008e0a5f85c9023880136b34205f16c05f4
:1056080040f3b38195f842305906f4d5b5f85c10eb
:10561800394204d0daf800300133caf8003095f87e
:1056280060309a07e5d55b0795f860306ff3410362
:105638004cbf41f4006141f4805185f86030284640
:105648000ff0eefbd5e75a4b02a81b6898470028d5
:1056580007dc40f039820298002800f0358202f019
:10566800e7f807b0bde8f08f524f3b6801337ff48d
:1056780047af514a0021052016f016fa386001306c
:1056880000f02c8215f0a8f94c494d4d4d4b00eb1c
:10569800800202f2e732a1fb021291094ff47a72fa
:1056a80002fb01f203f51471b2fbf0f0286005b2b9
:1056b80003e010338b4200f0268253f8102c002aa6
:1056c800f7d033f9062c002af3d0904288bf2a4637
:1056d80023f8042c23f8062cebe7d6f800a00029c1
:1056e80000f0c9804ff000094b46504608e002fa26
:1056f80003f549ea05090133994200f16c0023d00a
:1057080090f8435005f00c07042ff0d115f0800fe6
:1057180002fa03f7a5d090f842506d06ebd549ea96
:105728000709e8e70421284610f09afc95f8433069
:1057380043f0800385f84330218801378f4205f113
:105748006c05fff6e5ae2ae7012303fa01f10139fa
:10575800494500f090802388002b00f073810025d4
:1057680044f2400605e023889d420af16c0a80f263
:105778006981baf842301e4205f10105f3d00421cf
:10578800504610f06dfceee7009200223a60002bc4
:1057980000f0b180dff83ca091462ce06c27002097
:1057a800c4280020c0280020b4280020cc280020cd
:1057b800c8280020fc2a002089980100d34d6210d7
:1057c800bc280020c01a0020e2290020b8280020a8
:1057d800ac280020b028002095f84330980603d55f
:1057e8006b6c286d9b6b9847238809f101094b4521
:1057f80005f16c057fdd95f842305f06f4d56b6cda
:10580800286d5b6db5f85a7098470743012016f06c
:1058180039fbb5f85a30bfb223ea07030146a5f8a9
:105828005a30012016f044feb5f85c306a6c286dd9
:10583800126d3b43a5f85c303946904717f0160fb8
:10584800cad003e08562012012f086fe6b6c286dd9
:105858005b6b002211469847002201460028f1d1cf
:10586800daf800300133caf80030b5e798f90030ab
:10587800012b7ff499ae0223a74988f80030002055
:1058880014f01cfe90e6012016f0fcfab9f8083076
:1058980023f002030146a9f80830012016f008fe9b
:1058a8009e4c04f51477002016f0ecfa54f8105cbe
:1058b80034f8086c01460020103416f0f9fd0db1db
:1058c80006b1a847bc42eed1dbf80030002b3ff40c
:1058d800c8ae93484469002c3ff4c3ae103000238f
:1058e8004ff480720121a047bbe63a68002a3fd0f6
:1058f8003b60012300930023dff82492894f019332
:10590800384615f02bfe0546e8b16b699b895bbaf2
:105918009bb240f60602934200f0a380b3f5006ff5
:1059280000f0c4804ff6ff72934200f0c88028460a
:1059380001226ff00c0114f00bfb384615f00efe37
:1059480005460028e1d1012016f09cfab9f8183074
:1059580023f001030146a9f81830012016f0a8fd2c
:1059680023883568002b7ff43dae009b002b97d031
:105978006d4c6e4ea4f1200909f51c7504e0a18157
:105988001034ac423ff47faf2368002bf8d0b4f951
:105998000a20002af4d03168a3895b1a9bb219b295
:1059a8000029ecdc134402212046a38113f05efd9c
:1059b800e6e712f065fdfce500251d6016f08aff9c
:1059c800824614f0abfd52462b468046894614f0b9
:1059d80005fe574b574a1860a2fb0a329209404607
:1059e8002b46494614f0fafd534a23881060d6f82e
:1059f8000080002b3ff479af98f842305b0605f140
:105a0800010513d5d8f84430d8f850005b6a984798
:105a180098f8603003f0010243f00203904260f30b
:105a280082031cbf60f3000388f8603023889d421e
:105a380008f16c08e0db3a683568002a48d0012292
:105a48000092a2e6ff2388f8003016f03dff0028f8
:105a58003ff407ae16f032ff4a46384910f096f880
:105a6800ffe5dff8e4a002204ff480734ff0000850
:105a78006a8c22f47c5213436b840022294612f06c
